{
	"PaperPleace/PaperPleace.sol": {
		"DocumentoFirmado": {
			"abi": [
				{
					"inputs": [
						{
							"internalType": "address",
							"name": "_f1",
							"type": "address"
						},
						{
							"internalType": "address",
							"name": "_f2",
							"type": "address"
						},
						{
							"internalType": "address",
							"name": "_f3",
							"type": "address"
						},
						{
							"internalType": "string",
							"name": "_ipfsHash",
							"type": "string"
						}
					],
					"stateMutability": "nonpayable",
					"type": "constructor"
				},
				{
					"anonymous": false,
					"inputs": [
						{
							"indexed": false,
							"internalType": "enum DocumentoFirmado.Estado",
							"name": "nuevoEstado",
							"type": "uint8"
						}
					],
					"name": "EstadoActualizado",
					"type": "event"
				},
				{
					"anonymous": false,
					"inputs": [
						{
							"indexed": true,
							"internalType": "address",
							"name": "firmante",
							"type": "address"
						},
						{
							"indexed": false,
							"internalType": "uint256",
							"name": "fecha",
							"type": "uint256"
						}
					],
					"name": "Firmado",
					"type": "event"
				},
				{
					"inputs": [],
					"name": "estado",
					"outputs": [
						{
							"internalType": "enum DocumentoFirmado.Estado",
							"name": "",
							"type": "uint8"
						}
					],
					"stateMutability": "view",
					"type": "function"
				},
				{
					"inputs": [
						{
							"internalType": "address",
							"name": "",
							"type": "address"
						}
					],
					"name": "fechaFirma",
					"outputs": [
						{
							"internalType": "uint256",
							"name": "",
							"type": "uint256"
						}
					],
					"stateMutability": "view",
					"type": "function"
				},
				{
					"inputs": [],
					"name": "firmadoPorTodos",
					"outputs": [
						{
							"internalType": "bool",
							"name": "",
							"type": "bool"
						}
					],
					"stateMutability": "view",
					"type": "function"
				},
				{
					"inputs": [],
					"name": "firmante1",
					"outputs": [
						{
							"internalType": "address",
							"name": "",
							"type": "address"
						}
					],
					"stateMutability": "view",
					"type": "function"
				},
				{
					"inputs": [],
					"name": "firmante2",
					"outputs": [
						{
							"internalType": "address",
							"name": "",
							"type": "address"
						}
					],
					"stateMutability": "view",
					"type": "function"
				},
				{
					"inputs": [],
					"name": "firmante3",
					"outputs": [
						{
							"internalType": "address",
							"name": "",
							"type": "address"
						}
					],
					"stateMutability": "view",
					"type": "function"
				},
				{
					"inputs": [],
					"name": "firmarDocumento",
					"outputs": [],
					"stateMutability": "nonpayable",
					"type": "function"
				},
				{
					"inputs": [
						{
							"internalType": "address",
							"name": "_addr",
							"type": "address"
						}
					],
					"name": "fueFirmadoPor",
					"outputs": [
						{
							"internalType": "bool",
							"name": "firmado",
							"type": "bool"
						},
						{
							"internalType": "uint256",
							"name": "fecha",
							"type": "uint256"
						}
					],
					"stateMutability": "view",
					"type": "function"
				},
				{
					"inputs": [
						{
							"internalType": "address",
							"name": "",
							"type": "address"
						}
					],
					"name": "haFirmado",
					"outputs": [
						{
							"internalType": "bool",
							"name": "",
							"type": "bool"
						}
					],
					"stateMutability": "view",
					"type": "function"
				},
				{
					"inputs": [],
					"name": "ipfsHash",
					"outputs": [
						{
							"internalType": "string",
							"name": "",
							"type": "string"
						}
					],
					"stateMutability": "view",
					"type": "function"
				},
				{
					"inputs": [],
					"name": "marcarNoVerificado",
					"outputs": [],
					"stateMutability": "nonpayable",
					"type": "function"
				},
				{
					"inputs": [],
					"name": "obtenerEstado",
					"outputs": [
						{
							"internalType": "string",
							"name": "",
							"type": "string"
						}
					],
					"stateMutability": "view",
					"type": "function"
				},
				{
					"inputs": [],
					"name": "obtenerFirmantes",
					"outputs": [
						{
							"internalType": "address",
							"name": "",
							"type": "address"
						},
						{
							"internalType": "address",
							"name": "",
							"type": "address"
						},
						{
							"internalType": "address",
							"name": "",
							"type": "address"
						}
					],
					"stateMutability": "view",
					"type": "function"
				},
				{
					"inputs": [],
					"name": "obtenerHashIPFS",
					"outputs": [
						{
							"internalType": "string",
							"name": "",
							"type": "string"
						}
					],
					"stateMutability": "view",
					"type": "function"
				}
			],
			"devdoc": {
				"kind": "dev",
				"methods": {},
				"version": 1
			},
			"evm": {
				"assembly": "    /* \"PaperPleace/PaperPleace.sol\":57:2820  contract DocumentoFirmado {... */\n  mstore(0x40, 0x80)\n    /* \"PaperPleace/PaperPleace.sol\":505:924  constructor(address _f1, address _f2, address _f3, string memory _ipfsHash) {... */\n  callvalue\n  dup1\n  iszero\n  tag_1\n  jumpi\n  revert(0x00, 0x00)\ntag_1:\n  pop\n  mload(0x40)\n  sub(codesize, bytecodeSize)\n  dup1\n  bytecodeSize\n  dup4\n  codecopy\n  dup2\n  dup2\n  add\n  0x40\n  mstore\n  dup2\n  add\n  swap1\n  tag_2\n  swap2\n  swap1\n  tag_3\n  jump\t// in\ntag_2:\n    /* \"PaperPleace/PaperPleace.sol\":614:615  0 */\n  0x00\n    /* \"PaperPleace/PaperPleace.sol\":599:616  _f1 != address(0) */\n  0xffffffffffffffffffffffffffffffffffffffff\n  and\n    /* \"PaperPleace/PaperPleace.sol\":599:602  _f1 */\n  dup5\n    /* \"PaperPleace/PaperPleace.sol\":599:616  _f1 != address(0) */\n  0xffffffffffffffffffffffffffffffffffffffff\n  and\n  eq\n  iszero\n    /* \"PaperPleace/PaperPleace.sol\":599:637  _f1 != address(0) && _f2 != address(0) */\n  dup1\n  iszero\n  tag_6\n  jumpi\n  pop\n    /* \"PaperPleace/PaperPleace.sol\":635:636  0 */\n  0x00\n    /* \"PaperPleace/PaperPleace.sol\":620:637  _f2 != address(0) */\n  0xffffffffffffffffffffffffffffffffffffffff\n  and\n    /* \"PaperPleace/PaperPleace.sol\":620:623  _f2 */\n  dup4\n    /* \"PaperPleace/PaperPleace.sol\":620:637  _f2 != address(0) */\n  0xffffffffffffffffffffffffffffffffffffffff\n  and\n  eq\n  iszero\n    /* \"PaperPleace/PaperPleace.sol\":599:637  _f1 != address(0) && _f2 != address(0) */\ntag_6:\n    /* \"PaperPleace/PaperPleace.sol\":599:658  _f1 != address(0) && _f2 != address(0) && _f3 != address(0) */\n  dup1\n  iszero\n  tag_7\n  jumpi\n  pop\n    /* \"PaperPleace/PaperPleace.sol\":656:657  0 */\n  0x00\n    /* \"PaperPleace/PaperPleace.sol\":641:658  _f3 != address(0) */\n  0xffffffffffffffffffffffffffffffffffffffff\n  and\n    /* \"PaperPleace/PaperPleace.sol\":641:644  _f3 */\n  dup3\n    /* \"PaperPleace/PaperPleace.sol\":641:658  _f3 != address(0) */\n  0xffffffffffffffffffffffffffffffffffffffff\n  and\n  eq\n  iszero\n    /* \"PaperPleace/PaperPleace.sol\":599:658  _f1 != address(0) && _f2 != address(0) && _f3 != address(0) */\ntag_7:\n    /* \"PaperPleace/PaperPleace.sol\":591:681  require(_f1 != address(0) && _f2 != address(0) && _f3 != address(0), \"Direccion invalida\") */\n  tag_8\n  jumpi\n  mload(0x40)\n  0x08c379a000000000000000000000000000000000000000000000000000000000\n  dup2\n  mstore\n  0x04\n  add\n  tag_9\n  swap1\n  tag_10\n  jump\t// in\ntag_9:\n  mload(0x40)\n  dup1\n  swap2\n  sub\n  swap1\n  revert\ntag_8:\n    /* \"PaperPleace/PaperPleace.sol\":706:709  _f2 */\n  dup3\n    /* \"PaperPleace/PaperPleace.sol\":699:709  _f1 != _f2 */\n  0xffffffffffffffffffffffffffffffffffffffff\n  and\n    /* \"PaperPleace/PaperPleace.sol\":699:702  _f1 */\n  dup5\n    /* \"PaperPleace/PaperPleace.sol\":699:709  _f1 != _f2 */\n  0xffffffffffffffffffffffffffffffffffffffff\n  and\n  eq\n  iszero\n    /* \"PaperPleace/PaperPleace.sol\":699:723  _f1 != _f2 && _f1 != _f3 */\n  dup1\n  iszero\n  tag_11\n  jumpi\n  pop\n    /* \"PaperPleace/PaperPleace.sol\":720:723  _f3 */\n  dup2\n    /* \"PaperPleace/PaperPleace.sol\":713:723  _f1 != _f3 */\n  0xffffffffffffffffffffffffffffffffffffffff\n  and\n    /* \"PaperPleace/PaperPleace.sol\":713:716  _f1 */\n  dup5\n    /* \"PaperPleace/PaperPleace.sol\":713:723  _f1 != _f3 */\n  0xffffffffffffffffffffffffffffffffffffffff\n  and\n  eq\n  iszero\n    /* \"PaperPleace/PaperPleace.sol\":699:723  _f1 != _f2 && _f1 != _f3 */\ntag_11:\n    /* \"PaperPleace/PaperPleace.sol\":699:737  _f1 != _f2 && _f1 != _f3 && _f2 != _f3 */\n  dup1\n  iszero\n  tag_12\n  jumpi\n  pop\n    /* \"PaperPleace/PaperPleace.sol\":734:737  _f3 */\n  dup2\n    /* \"PaperPleace/PaperPleace.sol\":727:737  _f2 != _f3 */\n  0xffffffffffffffffffffffffffffffffffffffff\n  and\n    /* \"PaperPleace/PaperPleace.sol\":727:730  _f2 */\n  dup4\n    /* \"PaperPleace/PaperPleace.sol\":727:737  _f2 != _f3 */\n  0xffffffffffffffffffffffffffffffffffffffff\n  and\n  eq\n  iszero\n    /* \"PaperPleace/PaperPleace.sol\":699:737  _f1 != _f2 && _f1 != _f3 && _f2 != _f3 */\ntag_12:\n    /* \"PaperPleace/PaperPleace.sol\":691:770  require(_f1 != _f2 && _f1 != _f3 && _f2 != _f3, \"Direcciones deben ser unicas\") */\n  tag_13\n  jumpi\n  mload(0x40)\n  0x08c379a000000000000000000000000000000000000000000000000000000000\n  dup2\n  mstore\n  0x04\n  add\n  tag_14\n  swap1\n  tag_15\n  jump\t// in\ntag_14:\n  mload(0x40)\n  dup1\n  swap2\n  sub\n  swap1\n  revert\ntag_13:\n    /* \"PaperPleace/PaperPleace.sol\":793:796  _f1 */\n  dup4\n    /* \"PaperPleace/PaperPleace.sol\":781:790  firmante1 */\n  0x00\n  0x00\n    /* \"PaperPleace/PaperPleace.sol\":781:796  firmante1 = _f1 */\n  0x0100\n  exp\n  dup2\n  sload\n  dup2\n  0xffffffffffffffffffffffffffffffffffffffff\n  mul\n  not\n  and\n  swap1\n  dup4\n  0xffffffffffffffffffffffffffffffffffffffff\n  and\n  mul\n  or\n  swap1\n  sstore\n  pop\n    /* \"PaperPleace/PaperPleace.sol\":818:821  _f2 */\n  dup3\n    /* \"PaperPleace/PaperPleace.sol\":806:815  firmante2 */\n  0x01\n  0x00\n    /* \"PaperPleace/PaperPleace.sol\":806:821  firmante2 = _f2 */\n  0x0100\n  exp\n  dup2\n  sload\n  dup2\n  0xffffffffffffffffffffffffffffffffffffffff\n  mul\n  not\n  and\n  swap1\n  dup4\n  0xffffffffffffffffffffffffffffffffffffffff\n  and\n  mul\n  or\n  swap1\n  sstore\n  pop\n    /* \"PaperPleace/PaperPleace.sol\":843:846  _f3 */\n  dup2\n    /* \"PaperPleace/PaperPleace.sol\":831:840  firmante3 */\n  0x02\n  0x00\n    /* \"PaperPleace/PaperPleace.sol\":831:846  firmante3 = _f3 */\n  0x0100\n  exp\n  dup2\n  sload\n  dup2\n  0xffffffffffffffffffffffffffffffffffffffff\n  mul\n  not\n  and\n  swap1\n  dup4\n  0xffffffffffffffffffffffffffffffffffffffff\n  and\n  mul\n  or\n  swap1\n  sstore\n  pop\n    /* \"PaperPleace/PaperPleace.sol\":867:876  _ipfsHash */\n  dup1\n    /* \"PaperPleace/PaperPleace.sol\":856:864  ipfsHash */\n  0x03\n    /* \"PaperPleace/PaperPleace.sol\":856:876  ipfsHash = _ipfsHash */\n  swap1\n  dup2\n  tag_16\n  swap2\n  swap1\n  tag_17\n  jump\t// in\ntag_16:\n  pop\n    /* \"PaperPleace/PaperPleace.sol\":896:917  Estado.EnVerificacion */\n  0x00\n    /* \"PaperPleace/PaperPleace.sol\":887:893  estado */\n  0x04\n  0x00\n    /* \"PaperPleace/PaperPleace.sol\":887:917  estado = Estado.EnVerificacion */\n  0x0100\n  exp\n  dup2\n  sload\n  dup2\n  0xff\n  mul\n  not\n  and\n  swap1\n  dup4\n  0x02\n  dup2\n  gt\n  iszero\n  tag_18\n  jumpi\n  tag_19\n  tag_20\n  jump\t// in\ntag_19:\ntag_18:\n  mul\n  or\n  swap1\n  sstore\n  pop\n    /* \"PaperPleace/PaperPleace.sol\":505:924  constructor(address _f1, address _f2, address _f3, string memory _ipfsHash) {... */\n  pop\n  pop\n  pop\n  pop\n    /* \"PaperPleace/PaperPleace.sol\":57:2820  contract DocumentoFirmado {... */\n  jump(tag_21)\n    /* \"#utility.yul\":7:82   */\ntag_22:\n    /* \"#utility.yul\":40:46   */\n  0x00\n    /* \"#utility.yul\":73:75   */\n  0x40\n    /* \"#utility.yul\":67:76   */\n  mload\n    /* \"#utility.yul\":57:76   */\n  swap1\n  pop\n    /* \"#utility.yul\":7:82   */\n  swap1\n  jump\t// out\n    /* \"#utility.yul\":88:205   */\ntag_23:\n    /* \"#utility.yul\":197:198   */\n  0x00\n    /* \"#utility.yul\":194:195   */\n  0x00\n    /* \"#utility.yul\":187:199   */\n  revert\n    /* \"#utility.yul\":211:328   */\ntag_24:\n    /* \"#utility.yul\":320:321   */\n  0x00\n    /* \"#utility.yul\":317:318   */\n  0x00\n    /* \"#utility.yul\":310:322   */\n  revert\n    /* \"#utility.yul\":334:460   */\ntag_25:\n    /* \"#utility.yul\":371:378   */\n  0x00\n    /* \"#utility.yul\":411:453   */\n  0xffffffffffffffffffffffffffffffffffffffff\n    /* \"#utility.yul\":404:409   */\n  dup3\n    /* \"#utility.yul\":400:454   */\n  and\n    /* \"#utility.yul\":389:454   */\n  swap1\n  pop\n    /* \"#utility.yul\":334:460   */\n  swap2\n  swap1\n  pop\n  jump\t// out\n    /* \"#utility.yul\":466:562   */\ntag_26:\n    /* \"#utility.yul\":503:510   */\n  0x00\n    /* \"#utility.yul\":532:556   */\n  tag_69\n    /* \"#utility.yul\":550:555   */\n  dup3\n    /* \"#utility.yul\":532:556   */\n  tag_25\n  jump\t// in\ntag_69:\n    /* \"#utility.yul\":521:556   */\n  swap1\n  pop\n    /* \"#utility.yul\":466:562   */\n  swap2\n  swap1\n  pop\n  jump\t// out\n    /* \"#utility.yul\":568:690   */\ntag_27:\n    /* \"#utility.yul\":641:665   */\n  tag_71\n    /* \"#utility.yul\":659:664   */\n  dup2\n    /* \"#utility.yul\":641:665   */\n  tag_26\n  jump\t// in\ntag_71:\n    /* \"#utility.yul\":634:639   */\n  dup2\n    /* \"#utility.yul\":631:666   */\n  eq\n    /* \"#utility.yul\":621:684   */\n  tag_72\n  jumpi\n    /* \"#utility.yul\":680:681   */\n  0x00\n    /* \"#utility.yul\":677:678   */\n  0x00\n    /* \"#utility.yul\":670:682   */\n  revert\n    /* \"#utility.yul\":621:684   */\ntag_72:\n    /* \"#utility.yul\":568:690   */\n  pop\n  jump\t// out\n    /* \"#utility.yul\":696:839   */\ntag_28:\n    /* \"#utility.yul\":753:758   */\n  0x00\n    /* \"#utility.yul\":784:790   */\n  dup2\n    /* \"#utility.yul\":778:791   */\n  mload\n    /* \"#utility.yul\":769:791   */\n  swap1\n  pop\n    /* \"#utility.yul\":800:833   */\n  tag_74\n    /* \"#utility.yul\":827:832   */\n  dup2\n    /* \"#utility.yul\":800:833   */\n  tag_27\n  jump\t// in\ntag_74:\n    /* \"#utility.yul\":696:839   */\n  swap3\n  swap2\n  pop\n  pop\n  jump\t// out\n    /* \"#utility.yul\":845:962   */\ntag_29:\n    /* \"#utility.yul\":954:955   */\n  0x00\n    /* \"#utility.yul\":951:952   */\n  0x00\n    /* \"#utility.yul\":944:956   */\n  revert\n    /* \"#utility.yul\":968:1085   */\ntag_30:\n    /* \"#utility.yul\":1077:1078   */\n  0x00\n    /* \"#utility.yul\":1074:1075   */\n  0x00\n    /* \"#utility.yul\":1067:1079   */\n  revert\n    /* \"#utility.yul\":1091:1193   */\ntag_31:\n    /* \"#utility.yul\":1132:1138   */\n  0x00\n    /* \"#utility.yul\":1183:1185   */\n  0x1f\n    /* \"#utility.yul\":1179:1186   */\n  not\n    /* \"#utility.yul\":1174:1176   */\n  0x1f\n    /* \"#utility.yul\":1167:1172   */\n  dup4\n    /* \"#utility.yul\":1163:1177   */\n  add\n    /* \"#utility.yul\":1159:1187   */\n  and\n    /* \"#utility.yul\":1149:1187   */\n  swap1\n  pop\n    /* \"#utility.yul\":1091:1193   */\n  swap2\n  swap1\n  pop\n  jump\t// out\n    /* \"#utility.yul\":1199:1379   */\ntag_32:\n    /* \"#utility.yul\":1247:1324   */\n  0x4e487b7100000000000000000000000000000000000000000000000000000000\n    /* \"#utility.yul\":1244:1245   */\n  0x00\n    /* \"#utility.yul\":1237:1325   */\n  mstore\n    /* \"#utility.yul\":1344:1348   */\n  0x41\n    /* \"#utility.yul\":1341:1342   */\n  0x04\n    /* \"#utility.yul\":1334:1349   */\n  mstore\n    /* \"#utility.yul\":1368:1372   */\n  0x24\n    /* \"#utility.yul\":1365:1366   */\n  0x00\n    /* \"#utility.yul\":1358:1373   */\n  revert\n    /* \"#utility.yul\":1385:1666   */\ntag_33:\n    /* \"#utility.yul\":1468:1495   */\n  tag_80\n    /* \"#utility.yul\":1490:1494   */\n  dup3\n    /* \"#utility.yul\":1468:1495   */\n  tag_31\n  jump\t// in\ntag_80:\n    /* \"#utility.yul\":1460:1466   */\n  dup2\n    /* \"#utility.yul\":1456:1496   */\n  add\n    /* \"#utility.yul\":1598:1604   */\n  dup2\n    /* \"#utility.yul\":1586:1596   */\n  dup2\n    /* \"#utility.yul\":1583:1605   */\n  lt\n    /* \"#utility.yul\":1562:1580   */\n  0xffffffffffffffff\n    /* \"#utility.yul\":1550:1560   */\n  dup3\n    /* \"#utility.yul\":1547:1581   */\n  gt\n    /* \"#utility.yul\":1544:1606   */\n  or\n    /* \"#utility.yul\":1541:1629   */\n  iszero\n  tag_81\n  jumpi\n    /* \"#utility.yul\":1609:1627   */\n  tag_82\n  tag_32\n  jump\t// in\ntag_82:\n    /* \"#utility.yul\":1541:1629   */\ntag_81:\n    /* \"#utility.yul\":1649:1659   */\n  dup1\n    /* \"#utility.yul\":1645:1647   */\n  0x40\n    /* \"#utility.yul\":1638:1660   */\n  mstore\n    /* \"#utility.yul\":1428:1666   */\n  pop\n    /* \"#utility.yul\":1385:1666   */\n  pop\n  pop\n  jump\t// out\n    /* \"#utility.yul\":1672:1801   */\ntag_34:\n    /* \"#utility.yul\":1706:1712   */\n  0x00\n    /* \"#utility.yul\":1733:1753   */\n  tag_84\n  tag_22\n  jump\t// in\ntag_84:\n    /* \"#utility.yul\":1723:1753   */\n  swap1\n  pop\n    /* \"#utility.yul\":1762:1795   */\n  tag_85\n    /* \"#utility.yul\":1790:1794   */\n  dup3\n    /* \"#utility.yul\":1782:1788   */\n  dup3\n    /* \"#utility.yul\":1762:1795   */\n  tag_33\n  jump\t// in\ntag_85:\n    /* \"#utility.yul\":1672:1801   */\n  swap2\n  swap1\n  pop\n  jump\t// out\n    /* \"#utility.yul\":1807:2115   */\ntag_35:\n    /* \"#utility.yul\":1869:1873   */\n  0x00\n    /* \"#utility.yul\":1959:1977   */\n  0xffffffffffffffff\n    /* \"#utility.yul\":1951:1957   */\n  dup3\n    /* \"#utility.yul\":1948:1978   */\n  gt\n    /* \"#utility.yul\":1945:2001   */\n  iszero\n  tag_87\n  jumpi\n    /* \"#utility.yul\":1981:1999   */\n  tag_88\n  tag_32\n  jump\t// in\ntag_88:\n    /* \"#utility.yul\":1945:2001   */\ntag_87:\n    /* \"#utility.yul\":2019:2048   */\n  tag_89\n    /* \"#utility.yul\":2041:2047   */\n  dup3\n    /* \"#utility.yul\":2019:2048   */\n  tag_31\n  jump\t// in\ntag_89:\n    /* \"#utility.yul\":2011:2048   */\n  swap1\n  pop\n    /* \"#utility.yul\":2103:2107   */\n  0x20\n    /* \"#utility.yul\":2097:2101   */\n  dup2\n    /* \"#utility.yul\":2093:2108   */\n  add\n    /* \"#utility.yul\":2085:2108   */\n  swap1\n  pop\n    /* \"#utility.yul\":1807:2115   */\n  swap2\n  swap1\n  pop\n  jump\t// out\n    /* \"#utility.yul\":2121:2260   */\ntag_36:\n    /* \"#utility.yul\":2210:2216   */\n  dup3\n    /* \"#utility.yul\":2205:2208   */\n  dup2\n    /* \"#utility.yul\":2200:2203   */\n  dup4\n    /* \"#utility.yul\":2194:2217   */\n  mcopy\n    /* \"#utility.yul\":2251:2252   */\n  0x00\n    /* \"#utility.yul\":2242:2248   */\n  dup4\n    /* \"#utility.yul\":2237:2240   */\n  dup4\n    /* \"#utility.yul\":2233:2249   */\n  add\n    /* \"#utility.yul\":2226:2253   */\n  mstore\n    /* \"#utility.yul\":2121:2260   */\n  pop\n  pop\n  pop\n  jump\t// out\n    /* \"#utility.yul\":2266:2700   */\ntag_37:\n    /* \"#utility.yul\":2355:2360   */\n  0x00\n    /* \"#utility.yul\":2380:2446   */\n  tag_92\n    /* \"#utility.yul\":2396:2445   */\n  tag_93\n    /* \"#utility.yul\":2438:2444   */\n  dup5\n    /* \"#utility.yul\":2396:2445   */\n  tag_35\n  jump\t// in\ntag_93:\n    /* \"#utility.yul\":2380:2446   */\n  tag_34\n  jump\t// in\ntag_92:\n    /* \"#utility.yul\":2371:2446   */\n  swap1\n  pop\n    /* \"#utility.yul\":2469:2475   */\n  dup3\n    /* \"#utility.yul\":2462:2467   */\n  dup2\n    /* \"#utility.yul\":2455:2476   */\n  mstore\n    /* \"#utility.yul\":2507:2511   */\n  0x20\n    /* \"#utility.yul\":2500:2505   */\n  dup2\n    /* \"#utility.yul\":2496:2512   */\n  add\n    /* \"#utility.yul\":2545:2548   */\n  dup5\n    /* \"#utility.yul\":2536:2542   */\n  dup5\n    /* \"#utility.yul\":2531:2534   */\n  dup5\n    /* \"#utility.yul\":2527:2543   */\n  add\n    /* \"#utility.yul\":2524:2549   */\n  gt\n    /* \"#utility.yul\":2521:2633   */\n  iszero\n  tag_94\n  jumpi\n    /* \"#utility.yul\":2552:2631   */\n  tag_95\n  tag_30\n  jump\t// in\ntag_95:\n    /* \"#utility.yul\":2521:2633   */\ntag_94:\n    /* \"#utility.yul\":2642:2694   */\n  tag_96\n    /* \"#utility.yul\":2687:2693   */\n  dup5\n    /* \"#utility.yul\":2682:2685   */\n  dup3\n    /* \"#utility.yul\":2677:2680   */\n  dup6\n    /* \"#utility.yul\":2642:2694   */\n  tag_36\n  jump\t// in\ntag_96:\n    /* \"#utility.yul\":2361:2700   */\n  pop\n    /* \"#utility.yul\":2266:2700   */\n  swap4\n  swap3\n  pop\n  pop\n  pop\n  jump\t// out\n    /* \"#utility.yul\":2720:3075   */\ntag_38:\n    /* \"#utility.yul\":2787:2792   */\n  0x00\n    /* \"#utility.yul\":2836:2839   */\n  dup3\n    /* \"#utility.yul\":2829:2833   */\n  0x1f\n    /* \"#utility.yul\":2821:2827   */\n  dup4\n    /* \"#utility.yul\":2817:2834   */\n  add\n    /* \"#utility.yul\":2813:2840   */\n  slt\n    /* \"#utility.yul\":2803:2925   */\n  tag_98\n  jumpi\n    /* \"#utility.yul\":2844:2923   */\n  tag_99\n  tag_29\n  jump\t// in\ntag_99:\n    /* \"#utility.yul\":2803:2925   */\ntag_98:\n    /* \"#utility.yul\":2954:2960   */\n  dup2\n    /* \"#utility.yul\":2948:2961   */\n  mload\n    /* \"#utility.yul\":2979:3069   */\n  tag_100\n    /* \"#utility.yul\":3065:3068   */\n  dup5\n    /* \"#utility.yul\":3057:3063   */\n  dup3\n    /* \"#utility.yul\":3050:3054   */\n  0x20\n    /* \"#utility.yul\":3042:3048   */\n  dup7\n    /* \"#utility.yul\":3038:3055   */\n  add\n    /* \"#utility.yul\":2979:3069   */\n  tag_37\n  jump\t// in\ntag_100:\n    /* \"#utility.yul\":2970:3069   */\n  swap2\n  pop\n    /* \"#utility.yul\":2793:3075   */\n  pop\n    /* \"#utility.yul\":2720:3075   */\n  swap3\n  swap2\n  pop\n  pop\n  jump\t// out\n    /* \"#utility.yul\":3081:4074   */\ntag_3:\n    /* \"#utility.yul\":3188:3194   */\n  0x00\n    /* \"#utility.yul\":3196:3202   */\n  0x00\n    /* \"#utility.yul\":3204:3210   */\n  0x00\n    /* \"#utility.yul\":3212:3218   */\n  0x00\n    /* \"#utility.yul\":3261:3264   */\n  0x80\n    /* \"#utility.yul\":3249:3258   */\n  dup6\n    /* \"#utility.yul\":3240:3247   */\n  dup8\n    /* \"#utility.yul\":3236:3259   */\n  sub\n    /* \"#utility.yul\":3232:3265   */\n  slt\n    /* \"#utility.yul\":3229:3349   */\n  iszero\n  tag_102\n  jumpi\n    /* \"#utility.yul\":3268:3347   */\n  tag_103\n  tag_23\n  jump\t// in\ntag_103:\n    /* \"#utility.yul\":3229:3349   */\ntag_102:\n    /* \"#utility.yul\":3388:3389   */\n  0x00\n    /* \"#utility.yul\":3413:3477   */\n  tag_104\n    /* \"#utility.yul\":3469:3476   */\n  dup8\n    /* \"#utility.yul\":3460:3466   */\n  dup3\n    /* \"#utility.yul\":3449:3458   */\n  dup9\n    /* \"#utility.yul\":3445:3467   */\n  add\n    /* \"#utility.yul\":3413:3477   */\n  tag_28\n  jump\t// in\ntag_104:\n    /* \"#utility.yul\":3403:3477   */\n  swap5\n  pop\n    /* \"#utility.yul\":3359:3487   */\n  pop\n    /* \"#utility.yul\":3526:3528   */\n  0x20\n    /* \"#utility.yul\":3552:3616   */\n  tag_105\n    /* \"#utility.yul\":3608:3615   */\n  dup8\n    /* \"#utility.yul\":3599:3605   */\n  dup3\n    /* \"#utility.yul\":3588:3597   */\n  dup9\n    /* \"#utility.yul\":3584:3606   */\n  add\n    /* \"#utility.yul\":3552:3616   */\n  tag_28\n  jump\t// in\ntag_105:\n    /* \"#utility.yul\":3542:3616   */\n  swap4\n  pop\n    /* \"#utility.yul\":3497:3626   */\n  pop\n    /* \"#utility.yul\":3665:3667   */\n  0x40\n    /* \"#utility.yul\":3691:3755   */\n  tag_106\n    /* \"#utility.yul\":3747:3754   */\n  dup8\n    /* \"#utility.yul\":3738:3744   */\n  dup3\n    /* \"#utility.yul\":3727:3736   */\n  dup9\n    /* \"#utility.yul\":3723:3745   */\n  add\n    /* \"#utility.yul\":3691:3755   */\n  tag_28\n  jump\t// in\ntag_106:\n    /* \"#utility.yul\":3681:3755   */\n  swap3\n  pop\n    /* \"#utility.yul\":3636:3765   */\n  pop\n    /* \"#utility.yul\":3825:3827   */\n  0x60\n    /* \"#utility.yul\":3814:3823   */\n  dup6\n    /* \"#utility.yul\":3810:3828   */\n  add\n    /* \"#utility.yul\":3804:3829   */\n  mload\n    /* \"#utility.yul\":3856:3874   */\n  0xffffffffffffffff\n    /* \"#utility.yul\":3848:3854   */\n  dup2\n    /* \"#utility.yul\":3845:3875   */\n  gt\n    /* \"#utility.yul\":3842:3959   */\n  iszero\n  tag_107\n  jumpi\n    /* \"#utility.yul\":3878:3957   */\n  tag_108\n  tag_24\n  jump\t// in\ntag_108:\n    /* \"#utility.yul\":3842:3959   */\ntag_107:\n    /* \"#utility.yul\":3983:4057   */\n  tag_109\n    /* \"#utility.yul\":4049:4056   */\n  dup8\n    /* \"#utility.yul\":4040:4046   */\n  dup3\n    /* \"#utility.yul\":4029:4038   */\n  dup9\n    /* \"#utility.yul\":4025:4047   */\n  add\n    /* \"#utility.yul\":3983:4057   */\n  tag_38\n  jump\t// in\ntag_109:\n    /* \"#utility.yul\":3973:4057   */\n  swap2\n  pop\n    /* \"#utility.yul\":3775:4067   */\n  pop\n    /* \"#utility.yul\":3081:4074   */\n  swap3\n  swap6\n  swap2\n  swap5\n  pop\n  swap3\n  pop\n  jump\t// out\n    /* \"#utility.yul\":4080:4249   */\ntag_39:\n    /* \"#utility.yul\":4164:4175   */\n  0x00\n    /* \"#utility.yul\":4198:4204   */\n  dup3\n    /* \"#utility.yul\":4193:4196   */\n  dup3\n    /* \"#utility.yul\":4186:4205   */\n  mstore\n    /* \"#utility.yul\":4238:4242   */\n  0x20\n    /* \"#utility.yul\":4233:4236   */\n  dup3\n    /* \"#utility.yul\":4229:4243   */\n  add\n    /* \"#utility.yul\":4214:4243   */\n  swap1\n  pop\n    /* \"#utility.yul\":4080:4249   */\n  swap3\n  swap2\n  pop\n  pop\n  jump\t// out\n    /* \"#utility.yul\":4255:4423   */\ntag_40:\n    /* \"#utility.yul\":4395:4415   */\n  0x446972656363696f6e20696e76616c6964610000000000000000000000000000\n    /* \"#utility.yul\":4391:4392   */\n  0x00\n    /* \"#utility.yul\":4383:4389   */\n  dup3\n    /* \"#utility.yul\":4379:4393   */\n  add\n    /* \"#utility.yul\":4372:4416   */\n  mstore\n    /* \"#utility.yul\":4255:4423   */\n  pop\n  jump\t// out\n    /* \"#utility.yul\":4429:4795   */\ntag_41:\n    /* \"#utility.yul\":4571:4574   */\n  0x00\n    /* \"#utility.yul\":4592:4659   */\n  tag_113\n    /* \"#utility.yul\":4656:4658   */\n  0x12\n    /* \"#utility.yul\":4651:4654   */\n  dup4\n    /* \"#utility.yul\":4592:4659   */\n  tag_39\n  jump\t// in\ntag_113:\n    /* \"#utility.yul\":4585:4659   */\n  swap2\n  pop\n    /* \"#utility.yul\":4668:4761   */\n  tag_114\n    /* \"#utility.yul\":4757:4760   */\n  dup3\n    /* \"#utility.yul\":4668:4761   */\n  tag_40\n  jump\t// in\ntag_114:\n    /* \"#utility.yul\":4786:4788   */\n  0x20\n    /* \"#utility.yul\":4781:4784   */\n  dup3\n    /* \"#utility.yul\":4777:4789   */\n  add\n    /* \"#utility.yul\":4770:4789   */\n  swap1\n  pop\n    /* \"#utility.yul\":4429:4795   */\n  swap2\n  swap1\n  pop\n  jump\t// out\n    /* \"#utility.yul\":4801:5220   */\ntag_10:\n    /* \"#utility.yul\":4967:4971   */\n  0x00\n    /* \"#utility.yul\":5005:5007   */\n  0x20\n    /* \"#utility.yul\":4994:5003   */\n  dup3\n    /* \"#utility.yul\":4990:5008   */\n  add\n    /* \"#utility.yul\":4982:5008   */\n  swap1\n  pop\n    /* \"#utility.yul\":5054:5063   */\n  dup2\n    /* \"#utility.yul\":5048:5052   */\n  dup2\n    /* \"#utility.yul\":5044:5064   */\n  sub\n    /* \"#utility.yul\":5040:5041   */\n  0x00\n    /* \"#utility.yul\":5029:5038   */\n  dup4\n    /* \"#utility.yul\":5025:5042   */\n  add\n    /* \"#utility.yul\":5018:5065   */\n  mstore\n    /* \"#utility.yul\":5082:5213   */\n  tag_116\n    /* \"#utility.yul\":5208:5212   */\n  dup2\n    /* \"#utility.yul\":5082:5213   */\n  tag_41\n  jump\t// in\ntag_116:\n    /* \"#utility.yul\":5074:5213   */\n  swap1\n  pop\n    /* \"#utility.yul\":4801:5220   */\n  swap2\n  swap1\n  pop\n  jump\t// out\n    /* \"#utility.yul\":5226:5404   */\ntag_42:\n    /* \"#utility.yul\":5366:5396   */\n  0x446972656363696f6e657320646562656e2073657220756e6963617300000000\n    /* \"#utility.yul\":5362:5363   */\n  0x00\n    /* \"#utility.yul\":5354:5360   */\n  dup3\n    /* \"#utility.yul\":5350:5364   */\n  add\n    /* \"#utility.yul\":5343:5397   */\n  mstore\n    /* \"#utility.yul\":5226:5404   */\n  pop\n  jump\t// out\n    /* \"#utility.yul\":5410:5776   */\ntag_43:\n    /* \"#utility.yul\":5552:5555   */\n  0x00\n    /* \"#utility.yul\":5573:5640   */\n  tag_119\n    /* \"#utility.yul\":5637:5639   */\n  0x1c\n    /* \"#utility.yul\":5632:5635   */\n  dup4\n    /* \"#utility.yul\":5573:5640   */\n  tag_39\n  jump\t// in\ntag_119:\n    /* \"#utility.yul\":5566:5640   */\n  swap2\n  pop\n    /* \"#utility.yul\":5649:5742   */\n  tag_120\n    /* \"#utility.yul\":5738:5741   */\n  dup3\n    /* \"#utility.yul\":5649:5742   */\n  tag_42\n  jump\t// in\ntag_120:\n    /* \"#utility.yul\":5767:5769   */\n  0x20\n    /* \"#utility.yul\":5762:5765   */\n  dup3\n    /* \"#utility.yul\":5758:5770   */\n  add\n    /* \"#utility.yul\":5751:5770   */\n  swap1\n  pop\n    /* \"#utility.yul\":5410:5776   */\n  swap2\n  swap1\n  pop\n  jump\t// out\n    /* \"#utility.yul\":5782:6201   */\ntag_15:\n    /* \"#utility.yul\":5948:5952   */\n  0x00\n    /* \"#utility.yul\":5986:5988   */\n  0x20\n    /* \"#utility.yul\":5975:5984   */\n  dup3\n    /* \"#utility.yul\":5971:5989   */\n  add\n    /* \"#utility.yul\":5963:5989   */\n  swap1\n  pop\n    /* \"#utility.yul\":6035:6044   */\n  dup2\n    /* \"#utility.yul\":6029:6033   */\n  dup2\n    /* \"#utility.yul\":6025:6045   */\n  sub\n    /* \"#utility.yul\":6021:6022   */\n  0x00\n    /* \"#utility.yul\":6010:6019   */\n  dup4\n    /* \"#utility.yul\":6006:6023   */\n  add\n    /* \"#utility.yul\":5999:6046   */\n  mstore\n    /* \"#utility.yul\":6063:6194   */\n  tag_122\n    /* \"#utility.yul\":6189:6193   */\n  dup2\n    /* \"#utility.yul\":6063:6194   */\n  tag_43\n  jump\t// in\ntag_122:\n    /* \"#utility.yul\":6055:6194   */\n  swap1\n  pop\n    /* \"#utility.yul\":5782:6201   */\n  swap2\n  swap1\n  pop\n  jump\t// out\n    /* \"#utility.yul\":6207:6306   */\ntag_44:\n    /* \"#utility.yul\":6259:6265   */\n  0x00\n    /* \"#utility.yul\":6293:6298   */\n  dup2\n    /* \"#utility.yul\":6287:6299   */\n  mload\n    /* \"#utility.yul\":6277:6299   */\n  swap1\n  pop\n    /* \"#utility.yul\":6207:6306   */\n  swap2\n  swap1\n  pop\n  jump\t// out\n    /* \"#utility.yul\":6312:6492   */\ntag_45:\n    /* \"#utility.yul\":6360:6437   */\n  0x4e487b7100000000000000000000000000000000000000000000000000000000\n    /* \"#utility.yul\":6357:6358   */\n  0x00\n    /* \"#utility.yul\":6350:6438   */\n  mstore\n    /* \"#utility.yul\":6457:6461   */\n  0x22\n    /* \"#utility.yul\":6454:6455   */\n  0x04\n    /* \"#utility.yul\":6447:6462   */\n  mstore\n    /* \"#utility.yul\":6481:6485   */\n  0x24\n    /* \"#utility.yul\":6478:6479   */\n  0x00\n    /* \"#utility.yul\":6471:6486   */\n  revert\n    /* \"#utility.yul\":6498:6818   */\ntag_46:\n    /* \"#utility.yul\":6542:6548   */\n  0x00\n    /* \"#utility.yul\":6579:6580   */\n  0x02\n    /* \"#utility.yul\":6573:6577   */\n  dup3\n    /* \"#utility.yul\":6569:6581   */\n  div\n    /* \"#utility.yul\":6559:6581   */\n  swap1\n  pop\n    /* \"#utility.yul\":6626:6627   */\n  0x01\n    /* \"#utility.yul\":6620:6624   */\n  dup3\n    /* \"#utility.yul\":6616:6628   */\n  and\n    /* \"#utility.yul\":6647:6665   */\n  dup1\n    /* \"#utility.yul\":6637:6718   */\n  tag_126\n  jumpi\n    /* \"#utility.yul\":6703:6707   */\n  0x7f\n    /* \"#utility.yul\":6695:6701   */\n  dup3\n    /* \"#utility.yul\":6691:6708   */\n  and\n    /* \"#utility.yul\":6681:6708   */\n  swap2\n  pop\n    /* \"#utility.yul\":6637:6718   */\ntag_126:\n    /* \"#utility.yul\":6765:6767   */\n  0x20\n    /* \"#utility.yul\":6757:6763   */\n  dup3\n    /* \"#utility.yul\":6754:6768   */\n  lt\n    /* \"#utility.yul\":6734:6752   */\n  dup2\n    /* \"#utility.yul\":6731:6769   */\n  sub\n    /* \"#utility.yul\":6728:6812   */\n  tag_127\n  jumpi\n    /* \"#utility.yul\":6784:6802   */\n  tag_128\n  tag_45\n  jump\t// in\ntag_128:\n    /* \"#utility.yul\":6728:6812   */\ntag_127:\n    /* \"#utility.yul\":6549:6818   */\n  pop\n    /* \"#utility.yul\":6498:6818   */\n  swap2\n  swap1\n  pop\n  jump\t// out\n    /* \"#utility.yul\":6824:6965   */\ntag_47:\n    /* \"#utility.yul\":6873:6877   */\n  0x00\n    /* \"#utility.yul\":6896:6899   */\n  dup2\n    /* \"#utility.yul\":6888:6899   */\n  swap1\n  pop\n    /* \"#utility.yul\":6919:6922   */\n  dup2\n    /* \"#utility.yul\":6916:6917   */\n  0x00\n    /* \"#utility.yul\":6909:6923   */\n  mstore\n    /* \"#utility.yul\":6953:6957   */\n  0x20\n    /* \"#utility.yul\":6950:6951   */\n  0x00\n    /* \"#utility.yul\":6940:6958   */\n  keccak256\n    /* \"#utility.yul\":6932:6958   */\n  swap1\n  pop\n    /* \"#utility.yul\":6824:6965   */\n  swap2\n  swap1\n  pop\n  jump\t// out\n    /* \"#utility.yul\":6971:7064   */\ntag_48:\n    /* \"#utility.yul\":7008:7014   */\n  0x00\n    /* \"#utility.yul\":7055:7057   */\n  0x20\n    /* \"#utility.yul\":7050:7052   */\n  0x1f\n    /* \"#utility.yul\":7043:7048   */\n  dup4\n    /* \"#utility.yul\":7039:7053   */\n  add\n    /* \"#utility.yul\":7035:7058   */\n  div\n    /* \"#utility.yul\":7025:7058   */\n  swap1\n  pop\n    /* \"#utility.yul\":6971:7064   */\n  swap2\n  swap1\n  pop\n  jump\t// out\n    /* \"#utility.yul\":7070:7177   */\ntag_49:\n    /* \"#utility.yul\":7114:7122   */\n  0x00\n    /* \"#utility.yul\":7164:7169   */\n  dup3\n    /* \"#utility.yul\":7158:7162   */\n  dup3\n    /* \"#utility.yul\":7154:7170   */\n  shl\n    /* \"#utility.yul\":7133:7170   */\n  swap1\n  pop\n    /* \"#utility.yul\":7070:7177   */\n  swap3\n  swap2\n  pop\n  pop\n  jump\t// out\n    /* \"#utility.yul\":7183:7576   */\ntag_50:\n    /* \"#utility.yul\":7252:7258   */\n  0x00\n    /* \"#utility.yul\":7302:7303   */\n  0x08\n    /* \"#utility.yul\":7290:7300   */\n  dup4\n    /* \"#utility.yul\":7286:7304   */\n  mul\n    /* \"#utility.yul\":7325:7422   */\n  tag_133\n    /* \"#utility.yul\":7355:7421   */\n  0xffffffffffffffffffffffffffffffffffffffffffffffffffffffffffffffff\n    /* \"#utility.yul\":7344:7353   */\n  dup3\n    /* \"#utility.yul\":7325:7422   */\n  tag_49\n  jump\t// in\ntag_133:\n    /* \"#utility.yul\":7443:7482   */\n  tag_134\n    /* \"#utility.yul\":7473:7481   */\n  dup7\n    /* \"#utility.yul\":7462:7471   */\n  dup4\n    /* \"#utility.yul\":7443:7482   */\n  tag_49\n  jump\t// in\ntag_134:\n    /* \"#utility.yul\":7431:7482   */\n  swap6\n  pop\n    /* \"#utility.yul\":7515:7519   */\n  dup1\n    /* \"#utility.yul\":7511:7520   */\n  not\n    /* \"#utility.yul\":7504:7509   */\n  dup5\n    /* \"#utility.yul\":7500:7521   */\n  and\n    /* \"#utility.yul\":7491:7521   */\n  swap4\n  pop\n    /* \"#utility.yul\":7564:7568   */\n  dup1\n    /* \"#utility.yul\":7554:7562   */\n  dup7\n    /* \"#utility.yul\":7550:7569   */\n  and\n    /* \"#utility.yul\":7543:7548   */\n  dup5\n    /* \"#utility.yul\":7540:7570   */\n  or\n    /* \"#utility.yul\":7530:7570   */\n  swap3\n  pop\n    /* \"#utility.yul\":7259:7576   */\n  pop\n  pop\n    /* \"#utility.yul\":7183:7576   */\n  swap4\n  swap3\n  pop\n  pop\n  pop\n  jump\t// out\n    /* \"#utility.yul\":7582:7659   */\ntag_51:\n    /* \"#utility.yul\":7619:7626   */\n  0x00\n    /* \"#utility.yul\":7648:7653   */\n  dup2\n    /* \"#utility.yul\":7637:7653   */\n  swap1\n  pop\n    /* \"#utility.yul\":7582:7659   */\n  swap2\n  swap1\n  pop\n  jump\t// out\n    /* \"#utility.yul\":7665:7725   */\ntag_52:\n    /* \"#utility.yul\":7693:7696   */\n  0x00\n    /* \"#utility.yul\":7714:7719   */\n  dup2\n    /* \"#utility.yul\":7707:7719   */\n  swap1\n  pop\n    /* \"#utility.yul\":7665:7725   */\n  swap2\n  swap1\n  pop\n  jump\t// out\n    /* \"#utility.yul\":7731:7873   */\ntag_53:\n    /* \"#utility.yul\":7781:7790   */\n  0x00\n    /* \"#utility.yul\":7814:7867   */\n  tag_138\n    /* \"#utility.yul\":7832:7866   */\n  tag_139\n    /* \"#utility.yul\":7841:7865   */\n  tag_140\n    /* \"#utility.yul\":7859:7864   */\n  dup5\n    /* \"#utility.yul\":7841:7865   */\n  tag_51\n  jump\t// in\ntag_140:\n    /* \"#utility.yul\":7832:7866   */\n  tag_52\n  jump\t// in\ntag_139:\n    /* \"#utility.yul\":7814:7867   */\n  tag_51\n  jump\t// in\ntag_138:\n    /* \"#utility.yul\":7801:7867   */\n  swap1\n  pop\n    /* \"#utility.yul\":7731:7873   */\n  swap2\n  swap1\n  pop\n  jump\t// out\n    /* \"#utility.yul\":7879:7954   */\ntag_54:\n    /* \"#utility.yul\":7922:7925   */\n  0x00\n    /* \"#utility.yul\":7943:7948   */\n  dup2\n    /* \"#utility.yul\":7936:7948   */\n  swap1\n  pop\n    /* \"#utility.yul\":7879:7954   */\n  swap2\n  swap1\n  pop\n  jump\t// out\n    /* \"#utility.yul\":7960:8229   */\ntag_55:\n    /* \"#utility.yul\":8070:8109   */\n  tag_143\n    /* \"#utility.yul\":8101:8108   */\n  dup4\n    /* \"#utility.yul\":8070:8109   */\n  tag_53\n  jump\t// in\ntag_143:\n    /* \"#utility.yul\":8131:8222   */\n  tag_144\n    /* \"#utility.yul\":8180:8221   */\n  tag_145\n    /* \"#utility.yul\":8204:8220   */\n  dup3\n    /* \"#utility.yul\":8180:8221   */\n  tag_54\n  jump\t// in\ntag_145:\n    /* \"#utility.yul\":8172:8178   */\n  dup5\n    /* \"#utility.yul\":8165:8169   */\n  dup5\n    /* \"#utility.yul\":8159:8170   */\n  sload\n    /* \"#utility.yul\":8131:8222   */\n  tag_50\n  jump\t// in\ntag_144:\n    /* \"#utility.yul\":8125:8129   */\n  dup3\n    /* \"#utility.yul\":8118:8223   */\n  sstore\n    /* \"#utility.yul\":8036:8229   */\n  pop\n    /* \"#utility.yul\":7960:8229   */\n  pop\n  pop\n  pop\n  jump\t// out\n    /* \"#utility.yul\":8235:8308   */\ntag_56:\n    /* \"#utility.yul\":8280:8283   */\n  0x00\n    /* \"#utility.yul\":8301:8302   */\n  0x00\n    /* \"#utility.yul\":8294:8302   */\n  swap1\n  pop\n    /* \"#utility.yul\":8235:8308   */\n  swap1\n  jump\t// out\n    /* \"#utility.yul\":8314:8503   */\ntag_57:\n    /* \"#utility.yul\":8391:8423   */\n  tag_148\n  tag_56\n  jump\t// in\ntag_148:\n    /* \"#utility.yul\":8432:8497   */\n  tag_149\n    /* \"#utility.yul\":8490:8496   */\n  dup2\n    /* \"#utility.yul\":8482:8488   */\n  dup5\n    /* \"#utility.yul\":8476:8480   */\n  dup5\n    /* \"#utility.yul\":8432:8497   */\n  tag_55\n  jump\t// in\ntag_149:\n    /* \"#utility.yul\":8367:8503   */\n  pop\n    /* \"#utility.yul\":8314:8503   */\n  pop\n  pop\n  jump\t// out\n    /* \"#utility.yul\":8509:8695   */\ntag_58:\n    /* \"#utility.yul\":8569:8689   */\ntag_151:\n    /* \"#utility.yul\":8586:8589   */\n  dup2\n    /* \"#utility.yul\":8579:8584   */\n  dup2\n    /* \"#utility.yul\":8576:8590   */\n  lt\n    /* \"#utility.yul\":8569:8689   */\n  iszero\n  tag_153\n  jumpi\n    /* \"#utility.yul\":8640:8679   */\n  tag_154\n    /* \"#utility.yul\":8677:8678   */\n  0x00\n    /* \"#utility.yul\":8670:8675   */\n  dup3\n    /* \"#utility.yul\":8640:8679   */\n  tag_57\n  jump\t// in\ntag_154:\n    /* \"#utility.yul\":8613:8614   */\n  0x01\n    /* \"#utility.yul\":8606:8611   */\n  dup2\n    /* \"#utility.yul\":8602:8615   */\n  add\n    /* \"#utility.yul\":8593:8615   */\n  swap1\n  pop\n    /* \"#utility.yul\":8569:8689   */\n  jump(tag_151)\ntag_153:\n    /* \"#utility.yul\":8509:8695   */\n  pop\n  pop\n  jump\t// out\n    /* \"#utility.yul\":8701:9244   */\ntag_59:\n    /* \"#utility.yul\":8802:8804   */\n  0x1f\n    /* \"#utility.yul\":8797:8800   */\n  dup3\n    /* \"#utility.yul\":8794:8805   */\n  gt\n    /* \"#utility.yul\":8791:9237   */\n  iszero\n  tag_156\n  jumpi\n    /* \"#utility.yul\":8836:8874   */\n  tag_157\n    /* \"#utility.yul\":8868:8873   */\n  dup2\n    /* \"#utility.yul\":8836:8874   */\n  tag_47\n  jump\t// in\ntag_157:\n    /* \"#utility.yul\":8920:8949   */\n  tag_158\n    /* \"#utility.yul\":8938:8948   */\n  dup5\n    /* \"#utility.yul\":8920:8949   */\n  tag_48\n  jump\t// in\ntag_158:\n    /* \"#utility.yul\":8910:8918   */\n  dup2\n    /* \"#utility.yul\":8906:8950   */\n  add\n    /* \"#utility.yul\":9103:9105   */\n  0x20\n    /* \"#utility.yul\":9091:9101   */\n  dup6\n    /* \"#utility.yul\":9088:9106   */\n  lt\n    /* \"#utility.yul\":9085:9134   */\n  iszero\n  tag_159\n  jumpi\n    /* \"#utility.yul\":9124:9132   */\n  dup2\n    /* \"#utility.yul\":9109:9132   */\n  swap1\n  pop\n    /* \"#utility.yul\":9085:9134   */\ntag_159:\n    /* \"#utility.yul\":9147:9227   */\n  tag_160\n    /* \"#utility.yul\":9203:9225   */\n  tag_161\n    /* \"#utility.yul\":9221:9224   */\n  dup6\n    /* \"#utility.yul\":9203:9225   */\n  tag_48\n  jump\t// in\ntag_161:\n    /* \"#utility.yul\":9193:9201   */\n  dup4\n    /* \"#utility.yul\":9189:9226   */\n  add\n    /* \"#utility.yul\":9176:9187   */\n  dup3\n    /* \"#utility.yul\":9147:9227   */\n  tag_58\n  jump\t// in\ntag_160:\n    /* \"#utility.yul\":8806:9237   */\n  pop\n  pop\n    /* \"#utility.yul\":8791:9237   */\ntag_156:\n    /* \"#utility.yul\":8701:9244   */\n  pop\n  pop\n  pop\n  jump\t// out\n    /* \"#utility.yul\":9250:9367   */\ntag_60:\n    /* \"#utility.yul\":9304:9312   */\n  0x00\n    /* \"#utility.yul\":9354:9359   */\n  dup3\n    /* \"#utility.yul\":9348:9352   */\n  dup3\n    /* \"#utility.yul\":9344:9360   */\n  shr\n    /* \"#utility.yul\":9323:9360   */\n  swap1\n  pop\n    /* \"#utility.yul\":9250:9367   */\n  swap3\n  swap2\n  pop\n  pop\n  jump\t// out\n    /* \"#utility.yul\":9373:9542   */\ntag_61:\n    /* \"#utility.yul\":9417:9423   */\n  0x00\n    /* \"#utility.yul\":9450:9501   */\n  tag_164\n    /* \"#utility.yul\":9498:9499   */\n  0x00\n    /* \"#utility.yul\":9494:9500   */\n  not\n    /* \"#utility.yul\":9486:9491   */\n  dup5\n    /* \"#utility.yul\":9483:9484   */\n  0x08\n    /* \"#utility.yul\":9479:9492   */\n  mul\n    /* \"#utility.yul\":9450:9501   */\n  tag_60\n  jump\t// in\ntag_164:\n    /* \"#utility.yul\":9446:9502   */\n  not\n    /* \"#utility.yul\":9531:9535   */\n  dup1\n    /* \"#utility.yul\":9525:9529   */\n  dup4\n    /* \"#utility.yul\":9521:9536   */\n  and\n    /* \"#utility.yul\":9511:9536   */\n  swap2\n  pop\n    /* \"#utility.yul\":9424:9542   */\n  pop\n    /* \"#utility.yul\":9373:9542   */\n  swap3\n  swap2\n  pop\n  pop\n  jump\t// out\n    /* \"#utility.yul\":9547:9842   */\ntag_62:\n    /* \"#utility.yul\":9623:9627   */\n  0x00\n    /* \"#utility.yul\":9769:9798   */\n  tag_166\n    /* \"#utility.yul\":9794:9797   */\n  dup4\n    /* \"#utility.yul\":9788:9792   */\n  dup4\n    /* \"#utility.yul\":9769:9798   */\n  tag_61\n  jump\t// in\ntag_166:\n    /* \"#utility.yul\":9761:9798   */\n  swap2\n  pop\n    /* \"#utility.yul\":9831:9834   */\n  dup3\n    /* \"#utility.yul\":9828:9829   */\n  0x02\n    /* \"#utility.yul\":9824:9835   */\n  mul\n    /* \"#utility.yul\":9818:9822   */\n  dup3\n    /* \"#utility.yul\":9815:9836   */\n  or\n    /* \"#utility.yul\":9807:9836   */\n  swap1\n  pop\n    /* \"#utility.yul\":9547:9842   */\n  swap3\n  swap2\n  pop\n  pop\n  jump\t// out\n    /* \"#utility.yul\":9847:11242   */\ntag_17:\n    /* \"#utility.yul\":9964:10001   */\n  tag_168\n    /* \"#utility.yul\":9997:10000   */\n  dup3\n    /* \"#utility.yul\":9964:10001   */\n  tag_44\n  jump\t// in\ntag_168:\n    /* \"#utility.yul\":10066:10084   */\n  0xffffffffffffffff\n    /* \"#utility.yul\":10058:10064   */\n  dup2\n    /* \"#utility.yul\":10055:10085   */\n  gt\n    /* \"#utility.yul\":10052:10108   */\n  iszero\n  tag_169\n  jumpi\n    /* \"#utility.yul\":10088:10106   */\n  tag_170\n  tag_32\n  jump\t// in\ntag_170:\n    /* \"#utility.yul\":10052:10108   */\ntag_169:\n    /* \"#utility.yul\":10132:10170   */\n  tag_171\n    /* \"#utility.yul\":10164:10168   */\n  dup3\n    /* \"#utility.yul\":10158:10169   */\n  sload\n    /* \"#utility.yul\":10132:10170   */\n  tag_46\n  jump\t// in\ntag_171:\n    /* \"#utility.yul\":10217:10284   */\n  tag_172\n    /* \"#utility.yul\":10277:10283   */\n  dup3\n    /* \"#utility.yul\":10269:10275   */\n  dup3\n    /* \"#utility.yul\":10263:10267   */\n  dup6\n    /* \"#utility.yul\":10217:10284   */\n  tag_59\n  jump\t// in\ntag_172:\n    /* \"#utility.yul\":10311:10312   */\n  0x00\n    /* \"#utility.yul\":10335:10339   */\n  0x20\n    /* \"#utility.yul\":10322:10339   */\n  swap1\n  pop\n    /* \"#utility.yul\":10367:10369   */\n  0x1f\n    /* \"#utility.yul\":10359:10365   */\n  dup4\n    /* \"#utility.yul\":10356:10370   */\n  gt\n    /* \"#utility.yul\":10384:10385   */\n  0x01\n    /* \"#utility.yul\":10379:10997   */\n  dup2\n  eq\n  tag_174\n  jumpi\n    /* \"#utility.yul\":11041:11042   */\n  0x00\n    /* \"#utility.yul\":11058:11064   */\n  dup5\n    /* \"#utility.yul\":11055:11132   */\n  iszero\n  tag_175\n  jumpi\n    /* \"#utility.yul\":11107:11116   */\n  dup3\n    /* \"#utility.yul\":11102:11105   */\n  dup8\n    /* \"#utility.yul\":11098:11117   */\n  add\n    /* \"#utility.yul\":11092:11118   */\n  mload\n    /* \"#utility.yul\":11083:11118   */\n  swap1\n  pop\n    /* \"#utility.yul\":11055:11132   */\ntag_175:\n    /* \"#utility.yul\":11158:11225   */\n  tag_176\n    /* \"#utility.yul\":11218:11224   */\n  dup6\n    /* \"#utility.yul\":11211:11216   */\n  dup3\n    /* \"#utility.yul\":11158:11225   */\n  tag_62\n  jump\t// in\ntag_176:\n    /* \"#utility.yul\":11152:11156   */\n  dup7\n    /* \"#utility.yul\":11145:11226   */\n  sstore\n    /* \"#utility.yul\":11014:11236   */\n  pop\n    /* \"#utility.yul\":10349:11236   */\n  jump(tag_173)\n    /* \"#utility.yul\":10379:10997   */\ntag_174:\n    /* \"#utility.yul\":10431:10435   */\n  0x1f\n    /* \"#utility.yul\":10427:10436   */\n  not\n    /* \"#utility.yul\":10419:10425   */\n  dup5\n    /* \"#utility.yul\":10415:10437   */\n  and\n    /* \"#utility.yul\":10465:10502   */\n  tag_177\n    /* \"#utility.yul\":10497:10501   */\n  dup7\n    /* \"#utility.yul\":10465:10502   */\n  tag_47\n  jump\t// in\ntag_177:\n    /* \"#utility.yul\":10524:10525   */\n  0x00\n    /* \"#utility.yul\":10538:10746   */\ntag_178:\n    /* \"#utility.yul\":10552:10559   */\n  dup3\n    /* \"#utility.yul\":10549:10550   */\n  dup2\n    /* \"#utility.yul\":10546:10560   */\n  lt\n    /* \"#utility.yul\":10538:10746   */\n  iszero\n  tag_180\n  jumpi\n    /* \"#utility.yul\":10631:10640   */\n  dup5\n    /* \"#utility.yul\":10626:10629   */\n  dup10\n    /* \"#utility.yul\":10622:10641   */\n  add\n    /* \"#utility.yul\":10616:10642   */\n  mload\n    /* \"#utility.yul\":10608:10614   */\n  dup3\n    /* \"#utility.yul\":10601:10643   */\n  sstore\n    /* \"#utility.yul\":10682:10683   */\n  0x01\n    /* \"#utility.yul\":10674:10680   */\n  dup3\n    /* \"#utility.yul\":10670:10684   */\n  add\n    /* \"#utility.yul\":10660:10684   */\n  swap2\n  pop\n    /* \"#utility.yul\":10729:10731   */\n  0x20\n    /* \"#utility.yul\":10718:10727   */\n  dup6\n    /* \"#utility.yul\":10714:10732   */\n  add\n    /* \"#utility.yul\":10701:10732   */\n  swap5\n  pop\n    /* \"#utility.yul\":10575:10579   */\n  0x20\n    /* \"#utility.yul\":10572:10573   */\n  dup2\n    /* \"#utility.yul\":10568:10580   */\n  add\n    /* \"#utility.yul\":10563:10580   */\n  swap1\n  pop\n    /* \"#utility.yul\":10538:10746   */\n  jump(tag_178)\ntag_180:\n    /* \"#utility.yul\":10774:10780   */\n  dup7\n    /* \"#utility.yul\":10765:10772   */\n  dup4\n    /* \"#utility.yul\":10762:10781   */\n  lt\n    /* \"#utility.yul\":10759:10938   */\n  iszero\n  tag_181\n  jumpi\n    /* \"#utility.yul\":10832:10841   */\n  dup5\n    /* \"#utility.yul\":10827:10830   */\n  dup10\n    /* \"#utility.yul\":10823:10842   */\n  add\n    /* \"#utility.yul\":10817:10843   */\n  mload\n    /* \"#utility.yul\":10875:10923   */\n  tag_182\n    /* \"#utility.yul\":10917:10921   */\n  0x1f\n    /* \"#utility.yul\":10909:10915   */\n  dup10\n    /* \"#utility.yul\":10905:10922   */\n  and\n    /* \"#utility.yul\":10894:10903   */\n  dup3\n    /* \"#utility.yul\":10875:10923   */\n  tag_61\n  jump\t// in\ntag_182:\n    /* \"#utility.yul\":10867:10873   */\n  dup4\n    /* \"#utility.yul\":10860:10924   */\n  sstore\n    /* \"#utility.yul\":10782:10938   */\n  pop\n    /* \"#utility.yul\":10759:10938   */\ntag_181:\n    /* \"#utility.yul\":10984:10985   */\n  0x01\n    /* \"#utility.yul\":10980:10981   */\n  0x02\n    /* \"#utility.yul\":10972:10978   */\n  dup9\n    /* \"#utility.yul\":10968:10982   */\n  mul\n    /* \"#utility.yul\":10964:10986   */\n  add\n    /* \"#utility.yul\":10958:10962   */\n  dup9\n    /* \"#utility.yul\":10951:10987   */\n  sstore\n    /* \"#utility.yul\":10386:10997   */\n  pop\n  pop\n  pop\n    /* \"#utility.yul\":10349:11236   */\ntag_173:\n  pop\n    /* \"#utility.yul\":9939:11242   */\n  pop\n  pop\n  pop\n    /* \"#utility.yul\":9847:11242   */\n  pop\n  pop\n  jump\t// out\n    /* \"#utility.yul\":11248:11428   */\ntag_20:\n    /* \"#utility.yul\":11296:11373   */\n  0x4e487b7100000000000000000000000000000000000000000000000000000000\n    /* \"#utility.yul\":11293:11294   */\n  0x00\n    /* \"#utility.yul\":11286:11374   */\n  mstore\n    /* \"#utility.yul\":11393:11397   */\n  0x21\n    /* \"#utility.yul\":11390:11391   */\n  0x04\n    /* \"#utility.yul\":11383:11398   */\n  mstore\n    /* \"#utility.yul\":11417:11421   */\n  0x24\n    /* \"#utility.yul\":11414:11415   */\n  0x00\n    /* \"#utility.yul\":11407:11422   */\n  revert\n    /* \"PaperPleace/PaperPleace.sol\":57:2820  contract DocumentoFirmado {... */\ntag_21:\n  dataSize(sub_0)\n  dup1\n  dataOffset(sub_0)\n  0x00\n  codecopy\n  0x00\n  return\nstop\n\nsub_0: assembly {\n        /* \"PaperPleace/PaperPleace.sol\":57:2820  contract DocumentoFirmado {... */\n      mstore(0x40, 0x80)\n      callvalue\n      dup1\n      iszero\n      tag_1\n      jumpi\n      revert(0x00, 0x00)\n    tag_1:\n      pop\n      jumpi(tag_2, lt(calldatasize, 0x04))\n      shr(0xe0, calldataload(0x00))\n      dup1\n      0x86d05acb\n      gt\n      tag_17\n      jumpi\n      dup1\n      0xb06eef00\n      gt\n      tag_18\n      jumpi\n      dup1\n      0xb06eef00\n      eq\n      tag_13\n      jumpi\n      dup1\n      0xbb103aab\n      eq\n      tag_14\n      jumpi\n      dup1\n      0xc623674f\n      eq\n      tag_15\n      jumpi\n      dup1\n      0xddc7296f\n      eq\n      tag_16\n      jumpi\n      jump(tag_2)\n    tag_18:\n      dup1\n      0x86d05acb\n      eq\n      tag_10\n      jumpi\n      dup1\n      0x9bbf16e7\n      eq\n      tag_11\n      jumpi\n      dup1\n      0xa521a786\n      eq\n      tag_12\n      jumpi\n      jump(tag_2)\n    tag_17:\n      dup1\n      0x249af867\n      gt\n      tag_19\n      jumpi\n      dup1\n      0x249af867\n      eq\n      tag_6\n      jumpi\n      dup1\n      0x3096f1a0\n      eq\n      tag_7\n      jumpi\n      dup1\n      0x688e3467\n      eq\n      tag_8\n      jumpi\n      dup1\n      0x722d22fc\n      eq\n      tag_9\n      jumpi\n      jump(tag_2)\n    tag_19:\n      dup1\n      0x07367c5d\n      eq\n      tag_3\n      jumpi\n      dup1\n      0x0f073f6a\n      eq\n      tag_4\n      jumpi\n      dup1\n      0x1813a13e\n      eq\n      tag_5\n      jumpi\n    tag_2:\n      revert(0x00, 0x00)\n        /* \"PaperPleace/PaperPleace.sol\":89:113  address public firmante1 */\n    tag_3:\n      tag_20\n      tag_21\n      jump\t// in\n    tag_20:\n      mload(0x40)\n      tag_22\n      swap2\n      swap1\n      tag_23\n      jump\t// in\n    tag_22:\n      mload(0x40)\n      dup1\n      swap2\n      sub\n      swap1\n      return\n        /* \"PaperPleace/PaperPleace.sol\":1881:2032  function marcarNoVerificado() public soloFirmantes enVerificacion {... */\n    tag_4:\n      tag_24\n      tag_25\n      jump\t// in\n    tag_24:\n      stop\n        /* \"PaperPleace/PaperPleace.sol\":2193:2339  function firmadoPorTodos() public view returns (bool) {... */\n    tag_5:\n      tag_26\n      tag_27\n      jump\t// in\n    tag_26:\n      mload(0x40)\n      tag_28\n      swap2\n      swap1\n      tag_29\n      jump\t// in\n    tag_28:\n      mload(0x40)\n      dup1\n      swap2\n      sub\n      swap1\n      return\n        /* \"PaperPleace/PaperPleace.sol\":2038:2187  function fueFirmadoPor(address _addr) public view returns (bool firmado, uint256 fecha) {... */\n    tag_6:\n      tag_30\n      0x04\n      dup1\n      calldatasize\n      sub\n      dup2\n      add\n      swap1\n      tag_31\n      swap2\n      swap1\n      tag_32\n      jump\t// in\n    tag_31:\n      tag_33\n      jump\t// in\n    tag_30:\n      mload(0x40)\n      tag_34\n      swap3\n      swap2\n      swap1\n      tag_35\n      jump\t// in\n    tag_34:\n      mload(0x40)\n      dup1\n      swap2\n      sub\n      swap1\n      return\n        /* \"PaperPleace/PaperPleace.sol\":2345:2478  function obtenerFirmantes() public view returns (address, address, address) {... */\n    tag_7:\n      tag_36\n      tag_37\n      jump\t// in\n    tag_36:\n      mload(0x40)\n      tag_38\n      swap4\n      swap3\n      swap2\n      swap1\n      tag_39\n      jump\t// in\n    tag_38:\n      mload(0x40)\n      dup1\n      swap2\n      sub\n      swap1\n      return\n        /* \"PaperPleace/PaperPleace.sol\":269:289  Estado public estado */\n    tag_8:\n      tag_40\n      tag_41\n      jump\t// in\n    tag_40:\n      mload(0x40)\n      tag_42\n      swap2\n      swap1\n      tag_43\n      jump\t// in\n    tag_42:\n      mload(0x40)\n      dup1\n      swap2\n      sub\n      swap1\n      return\n        /* \"PaperPleace/PaperPleace.sol\":2585:2818  function obtenerEstado() public view returns (string memory) {... */\n    tag_9:\n      tag_44\n      tag_45\n      jump\t// in\n    tag_44:\n      mload(0x40)\n      tag_46\n      swap2\n      swap1\n      tag_47\n      jump\t// in\n    tag_46:\n      mload(0x40)\n      dup1\n      swap2\n      sub\n      swap1\n      return\n        /* \"PaperPleace/PaperPleace.sol\":2484:2579  function obtenerHashIPFS() public view returns (string memory) {... */\n    tag_10:\n      tag_48\n      tag_49\n      jump\t// in\n    tag_48:\n      mload(0x40)\n      tag_50\n      swap2\n      swap1\n      tag_47\n      jump\t// in\n    tag_50:\n      mload(0x40)\n      dup1\n      swap2\n      sub\n      swap1\n      return\n        /* \"PaperPleace/PaperPleace.sol\":119:143  address public firmante2 */\n    tag_11:\n      tag_51\n      tag_52\n      jump\t// in\n    tag_51:\n      mload(0x40)\n      tag_53\n      swap2\n      swap1\n      tag_23\n      jump\t// in\n    tag_53:\n      mload(0x40)\n      dup1\n      swap2\n      sub\n      swap1\n      return\n        /* \"PaperPleace/PaperPleace.sol\":149:173  address public firmante3 */\n    tag_12:\n      tag_54\n      tag_55\n      jump\t// in\n    tag_54:\n      mload(0x40)\n      tag_56\n      swap2\n      swap1\n      tag_23\n      jump\t// in\n    tag_56:\n      mload(0x40)\n      dup1\n      swap2\n      sub\n      swap1\n      return\n        /* \"PaperPleace/PaperPleace.sol\":343:388  mapping(address => uint256) public fechaFirma */\n    tag_13:\n      tag_57\n      0x04\n      dup1\n      calldatasize\n      sub\n      dup2\n      add\n      swap1\n      tag_58\n      swap2\n      swap1\n      tag_32\n      jump\t// in\n    tag_58:\n      tag_59\n      jump\t// in\n    tag_57:\n      mload(0x40)\n      tag_60\n      swap2\n      swap1\n      tag_61\n      jump\t// in\n    tag_60:\n      mload(0x40)\n      dup1\n      swap2\n      sub\n      swap1\n      return\n        /* \"PaperPleace/PaperPleace.sol\":1314:1772  function firmarDocumento() public soloFirmantes enVerificacion {... */\n    tag_14:\n      tag_62\n      tag_63\n      jump\t// in\n    tag_62:\n      stop\n        /* \"PaperPleace/PaperPleace.sol\":179:201  string public ipfsHash */\n    tag_15:\n      tag_64\n      tag_65\n      jump\t// in\n    tag_64:\n      mload(0x40)\n      tag_66\n      swap2\n      swap1\n      tag_47\n      jump\t// in\n    tag_66:\n      mload(0x40)\n      dup1\n      swap2\n      sub\n      swap1\n      return\n        /* \"PaperPleace/PaperPleace.sol\":296:337  mapping(address => bool) public haFirmado */\n    tag_16:\n      tag_67\n      0x04\n      dup1\n      calldatasize\n      sub\n      dup2\n      add\n      swap1\n      tag_68\n      swap2\n      swap1\n      tag_32\n      jump\t// in\n    tag_68:\n      tag_69\n      jump\t// in\n    tag_67:\n      mload(0x40)\n      tag_70\n      swap2\n      swap1\n      tag_29\n      jump\t// in\n    tag_70:\n      mload(0x40)\n      dup1\n      swap2\n      sub\n      swap1\n      return\n        /* \"PaperPleace/PaperPleace.sol\":89:113  address public firmante1 */\n    tag_21:\n      0x00\n      0x00\n      swap1\n      sload\n      swap1\n      0x0100\n      exp\n      swap1\n      div\n      0xffffffffffffffffffffffffffffffffffffffff\n      and\n      dup2\n      jump\t// out\n        /* \"PaperPleace/PaperPleace.sol\":1881:2032  function marcarNoVerificado() public soloFirmantes enVerificacion {... */\n    tag_25:\n        /* \"PaperPleace/PaperPleace.sol\":1000:1009  firmante1 */\n      0x00\n      0x00\n      swap1\n      sload\n      swap1\n      0x0100\n      exp\n      swap1\n      div\n      0xffffffffffffffffffffffffffffffffffffffff\n      and\n        /* \"PaperPleace/PaperPleace.sol\":986:1009  msg.sender == firmante1 */\n      0xffffffffffffffffffffffffffffffffffffffff\n      and\n        /* \"PaperPleace/PaperPleace.sol\":986:996  msg.sender */\n      caller\n        /* \"PaperPleace/PaperPleace.sol\":986:1009  msg.sender == firmante1 */\n      0xffffffffffffffffffffffffffffffffffffffff\n      and\n      eq\n        /* \"PaperPleace/PaperPleace.sol\":986:1048  msg.sender == firmante1 ||... */\n      dup1\n      tag_72\n      jumpi\n      pop\n        /* \"PaperPleace/PaperPleace.sol\":1039:1048  firmante2 */\n      0x01\n      0x00\n      swap1\n      sload\n      swap1\n      0x0100\n      exp\n      swap1\n      div\n      0xffffffffffffffffffffffffffffffffffffffff\n      and\n        /* \"PaperPleace/PaperPleace.sol\":1025:1048  msg.sender == firmante2 */\n      0xffffffffffffffffffffffffffffffffffffffff\n      and\n        /* \"PaperPleace/PaperPleace.sol\":1025:1035  msg.sender */\n      caller\n        /* \"PaperPleace/PaperPleace.sol\":1025:1048  msg.sender == firmante2 */\n      0xffffffffffffffffffffffffffffffffffffffff\n      and\n      eq\n        /* \"PaperPleace/PaperPleace.sol\":986:1048  msg.sender == firmante1 ||... */\n    tag_72:\n        /* \"PaperPleace/PaperPleace.sol\":986:1087  msg.sender == firmante1 ||... */\n      dup1\n      tag_73\n      jumpi\n      pop\n        /* \"PaperPleace/PaperPleace.sol\":1078:1087  firmante3 */\n      0x02\n      0x00\n      swap1\n      sload\n      swap1\n      0x0100\n      exp\n      swap1\n      div\n      0xffffffffffffffffffffffffffffffffffffffff\n      and\n        /* \"PaperPleace/PaperPleace.sol\":1064:1087  msg.sender == firmante3 */\n      0xffffffffffffffffffffffffffffffffffffffff\n      and\n        /* \"PaperPleace/PaperPleace.sol\":1064:1074  msg.sender */\n      caller\n        /* \"PaperPleace/PaperPleace.sol\":1064:1087  msg.sender == firmante3 */\n      0xffffffffffffffffffffffffffffffffffffffff\n      and\n      eq\n        /* \"PaperPleace/PaperPleace.sol\":986:1087  msg.sender == firmante1 ||... */\n    tag_73:\n        /* \"PaperPleace/PaperPleace.sol\":965:1144  require(... */\n      tag_74\n      jumpi\n      mload(0x40)\n      0x08c379a000000000000000000000000000000000000000000000000000000000\n      dup2\n      mstore\n      0x04\n      add\n      tag_75\n      swap1\n      tag_76\n      jump\t// in\n    tag_75:\n      mload(0x40)\n      dup1\n      swap2\n      sub\n      swap1\n      revert\n    tag_74:\n        /* \"PaperPleace/PaperPleace.sol\":1222:1243  Estado.EnVerificacion */\n      0x00\n        /* \"PaperPleace/PaperPleace.sol\":1212:1243  estado == Estado.EnVerificacion */\n      0x02\n      dup2\n      gt\n      iszero\n      tag_78\n      jumpi\n      tag_79\n      tag_80\n      jump\t// in\n    tag_79:\n    tag_78:\n        /* \"PaperPleace/PaperPleace.sol\":1212:1218  estado */\n      0x04\n      0x00\n      swap1\n      sload\n      swap1\n      0x0100\n      exp\n      swap1\n      div\n      0xff\n      and\n        /* \"PaperPleace/PaperPleace.sol\":1212:1243  estado == Estado.EnVerificacion */\n      0x02\n      dup2\n      gt\n      iszero\n      tag_81\n      jumpi\n      tag_82\n      tag_80\n      jump\t// in\n    tag_82:\n    tag_81:\n      eq\n        /* \"PaperPleace/PaperPleace.sol\":1204:1290  require(estado == Estado.EnVerificacion, \"El documento ya fue verificado o rechazado\") */\n      tag_83\n      jumpi\n      mload(0x40)\n      0x08c379a000000000000000000000000000000000000000000000000000000000\n      dup2\n      mstore\n      0x04\n      add\n      tag_84\n      swap1\n      tag_85\n      jump\t// in\n    tag_84:\n      mload(0x40)\n      dup1\n      swap2\n      sub\n      swap1\n      revert\n    tag_83:\n        /* \"PaperPleace/PaperPleace.sol\":1966:1985  Estado.NoVerificado */\n      0x02\n        /* \"PaperPleace/PaperPleace.sol\":1957:1963  estado */\n      0x04\n      0x00\n        /* \"PaperPleace/PaperPleace.sol\":1957:1985  estado = Estado.NoVerificado */\n      0x0100\n      exp\n      dup2\n      sload\n      dup2\n      0xff\n      mul\n      not\n      and\n      swap1\n      dup4\n      0x02\n      dup2\n      gt\n      iszero\n      tag_87\n      jumpi\n      tag_88\n      tag_80\n      jump\t// in\n    tag_88:\n    tag_87:\n      mul\n      or\n      swap1\n      sstore\n      pop\n        /* \"PaperPleace/PaperPleace.sol\":2000:2025  EstadoActualizado(estado) */\n      0x957bdc19718376f31f6b60cd9381ab424a20c688da83d5cda109ebfd8b003ef9\n        /* \"PaperPleace/PaperPleace.sol\":2018:2024  estado */\n      0x04\n      0x00\n      swap1\n      sload\n      swap1\n      0x0100\n      exp\n      swap1\n      div\n      0xff\n      and\n        /* \"PaperPleace/PaperPleace.sol\":2000:2025  EstadoActualizado(estado) */\n      mload(0x40)\n      tag_89\n      swap2\n      swap1\n      tag_43\n      jump\t// in\n    tag_89:\n      mload(0x40)\n      dup1\n      swap2\n      sub\n      swap1\n      log1\n        /* \"PaperPleace/PaperPleace.sol\":1881:2032  function marcarNoVerificado() public soloFirmantes enVerificacion {... */\n      jump\t// out\n        /* \"PaperPleace/PaperPleace.sol\":2193:2339  function firmadoPorTodos() public view returns (bool) {... */\n    tag_27:\n        /* \"PaperPleace/PaperPleace.sol\":2241:2245  bool */\n      0x00\n        /* \"PaperPleace/PaperPleace.sol\":2264:2273  haFirmado */\n      0x05\n        /* \"PaperPleace/PaperPleace.sol\":2264:2284  haFirmado[firmante1] */\n      0x00\n        /* \"PaperPleace/PaperPleace.sol\":2274:2283  firmante1 */\n      0x00\n      0x00\n      swap1\n      sload\n      swap1\n      0x0100\n      exp\n      swap1\n      div\n      0xffffffffffffffffffffffffffffffffffffffff\n      and\n        /* \"PaperPleace/PaperPleace.sol\":2264:2284  haFirmado[firmante1] */\n      0xffffffffffffffffffffffffffffffffffffffff\n      and\n      0xffffffffffffffffffffffffffffffffffffffff\n      and\n      dup2\n      mstore\n      0x20\n      add\n      swap1\n      dup2\n      mstore\n      0x20\n      add\n      0x00\n      keccak256\n      0x00\n      swap1\n      sload\n      swap1\n      0x0100\n      exp\n      swap1\n      div\n      0xff\n      and\n        /* \"PaperPleace/PaperPleace.sol\":2264:2308  haFirmado[firmante1] && haFirmado[firmante2] */\n      dup1\n      iszero\n      tag_91\n      jumpi\n      pop\n        /* \"PaperPleace/PaperPleace.sol\":2288:2297  haFirmado */\n      0x05\n        /* \"PaperPleace/PaperPleace.sol\":2288:2308  haFirmado[firmante2] */\n      0x00\n        /* \"PaperPleace/PaperPleace.sol\":2298:2307  firmante2 */\n      0x01\n      0x00\n      swap1\n      sload\n      swap1\n      0x0100\n      exp\n      swap1\n      div\n      0xffffffffffffffffffffffffffffffffffffffff\n      and\n        /* \"PaperPleace/PaperPleace.sol\":2288:2308  haFirmado[firmante2] */\n      0xffffffffffffffffffffffffffffffffffffffff\n      and\n      0xffffffffffffffffffffffffffffffffffffffff\n      and\n      dup2\n      mstore\n      0x20\n      add\n      swap1\n      dup2\n      mstore\n      0x20\n      add\n      0x00\n      keccak256\n      0x00\n      swap1\n      sload\n      swap1\n      0x0100\n      exp\n      swap1\n      div\n      0xff\n      and\n        /* \"PaperPleace/PaperPleace.sol\":2264:2308  haFirmado[firmante1] && haFirmado[firmante2] */\n    tag_91:\n        /* \"PaperPleace/PaperPleace.sol\":2264:2332  haFirmado[firmante1] && haFirmado[firmante2] && haFirmado[firmante3] */\n      dup1\n      iszero\n      tag_92\n      jumpi\n      pop\n        /* \"PaperPleace/PaperPleace.sol\":2312:2321  haFirmado */\n      0x05\n        /* \"PaperPleace/PaperPleace.sol\":2312:2332  haFirmado[firmante3] */\n      0x00\n        /* \"PaperPleace/PaperPleace.sol\":2322:2331  firmante3 */\n      0x02\n      0x00\n      swap1\n      sload\n      swap1\n      0x0100\n      exp\n      swap1\n      div\n      0xffffffffffffffffffffffffffffffffffffffff\n      and\n        /* \"PaperPleace/PaperPleace.sol\":2312:2332  haFirmado[firmante3] */\n      0xffffffffffffffffffffffffffffffffffffffff\n      and\n      0xffffffffffffffffffffffffffffffffffffffff\n      and\n      dup2\n      mstore\n      0x20\n      add\n      swap1\n      dup2\n      mstore\n      0x20\n      add\n      0x00\n      keccak256\n      0x00\n      swap1\n      sload\n      swap1\n      0x0100\n      exp\n      swap1\n      div\n      0xff\n      and\n        /* \"PaperPleace/PaperPleace.sol\":2264:2332  haFirmado[firmante1] && haFirmado[firmante2] && haFirmado[firmante3] */\n    tag_92:\n        /* \"PaperPleace/PaperPleace.sol\":2257:2332  return haFirmado[firmante1] && haFirmado[firmante2] && haFirmado[firmante3] */\n      swap1\n      pop\n        /* \"PaperPleace/PaperPleace.sol\":2193:2339  function firmadoPorTodos() public view returns (bool) {... */\n      swap1\n      jump\t// out\n        /* \"PaperPleace/PaperPleace.sol\":2038:2187  function fueFirmadoPor(address _addr) public view returns (bool firmado, uint256 fecha) {... */\n    tag_33:\n        /* \"PaperPleace/PaperPleace.sol\":2097:2109  bool firmado */\n      0x00\n        /* \"PaperPleace/PaperPleace.sol\":2111:2124  uint256 fecha */\n      0x00\n        /* \"PaperPleace/PaperPleace.sol\":2144:2153  haFirmado */\n      0x05\n        /* \"PaperPleace/PaperPleace.sol\":2144:2160  haFirmado[_addr] */\n      0x00\n        /* \"PaperPleace/PaperPleace.sol\":2154:2159  _addr */\n      dup5\n        /* \"PaperPleace/PaperPleace.sol\":2144:2160  haFirmado[_addr] */\n      0xffffffffffffffffffffffffffffffffffffffff\n      and\n      0xffffffffffffffffffffffffffffffffffffffff\n      and\n      dup2\n      mstore\n      0x20\n      add\n      swap1\n      dup2\n      mstore\n      0x20\n      add\n      0x00\n      keccak256\n      0x00\n      swap1\n      sload\n      swap1\n      0x0100\n      exp\n      swap1\n      div\n      0xff\n      and\n        /* \"PaperPleace/PaperPleace.sol\":2162:2172  fechaFirma */\n      0x06\n        /* \"PaperPleace/PaperPleace.sol\":2162:2179  fechaFirma[_addr] */\n      0x00\n        /* \"PaperPleace/PaperPleace.sol\":2173:2178  _addr */\n      dup6\n        /* \"PaperPleace/PaperPleace.sol\":2162:2179  fechaFirma[_addr] */\n      0xffffffffffffffffffffffffffffffffffffffff\n      and\n      0xffffffffffffffffffffffffffffffffffffffff\n      and\n      dup2\n      mstore\n      0x20\n      add\n      swap1\n      dup2\n      mstore\n      0x20\n      add\n      0x00\n      keccak256\n      sload\n        /* \"PaperPleace/PaperPleace.sol\":2136:2180  return (haFirmado[_addr], fechaFirma[_addr]) */\n      swap2\n      pop\n      swap2\n      pop\n        /* \"PaperPleace/PaperPleace.sol\":2038:2187  function fueFirmadoPor(address _addr) public view returns (bool firmado, uint256 fecha) {... */\n      swap2\n      pop\n      swap2\n      jump\t// out\n        /* \"PaperPleace/PaperPleace.sol\":2345:2478  function obtenerFirmantes() public view returns (address, address, address) {... */\n    tag_37:\n        /* \"PaperPleace/PaperPleace.sol\":2394:2401  address */\n      0x00\n        /* \"PaperPleace/PaperPleace.sol\":2403:2410  address */\n      0x00\n        /* \"PaperPleace/PaperPleace.sol\":2412:2419  address */\n      0x00\n        /* \"PaperPleace/PaperPleace.sol\":2439:2448  firmante1 */\n      0x00\n      0x00\n      swap1\n      sload\n      swap1\n      0x0100\n      exp\n      swap1\n      div\n      0xffffffffffffffffffffffffffffffffffffffff\n      and\n        /* \"PaperPleace/PaperPleace.sol\":2450:2459  firmante2 */\n      0x01\n      0x00\n      swap1\n      sload\n      swap1\n      0x0100\n      exp\n      swap1\n      div\n      0xffffffffffffffffffffffffffffffffffffffff\n      and\n        /* \"PaperPleace/PaperPleace.sol\":2461:2470  firmante3 */\n      0x02\n      0x00\n      swap1\n      sload\n      swap1\n      0x0100\n      exp\n      swap1\n      div\n      0xffffffffffffffffffffffffffffffffffffffff\n      and\n        /* \"PaperPleace/PaperPleace.sol\":2431:2471  return (firmante1, firmante2, firmante3) */\n      swap3\n      pop\n      swap3\n      pop\n      swap3\n      pop\n        /* \"PaperPleace/PaperPleace.sol\":2345:2478  function obtenerFirmantes() public view returns (address, address, address) {... */\n      swap1\n      swap2\n      swap3\n      jump\t// out\n        /* \"PaperPleace/PaperPleace.sol\":269:289  Estado public estado */\n    tag_41:\n      0x04\n      0x00\n      swap1\n      sload\n      swap1\n      0x0100\n      exp\n      swap1\n      div\n      0xff\n      and\n      dup2\n      jump\t// out\n        /* \"PaperPleace/PaperPleace.sol\":2585:2818  function obtenerEstado() public view returns (string memory) {... */\n    tag_45:\n        /* \"PaperPleace/PaperPleace.sol\":2631:2644  string memory */\n      0x60\n        /* \"PaperPleace/PaperPleace.sol\":2670:2691  Estado.EnVerificacion */\n      0x00\n        /* \"PaperPleace/PaperPleace.sol\":2660:2691  estado == Estado.EnVerificacion */\n      0x02\n      dup2\n      gt\n      iszero\n      tag_96\n      jumpi\n      tag_97\n      tag_80\n      jump\t// in\n    tag_97:\n    tag_96:\n        /* \"PaperPleace/PaperPleace.sol\":2660:2666  estado */\n      0x04\n      0x00\n      swap1\n      sload\n      swap1\n      0x0100\n      exp\n      swap1\n      div\n      0xff\n      and\n        /* \"PaperPleace/PaperPleace.sol\":2660:2691  estado == Estado.EnVerificacion */\n      0x02\n      dup2\n      gt\n      iszero\n      tag_98\n      jumpi\n      tag_99\n      tag_80\n      jump\t// in\n    tag_99:\n    tag_98:\n      sub\n        /* \"PaperPleace/PaperPleace.sol\":2656:2717  if (estado == Estado.EnVerificacion) return \"En Verificacion\" */\n      tag_100\n      jumpi\n        /* \"PaperPleace/PaperPleace.sol\":2693:2717  return \"En Verificacion\" */\n      mload(0x40)\n      dup1\n      0x40\n      add\n      0x40\n      mstore\n      dup1\n      0x0f\n      dup2\n      mstore\n      0x20\n      add\n      0x456e20566572696669636163696f6e0000000000000000000000000000000000\n      dup2\n      mstore\n      pop\n      swap1\n      pop\n      jump(tag_95)\n        /* \"PaperPleace/PaperPleace.sol\":2656:2717  if (estado == Estado.EnVerificacion) return \"En Verificacion\" */\n    tag_100:\n        /* \"PaperPleace/PaperPleace.sol\":2741:2758  Estado.Verificado */\n      0x01\n        /* \"PaperPleace/PaperPleace.sol\":2731:2758  estado == Estado.Verificado */\n      0x02\n      dup2\n      gt\n      iszero\n      tag_101\n      jumpi\n      tag_102\n      tag_80\n      jump\t// in\n    tag_102:\n    tag_101:\n        /* \"PaperPleace/PaperPleace.sol\":2731:2737  estado */\n      0x04\n      0x00\n      swap1\n      sload\n      swap1\n      0x0100\n      exp\n      swap1\n      div\n      0xff\n      and\n        /* \"PaperPleace/PaperPleace.sol\":2731:2758  estado == Estado.Verificado */\n      0x02\n      dup2\n      gt\n      iszero\n      tag_103\n      jumpi\n      tag_104\n      tag_80\n      jump\t// in\n    tag_104:\n    tag_103:\n      sub\n        /* \"PaperPleace/PaperPleace.sol\":2727:2779  if (estado == Estado.Verificado) return \"Verificado\" */\n      tag_105\n      jumpi\n        /* \"PaperPleace/PaperPleace.sol\":2760:2779  return \"Verificado\" */\n      mload(0x40)\n      dup1\n      0x40\n      add\n      0x40\n      mstore\n      dup1\n      0x0a\n      dup2\n      mstore\n      0x20\n      add\n      0x5665726966696361646f00000000000000000000000000000000000000000000\n      dup2\n      mstore\n      pop\n      swap1\n      pop\n      jump(tag_95)\n        /* \"PaperPleace/PaperPleace.sol\":2727:2779  if (estado == Estado.Verificado) return \"Verificado\" */\n    tag_105:\n        /* \"PaperPleace/PaperPleace.sol\":2789:2811  return \"No Verificado\" */\n      mload(0x40)\n      dup1\n      0x40\n      add\n      0x40\n      mstore\n      dup1\n      0x0d\n      dup2\n      mstore\n      0x20\n      add\n      0x4e6f205665726966696361646f00000000000000000000000000000000000000\n      dup2\n      mstore\n      pop\n      swap1\n      pop\n        /* \"PaperPleace/PaperPleace.sol\":2585:2818  function obtenerEstado() public view returns (string memory) {... */\n    tag_95:\n      swap1\n      jump\t// out\n        /* \"PaperPleace/PaperPleace.sol\":2484:2579  function obtenerHashIPFS() public view returns (string memory) {... */\n    tag_49:\n        /* \"PaperPleace/PaperPleace.sol\":2532:2545  string memory */\n      0x60\n        /* \"PaperPleace/PaperPleace.sol\":2564:2572  ipfsHash */\n      0x03\n        /* \"PaperPleace/PaperPleace.sol\":2557:2572  return ipfsHash */\n      dup1\n      sload\n      tag_107\n      swap1\n      tag_108\n      jump\t// in\n    tag_107:\n      dup1\n      0x1f\n      add\n      0x20\n      dup1\n      swap2\n      div\n      mul\n      0x20\n      add\n      mload(0x40)\n      swap1\n      dup2\n      add\n      0x40\n      mstore\n      dup1\n      swap3\n      swap2\n      swap1\n      dup2\n      dup2\n      mstore\n      0x20\n      add\n      dup3\n      dup1\n      sload\n      tag_109\n      swap1\n      tag_108\n      jump\t// in\n    tag_109:\n      dup1\n      iszero\n      tag_110\n      jumpi\n      dup1\n      0x1f\n      lt\n      tag_111\n      jumpi\n      0x0100\n      dup1\n      dup4\n      sload\n      div\n      mul\n      dup4\n      mstore\n      swap2\n      0x20\n      add\n      swap2\n      jump(tag_110)\n    tag_111:\n      dup3\n      add\n      swap2\n      swap1\n      0x00\n      mstore\n      keccak256(0x00, 0x20)\n      swap1\n    tag_112:\n      dup2\n      sload\n      dup2\n      mstore\n      swap1\n      0x01\n      add\n      swap1\n      0x20\n      add\n      dup1\n      dup4\n      gt\n      tag_112\n      jumpi\n      dup3\n      swap1\n      sub\n      0x1f\n      and\n      dup3\n      add\n      swap2\n    tag_110:\n      pop\n      pop\n      pop\n      pop\n      pop\n      swap1\n      pop\n        /* \"PaperPleace/PaperPleace.sol\":2484:2579  function obtenerHashIPFS() public view returns (string memory) {... */\n      swap1\n      jump\t// out\n        /* \"PaperPleace/PaperPleace.sol\":119:143  address public firmante2 */\n    tag_52:\n      0x01\n      0x00\n      swap1\n      sload\n      swap1\n      0x0100\n      exp\n      swap1\n      div\n      0xffffffffffffffffffffffffffffffffffffffff\n      and\n      dup2\n      jump\t// out\n        /* \"PaperPleace/PaperPleace.sol\":149:173  address public firmante3 */\n    tag_55:\n      0x02\n      0x00\n      swap1\n      sload\n      swap1\n      0x0100\n      exp\n      swap1\n      div\n      0xffffffffffffffffffffffffffffffffffffffff\n      and\n      dup2\n      jump\t// out\n        /* \"PaperPleace/PaperPleace.sol\":343:388  mapping(address => uint256) public fechaFirma */\n    tag_59:\n      mstore(0x20, 0x06)\n      dup1\n      0x00\n      mstore\n      keccak256(0x00, 0x40)\n      0x00\n      swap2\n      pop\n      swap1\n      pop\n      sload\n      dup2\n      jump\t// out\n        /* \"PaperPleace/PaperPleace.sol\":1314:1772  function firmarDocumento() public soloFirmantes enVerificacion {... */\n    tag_63:\n        /* \"PaperPleace/PaperPleace.sol\":1000:1009  firmante1 */\n      0x00\n      0x00\n      swap1\n      sload\n      swap1\n      0x0100\n      exp\n      swap1\n      div\n      0xffffffffffffffffffffffffffffffffffffffff\n      and\n        /* \"PaperPleace/PaperPleace.sol\":986:1009  msg.sender == firmante1 */\n      0xffffffffffffffffffffffffffffffffffffffff\n      and\n        /* \"PaperPleace/PaperPleace.sol\":986:996  msg.sender */\n      caller\n        /* \"PaperPleace/PaperPleace.sol\":986:1009  msg.sender == firmante1 */\n      0xffffffffffffffffffffffffffffffffffffffff\n      and\n      eq\n        /* \"PaperPleace/PaperPleace.sol\":986:1048  msg.sender == firmante1 ||... */\n      dup1\n      tag_114\n      jumpi\n      pop\n        /* \"PaperPleace/PaperPleace.sol\":1039:1048  firmante2 */\n      0x01\n      0x00\n      swap1\n      sload\n      swap1\n      0x0100\n      exp\n      swap1\n      div\n      0xffffffffffffffffffffffffffffffffffffffff\n      and\n        /* \"PaperPleace/PaperPleace.sol\":1025:1048  msg.sender == firmante2 */\n      0xffffffffffffffffffffffffffffffffffffffff\n      and\n        /* \"PaperPleace/PaperPleace.sol\":1025:1035  msg.sender */\n      caller\n        /* \"PaperPleace/PaperPleace.sol\":1025:1048  msg.sender == firmante2 */\n      0xffffffffffffffffffffffffffffffffffffffff\n      and\n      eq\n        /* \"PaperPleace/PaperPleace.sol\":986:1048  msg.sender == firmante1 ||... */\n    tag_114:\n        /* \"PaperPleace/PaperPleace.sol\":986:1087  msg.sender == firmante1 ||... */\n      dup1\n      tag_115\n      jumpi\n      pop\n        /* \"PaperPleace/PaperPleace.sol\":1078:1087  firmante3 */\n      0x02\n      0x00\n      swap1\n      sload\n      swap1\n      0x0100\n      exp\n      swap1\n      div\n      0xffffffffffffffffffffffffffffffffffffffff\n      and\n        /* \"PaperPleace/PaperPleace.sol\":1064:1087  msg.sender == firmante3 */\n      0xffffffffffffffffffffffffffffffffffffffff\n      and\n        /* \"PaperPleace/PaperPleace.sol\":1064:1074  msg.sender */\n      caller\n        /* \"PaperPleace/PaperPleace.sol\":1064:1087  msg.sender == firmante3 */\n      0xffffffffffffffffffffffffffffffffffffffff\n      and\n      eq\n        /* \"PaperPleace/PaperPleace.sol\":986:1087  msg.sender == firmante1 ||... */\n    tag_115:\n        /* \"PaperPleace/PaperPleace.sol\":965:1144  require(... */\n      tag_116\n      jumpi\n      mload(0x40)\n      0x08c379a000000000000000000000000000000000000000000000000000000000\n      dup2\n      mstore\n      0x04\n      add\n      tag_117\n      swap1\n      tag_76\n      jump\t// in\n    tag_117:\n      mload(0x40)\n      dup1\n      swap2\n      sub\n      swap1\n      revert\n    tag_116:\n        /* \"PaperPleace/PaperPleace.sol\":1222:1243  Estado.EnVerificacion */\n      0x00\n        /* \"PaperPleace/PaperPleace.sol\":1212:1243  estado == Estado.EnVerificacion */\n      0x02\n      dup2\n      gt\n      iszero\n      tag_119\n      jumpi\n      tag_120\n      tag_80\n      jump\t// in\n    tag_120:\n    tag_119:\n        /* \"PaperPleace/PaperPleace.sol\":1212:1218  estado */\n      0x04\n      0x00\n      swap1\n      sload\n      swap1\n      0x0100\n      exp\n      swap1\n      div\n      0xff\n      and\n        /* \"PaperPleace/PaperPleace.sol\":1212:1243  estado == Estado.EnVerificacion */\n      0x02\n      dup2\n      gt\n      iszero\n      tag_121\n      jumpi\n      tag_122\n      tag_80\n      jump\t// in\n    tag_122:\n    tag_121:\n      eq\n        /* \"PaperPleace/PaperPleace.sol\":1204:1290  require(estado == Estado.EnVerificacion, \"El documento ya fue verificado o rechazado\") */\n      tag_123\n      jumpi\n      mload(0x40)\n      0x08c379a000000000000000000000000000000000000000000000000000000000\n      dup2\n      mstore\n      0x04\n      add\n      tag_124\n      swap1\n      tag_85\n      jump\t// in\n    tag_124:\n      mload(0x40)\n      dup1\n      swap2\n      sub\n      swap1\n      revert\n    tag_123:\n        /* \"PaperPleace/PaperPleace.sol\":1396:1405  haFirmado */\n      0x05\n        /* \"PaperPleace/PaperPleace.sol\":1396:1417  haFirmado[msg.sender] */\n      0x00\n        /* \"PaperPleace/PaperPleace.sol\":1406:1416  msg.sender */\n      caller\n        /* \"PaperPleace/PaperPleace.sol\":1396:1417  haFirmado[msg.sender] */\n      0xffffffffffffffffffffffffffffffffffffffff\n      and\n      0xffffffffffffffffffffffffffffffffffffffff\n      and\n      dup2\n      mstore\n      0x20\n      add\n      swap1\n      dup2\n      mstore\n      0x20\n      add\n      0x00\n      keccak256\n      0x00\n      swap1\n      sload\n      swap1\n      0x0100\n      exp\n      swap1\n      div\n      0xff\n      and\n        /* \"PaperPleace/PaperPleace.sol\":1395:1417  !haFirmado[msg.sender] */\n      iszero\n        /* \"PaperPleace/PaperPleace.sol\":1387:1446  require(!haFirmado[msg.sender], \"Ya firmaste el documento\") */\n      tag_126\n      jumpi\n      mload(0x40)\n      0x08c379a000000000000000000000000000000000000000000000000000000000\n      dup2\n      mstore\n      0x04\n      add\n      tag_127\n      swap1\n      tag_128\n      jump\t// in\n    tag_127:\n      mload(0x40)\n      dup1\n      swap2\n      sub\n      swap1\n      revert\n    tag_126:\n        /* \"PaperPleace/PaperPleace.sol\":1481:1485  true */\n      0x01\n        /* \"PaperPleace/PaperPleace.sol\":1457:1466  haFirmado */\n      0x05\n        /* \"PaperPleace/PaperPleace.sol\":1457:1478  haFirmado[msg.sender] */\n      0x00\n        /* \"PaperPleace/PaperPleace.sol\":1467:1477  msg.sender */\n      caller\n        /* \"PaperPleace/PaperPleace.sol\":1457:1478  haFirmado[msg.sender] */\n      0xffffffffffffffffffffffffffffffffffffffff\n      and\n      0xffffffffffffffffffffffffffffffffffffffff\n      and\n      dup2\n      mstore\n      0x20\n      add\n      swap1\n      dup2\n      mstore\n      0x20\n      add\n      0x00\n      keccak256\n      0x00\n        /* \"PaperPleace/PaperPleace.sol\":1457:1485  haFirmado[msg.sender] = true */\n      0x0100\n      exp\n      dup2\n      sload\n      dup2\n      0xff\n      mul\n      not\n      and\n      swap1\n      dup4\n      iszero\n      iszero\n      mul\n      or\n      swap1\n      sstore\n      pop\n        /* \"PaperPleace/PaperPleace.sol\":1520:1535  block.timestamp */\n      timestamp\n        /* \"PaperPleace/PaperPleace.sol\":1495:1505  fechaFirma */\n      0x06\n        /* \"PaperPleace/PaperPleace.sol\":1495:1517  fechaFirma[msg.sender] */\n      0x00\n        /* \"PaperPleace/PaperPleace.sol\":1506:1516  msg.sender */\n      caller\n        /* \"PaperPleace/PaperPleace.sol\":1495:1517  fechaFirma[msg.sender] */\n      0xffffffffffffffffffffffffffffffffffffffff\n      and\n      0xffffffffffffffffffffffffffffffffffffffff\n      and\n      dup2\n      mstore\n      0x20\n      add\n      swap1\n      dup2\n      mstore\n      0x20\n      add\n      0x00\n      keccak256\n        /* \"PaperPleace/PaperPleace.sol\":1495:1535  fechaFirma[msg.sender] = block.timestamp */\n      dup2\n      swap1\n      sstore\n      pop\n        /* \"PaperPleace/PaperPleace.sol\":1558:1568  msg.sender */\n      caller\n        /* \"PaperPleace/PaperPleace.sol\":1550:1586  Firmado(msg.sender, block.timestamp) */\n      0xffffffffffffffffffffffffffffffffffffffff\n      and\n      0x51581dbec304a12d989e1b7fd940a64a79f7246f4cd5594faba4244110556779\n        /* \"PaperPleace/PaperPleace.sol\":1570:1585  block.timestamp */\n      timestamp\n        /* \"PaperPleace/PaperPleace.sol\":1550:1586  Firmado(msg.sender, block.timestamp) */\n      mload(0x40)\n      tag_129\n      swap2\n      swap1\n      tag_61\n      jump\t// in\n    tag_129:\n      mload(0x40)\n      dup1\n      swap2\n      sub\n      swap1\n      log2\n        /* \"PaperPleace/PaperPleace.sol\":1601:1610  haFirmado */\n      0x05\n        /* \"PaperPleace/PaperPleace.sol\":1601:1621  haFirmado[firmante1] */\n      0x00\n        /* \"PaperPleace/PaperPleace.sol\":1611:1620  firmante1 */\n      0x00\n      0x00\n      swap1\n      sload\n      swap1\n      0x0100\n      exp\n      swap1\n      div\n      0xffffffffffffffffffffffffffffffffffffffff\n      and\n        /* \"PaperPleace/PaperPleace.sol\":1601:1621  haFirmado[firmante1] */\n      0xffffffffffffffffffffffffffffffffffffffff\n      and\n      0xffffffffffffffffffffffffffffffffffffffff\n      and\n      dup2\n      mstore\n      0x20\n      add\n      swap1\n      dup2\n      mstore\n      0x20\n      add\n      0x00\n      keccak256\n      0x00\n      swap1\n      sload\n      swap1\n      0x0100\n      exp\n      swap1\n      div\n      0xff\n      and\n        /* \"PaperPleace/PaperPleace.sol\":1601:1645  haFirmado[firmante1] && haFirmado[firmante2] */\n      dup1\n      iszero\n      tag_130\n      jumpi\n      pop\n        /* \"PaperPleace/PaperPleace.sol\":1625:1634  haFirmado */\n      0x05\n        /* \"PaperPleace/PaperPleace.sol\":1625:1645  haFirmado[firmante2] */\n      0x00\n        /* \"PaperPleace/PaperPleace.sol\":1635:1644  firmante2 */\n      0x01\n      0x00\n      swap1\n      sload\n      swap1\n      0x0100\n      exp\n      swap1\n      div\n      0xffffffffffffffffffffffffffffffffffffffff\n      and\n        /* \"PaperPleace/PaperPleace.sol\":1625:1645  haFirmado[firmante2] */\n      0xffffffffffffffffffffffffffffffffffffffff\n      and\n      0xffffffffffffffffffffffffffffffffffffffff\n      and\n      dup2\n      mstore\n      0x20\n      add\n      swap1\n      dup2\n      mstore\n      0x20\n      add\n      0x00\n      keccak256\n      0x00\n      swap1\n      sload\n      swap1\n      0x0100\n      exp\n      swap1\n      div\n      0xff\n      and\n        /* \"PaperPleace/PaperPleace.sol\":1601:1645  haFirmado[firmante1] && haFirmado[firmante2] */\n    tag_130:\n        /* \"PaperPleace/PaperPleace.sol\":1601:1669  haFirmado[firmante1] && haFirmado[firmante2] && haFirmado[firmante3] */\n      dup1\n      iszero\n      tag_131\n      jumpi\n      pop\n        /* \"PaperPleace/PaperPleace.sol\":1649:1658  haFirmado */\n      0x05\n        /* \"PaperPleace/PaperPleace.sol\":1649:1669  haFirmado[firmante3] */\n      0x00\n        /* \"PaperPleace/PaperPleace.sol\":1659:1668  firmante3 */\n      0x02\n      0x00\n      swap1\n      sload\n      swap1\n      0x0100\n      exp\n      swap1\n      div\n      0xffffffffffffffffffffffffffffffffffffffff\n      and\n        /* \"PaperPleace/PaperPleace.sol\":1649:1669  haFirmado[firmante3] */\n      0xffffffffffffffffffffffffffffffffffffffff\n      and\n      0xffffffffffffffffffffffffffffffffffffffff\n      and\n      dup2\n      mstore\n      0x20\n      add\n      swap1\n      dup2\n      mstore\n      0x20\n      add\n      0x00\n      keccak256\n      0x00\n      swap1\n      sload\n      swap1\n      0x0100\n      exp\n      swap1\n      div\n      0xff\n      and\n        /* \"PaperPleace/PaperPleace.sol\":1601:1669  haFirmado[firmante1] && haFirmado[firmante2] && haFirmado[firmante3] */\n    tag_131:\n        /* \"PaperPleace/PaperPleace.sol\":1597:1766  if (haFirmado[firmante1] && haFirmado[firmante2] && haFirmado[firmante3]) {... */\n      iszero\n      tag_132\n      jumpi\n        /* \"PaperPleace/PaperPleace.sol\":1694:1711  Estado.Verificado */\n      0x01\n        /* \"PaperPleace/PaperPleace.sol\":1685:1691  estado */\n      0x04\n      0x00\n        /* \"PaperPleace/PaperPleace.sol\":1685:1711  estado = Estado.Verificado */\n      0x0100\n      exp\n      dup2\n      sload\n      dup2\n      0xff\n      mul\n      not\n      and\n      swap1\n      dup4\n      0x02\n      dup2\n      gt\n      iszero\n      tag_133\n      jumpi\n      tag_134\n      tag_80\n      jump\t// in\n    tag_134:\n    tag_133:\n      mul\n      or\n      swap1\n      sstore\n      pop\n        /* \"PaperPleace/PaperPleace.sol\":1730:1755  EstadoActualizado(estado) */\n      0x957bdc19718376f31f6b60cd9381ab424a20c688da83d5cda109ebfd8b003ef9\n        /* \"PaperPleace/PaperPleace.sol\":1748:1754  estado */\n      0x04\n      0x00\n      swap1\n      sload\n      swap1\n      0x0100\n      exp\n      swap1\n      div\n      0xff\n      and\n        /* \"PaperPleace/PaperPleace.sol\":1730:1755  EstadoActualizado(estado) */\n      mload(0x40)\n      tag_135\n      swap2\n      swap1\n      tag_43\n      jump\t// in\n    tag_135:\n      mload(0x40)\n      dup1\n      swap2\n      sub\n      swap1\n      log1\n        /* \"PaperPleace/PaperPleace.sol\":1597:1766  if (haFirmado[firmante1] && haFirmado[firmante2] && haFirmado[firmante3]) {... */\n    tag_132:\n        /* \"PaperPleace/PaperPleace.sol\":1314:1772  function firmarDocumento() public soloFirmantes enVerificacion {... */\n      jump\t// out\n        /* \"PaperPleace/PaperPleace.sol\":179:201  string public ipfsHash */\n    tag_65:\n      0x03\n      dup1\n      sload\n      tag_136\n      swap1\n      tag_108\n      jump\t// in\n    tag_136:\n      dup1\n      0x1f\n      add\n      0x20\n      dup1\n      swap2\n      div\n      mul\n      0x20\n      add\n      mload(0x40)\n      swap1\n      dup2\n      add\n      0x40\n      mstore\n      dup1\n      swap3\n      swap2\n      swap1\n      dup2\n      dup2\n      mstore\n      0x20\n      add\n      dup3\n      dup1\n      sload\n      tag_137\n      swap1\n      tag_108\n      jump\t// in\n    tag_137:\n      dup1\n      iszero\n      tag_138\n      jumpi\n      dup1\n      0x1f\n      lt\n      tag_139\n      jumpi\n      0x0100\n      dup1\n      dup4\n      sload\n      div\n      mul\n      dup4\n      mstore\n      swap2\n      0x20\n      add\n      swap2\n      jump(tag_138)\n    tag_139:\n      dup3\n      add\n      swap2\n      swap1\n      0x00\n      mstore\n      keccak256(0x00, 0x20)\n      swap1\n    tag_140:\n      dup2\n      sload\n      dup2\n      mstore\n      swap1\n      0x01\n      add\n      swap1\n      0x20\n      add\n      dup1\n      dup4\n      gt\n      tag_140\n      jumpi\n      dup3\n      swap1\n      sub\n      0x1f\n      and\n      dup3\n      add\n      swap2\n    tag_138:\n      pop\n      pop\n      pop\n      pop\n      pop\n      dup2\n      jump\t// out\n        /* \"PaperPleace/PaperPleace.sol\":296:337  mapping(address => bool) public haFirmado */\n    tag_69:\n      mstore(0x20, 0x05)\n      dup1\n      0x00\n      mstore\n      keccak256(0x00, 0x40)\n      0x00\n      swap2\n      pop\n      sload\n      swap1\n      0x0100\n      exp\n      swap1\n      div\n      0xff\n      and\n      dup2\n      jump\t// out\n        /* \"#utility.yul\":7:133   */\n    tag_141:\n        /* \"#utility.yul\":44:51   */\n      0x00\n        /* \"#utility.yul\":84:126   */\n      0xffffffffffffffffffffffffffffffffffffffff\n        /* \"#utility.yul\":77:82   */\n      dup3\n        /* \"#utility.yul\":73:127   */\n      and\n        /* \"#utility.yul\":62:127   */\n      swap1\n      pop\n        /* \"#utility.yul\":7:133   */\n      swap2\n      swap1\n      pop\n      jump\t// out\n        /* \"#utility.yul\":139:235   */\n    tag_142:\n        /* \"#utility.yul\":176:183   */\n      0x00\n        /* \"#utility.yul\":205:229   */\n      tag_172\n        /* \"#utility.yul\":223:228   */\n      dup3\n        /* \"#utility.yul\":205:229   */\n      tag_141\n      jump\t// in\n    tag_172:\n        /* \"#utility.yul\":194:229   */\n      swap1\n      pop\n        /* \"#utility.yul\":139:235   */\n      swap2\n      swap1\n      pop\n      jump\t// out\n        /* \"#utility.yul\":241:359   */\n    tag_143:\n        /* \"#utility.yul\":328:352   */\n      tag_174\n        /* \"#utility.yul\":346:351   */\n      dup2\n        /* \"#utility.yul\":328:352   */\n      tag_142\n      jump\t// in\n    tag_174:\n        /* \"#utility.yul\":323:326   */\n      dup3\n        /* \"#utility.yul\":316:353   */\n      mstore\n        /* \"#utility.yul\":241:359   */\n      pop\n      pop\n      jump\t// out\n        /* \"#utility.yul\":365:587   */\n    tag_23:\n        /* \"#utility.yul\":458:462   */\n      0x00\n        /* \"#utility.yul\":496:498   */\n      0x20\n        /* \"#utility.yul\":485:494   */\n      dup3\n        /* \"#utility.yul\":481:499   */\n      add\n        /* \"#utility.yul\":473:499   */\n      swap1\n      pop\n        /* \"#utility.yul\":509:580   */\n      tag_176\n        /* \"#utility.yul\":577:578   */\n      0x00\n        /* \"#utility.yul\":566:575   */\n      dup4\n        /* \"#utility.yul\":562:579   */\n      add\n        /* \"#utility.yul\":553:559   */\n      dup5\n        /* \"#utility.yul\":509:580   */\n      tag_143\n      jump\t// in\n    tag_176:\n        /* \"#utility.yul\":365:587   */\n      swap3\n      swap2\n      pop\n      pop\n      jump\t// out\n        /* \"#utility.yul\":593:683   */\n    tag_144:\n        /* \"#utility.yul\":627:634   */\n      0x00\n        /* \"#utility.yul\":670:675   */\n      dup2\n        /* \"#utility.yul\":663:676   */\n      iszero\n        /* \"#utility.yul\":656:677   */\n      iszero\n        /* \"#utility.yul\":645:677   */\n      swap1\n      pop\n        /* \"#utility.yul\":593:683   */\n      swap2\n      swap1\n      pop\n      jump\t// out\n        /* \"#utility.yul\":689:798   */\n    tag_145:\n        /* \"#utility.yul\":770:791   */\n      tag_179\n        /* \"#utility.yul\":785:790   */\n      dup2\n        /* \"#utility.yul\":770:791   */\n      tag_144\n      jump\t// in\n    tag_179:\n        /* \"#utility.yul\":765:768   */\n      dup3\n        /* \"#utility.yul\":758:792   */\n      mstore\n        /* \"#utility.yul\":689:798   */\n      pop\n      pop\n      jump\t// out\n        /* \"#utility.yul\":804:1014   */\n    tag_29:\n        /* \"#utility.yul\":891:895   */\n      0x00\n        /* \"#utility.yul\":929:931   */\n      0x20\n        /* \"#utility.yul\":918:927   */\n      dup3\n        /* \"#utility.yul\":914:932   */\n      add\n        /* \"#utility.yul\":906:932   */\n      swap1\n      pop\n        /* \"#utility.yul\":942:1007   */\n      tag_181\n        /* \"#utility.yul\":1004:1005   */\n      0x00\n        /* \"#utility.yul\":993:1002   */\n      dup4\n        /* \"#utility.yul\":989:1006   */\n      add\n        /* \"#utility.yul\":980:986   */\n      dup5\n        /* \"#utility.yul\":942:1007   */\n      tag_145\n      jump\t// in\n    tag_181:\n        /* \"#utility.yul\":804:1014   */\n      swap3\n      swap2\n      pop\n      pop\n      jump\t// out\n        /* \"#utility.yul\":1101:1218   */\n    tag_147:\n        /* \"#utility.yul\":1210:1211   */\n      0x00\n        /* \"#utility.yul\":1207:1208   */\n      0x00\n        /* \"#utility.yul\":1200:1212   */\n      revert\n        /* \"#utility.yul\":1347:1469   */\n    tag_149:\n        /* \"#utility.yul\":1420:1444   */\n      tag_186\n        /* \"#utility.yul\":1438:1443   */\n      dup2\n        /* \"#utility.yul\":1420:1444   */\n      tag_142\n      jump\t// in\n    tag_186:\n        /* \"#utility.yul\":1413:1418   */\n      dup2\n        /* \"#utility.yul\":1410:1445   */\n      eq\n        /* \"#utility.yul\":1400:1463   */\n      tag_187\n      jumpi\n        /* \"#utility.yul\":1459:1460   */\n      0x00\n        /* \"#utility.yul\":1456:1457   */\n      0x00\n        /* \"#utility.yul\":1449:1461   */\n      revert\n        /* \"#utility.yul\":1400:1463   */\n    tag_187:\n        /* \"#utility.yul\":1347:1469   */\n      pop\n      jump\t// out\n        /* \"#utility.yul\":1475:1614   */\n    tag_150:\n        /* \"#utility.yul\":1521:1526   */\n      0x00\n        /* \"#utility.yul\":1559:1565   */\n      dup2\n        /* \"#utility.yul\":1546:1566   */\n      calldataload\n        /* \"#utility.yul\":1537:1566   */\n      swap1\n      pop\n        /* \"#utility.yul\":1575:1608   */\n      tag_189\n        /* \"#utility.yul\":1602:1607   */\n      dup2\n        /* \"#utility.yul\":1575:1608   */\n      tag_149\n      jump\t// in\n    tag_189:\n        /* \"#utility.yul\":1475:1614   */\n      swap3\n      swap2\n      pop\n      pop\n      jump\t// out\n        /* \"#utility.yul\":1620:1949   */\n    tag_32:\n        /* \"#utility.yul\":1679:1685   */\n      0x00\n        /* \"#utility.yul\":1728:1730   */\n      0x20\n        /* \"#utility.yul\":1716:1725   */\n      dup3\n        /* \"#utility.yul\":1707:1714   */\n      dup5\n        /* \"#utility.yul\":1703:1726   */\n      sub\n        /* \"#utility.yul\":1699:1731   */\n      slt\n        /* \"#utility.yul\":1696:1815   */\n      iszero\n      tag_191\n      jumpi\n        /* \"#utility.yul\":1734:1813   */\n      tag_192\n      tag_147\n      jump\t// in\n    tag_192:\n        /* \"#utility.yul\":1696:1815   */\n    tag_191:\n        /* \"#utility.yul\":1854:1855   */\n      0x00\n        /* \"#utility.yul\":1879:1932   */\n      tag_193\n        /* \"#utility.yul\":1924:1931   */\n      dup5\n        /* \"#utility.yul\":1915:1921   */\n      dup3\n        /* \"#utility.yul\":1904:1913   */\n      dup6\n        /* \"#utility.yul\":1900:1922   */\n      add\n        /* \"#utility.yul\":1879:1932   */\n      tag_150\n      jump\t// in\n    tag_193:\n        /* \"#utility.yul\":1869:1932   */\n      swap2\n      pop\n        /* \"#utility.yul\":1825:1942   */\n      pop\n        /* \"#utility.yul\":1620:1949   */\n      swap3\n      swap2\n      pop\n      pop\n      jump\t// out\n        /* \"#utility.yul\":1955:2032   */\n    tag_151:\n        /* \"#utility.yul\":1992:1999   */\n      0x00\n        /* \"#utility.yul\":2021:2026   */\n      dup2\n        /* \"#utility.yul\":2010:2026   */\n      swap1\n      pop\n        /* \"#utility.yul\":1955:2032   */\n      swap2\n      swap1\n      pop\n      jump\t// out\n        /* \"#utility.yul\":2038:2156   */\n    tag_152:\n        /* \"#utility.yul\":2125:2149   */\n      tag_196\n        /* \"#utility.yul\":2143:2148   */\n      dup2\n        /* \"#utility.yul\":2125:2149   */\n      tag_151\n      jump\t// in\n    tag_196:\n        /* \"#utility.yul\":2120:2123   */\n      dup3\n        /* \"#utility.yul\":2113:2150   */\n      mstore\n        /* \"#utility.yul\":2038:2156   */\n      pop\n      pop\n      jump\t// out\n        /* \"#utility.yul\":2162:2482   */\n    tag_35:\n        /* \"#utility.yul\":2277:2281   */\n      0x00\n        /* \"#utility.yul\":2315:2317   */\n      0x40\n        /* \"#utility.yul\":2304:2313   */\n      dup3\n        /* \"#utility.yul\":2300:2318   */\n      add\n        /* \"#utility.yul\":2292:2318   */\n      swap1\n      pop\n        /* \"#utility.yul\":2328:2393   */\n      tag_198\n        /* \"#utility.yul\":2390:2391   */\n      0x00\n        /* \"#utility.yul\":2379:2388   */\n      dup4\n        /* \"#utility.yul\":2375:2392   */\n      add\n        /* \"#utility.yul\":2366:2372   */\n      dup6\n        /* \"#utility.yul\":2328:2393   */\n      tag_145\n      jump\t// in\n    tag_198:\n        /* \"#utility.yul\":2403:2475   */\n      tag_199\n        /* \"#utility.yul\":2471:2473   */\n      0x20\n        /* \"#utility.yul\":2460:2469   */\n      dup4\n        /* \"#utility.yul\":2456:2474   */\n      add\n        /* \"#utility.yul\":2447:2453   */\n      dup5\n        /* \"#utility.yul\":2403:2475   */\n      tag_152\n      jump\t// in\n    tag_199:\n        /* \"#utility.yul\":2162:2482   */\n      swap4\n      swap3\n      pop\n      pop\n      pop\n      jump\t// out\n        /* \"#utility.yul\":2488:2930   */\n    tag_39:\n        /* \"#utility.yul\":2637:2641   */\n      0x00\n        /* \"#utility.yul\":2675:2677   */\n      0x60\n        /* \"#utility.yul\":2664:2673   */\n      dup3\n        /* \"#utility.yul\":2660:2678   */\n      add\n        /* \"#utility.yul\":2652:2678   */\n      swap1\n      pop\n        /* \"#utility.yul\":2688:2759   */\n      tag_201\n        /* \"#utility.yul\":2756:2757   */\n      0x00\n        /* \"#utility.yul\":2745:2754   */\n      dup4\n        /* \"#utility.yul\":2741:2758   */\n      add\n        /* \"#utility.yul\":2732:2738   */\n      dup7\n        /* \"#utility.yul\":2688:2759   */\n      tag_143\n      jump\t// in\n    tag_201:\n        /* \"#utility.yul\":2769:2841   */\n      tag_202\n        /* \"#utility.yul\":2837:2839   */\n      0x20\n        /* \"#utility.yul\":2826:2835   */\n      dup4\n        /* \"#utility.yul\":2822:2840   */\n      add\n        /* \"#utility.yul\":2813:2819   */\n      dup6\n        /* \"#utility.yul\":2769:2841   */\n      tag_143\n      jump\t// in\n    tag_202:\n        /* \"#utility.yul\":2851:2923   */\n      tag_203\n        /* \"#utility.yul\":2919:2921   */\n      0x40\n        /* \"#utility.yul\":2908:2917   */\n      dup4\n        /* \"#utility.yul\":2904:2922   */\n      add\n        /* \"#utility.yul\":2895:2901   */\n      dup5\n        /* \"#utility.yul\":2851:2923   */\n      tag_143\n      jump\t// in\n    tag_203:\n        /* \"#utility.yul\":2488:2930   */\n      swap5\n      swap4\n      pop\n      pop\n      pop\n      pop\n      jump\t// out\n        /* \"#utility.yul\":2936:3116   */\n    tag_80:\n        /* \"#utility.yul\":2984:3061   */\n      0x4e487b7100000000000000000000000000000000000000000000000000000000\n        /* \"#utility.yul\":2981:2982   */\n      0x00\n        /* \"#utility.yul\":2974:3062   */\n      mstore\n        /* \"#utility.yul\":3081:3085   */\n      0x21\n        /* \"#utility.yul\":3078:3079   */\n      0x04\n        /* \"#utility.yul\":3071:3086   */\n      mstore\n        /* \"#utility.yul\":3105:3109   */\n      0x24\n        /* \"#utility.yul\":3102:3103   */\n      0x00\n        /* \"#utility.yul\":3095:3110   */\n      revert\n        /* \"#utility.yul\":3122:3236   */\n    tag_153:\n        /* \"#utility.yul\":3204:3205   */\n      0x03\n        /* \"#utility.yul\":3197:3202   */\n      dup2\n        /* \"#utility.yul\":3194:3206   */\n      lt\n        /* \"#utility.yul\":3184:3230   */\n      tag_206\n      jumpi\n        /* \"#utility.yul\":3210:3228   */\n      tag_207\n      tag_80\n      jump\t// in\n    tag_207:\n        /* \"#utility.yul\":3184:3230   */\n    tag_206:\n        /* \"#utility.yul\":3122:3236   */\n      pop\n      jump\t// out\n        /* \"#utility.yul\":3242:3371   */\n    tag_154:\n        /* \"#utility.yul\":3288:3295   */\n      0x00\n        /* \"#utility.yul\":3317:3322   */\n      dup2\n        /* \"#utility.yul\":3306:3322   */\n      swap1\n      pop\n        /* \"#utility.yul\":3323:3365   */\n      tag_209\n        /* \"#utility.yul\":3359:3364   */\n      dup3\n        /* \"#utility.yul\":3323:3365   */\n      tag_153\n      jump\t// in\n    tag_209:\n        /* \"#utility.yul\":3242:3371   */\n      swap2\n      swap1\n      pop\n      jump\t// out\n        /* \"#utility.yul\":3377:3506   */\n    tag_155:\n        /* \"#utility.yul\":3434:3443   */\n      0x00\n        /* \"#utility.yul\":3467:3500   */\n      tag_211\n        /* \"#utility.yul\":3494:3499   */\n      dup3\n        /* \"#utility.yul\":3467:3500   */\n      tag_154\n      jump\t// in\n    tag_211:\n        /* \"#utility.yul\":3454:3500   */\n      swap1\n      pop\n        /* \"#utility.yul\":3377:3506   */\n      swap2\n      swap1\n      pop\n      jump\t// out\n        /* \"#utility.yul\":3512:3657   */\n    tag_156:\n        /* \"#utility.yul\":3606:3650   */\n      tag_213\n        /* \"#utility.yul\":3644:3649   */\n      dup2\n        /* \"#utility.yul\":3606:3650   */\n      tag_155\n      jump\t// in\n    tag_213:\n        /* \"#utility.yul\":3601:3604   */\n      dup3\n        /* \"#utility.yul\":3594:3651   */\n      mstore\n        /* \"#utility.yul\":3512:3657   */\n      pop\n      pop\n      jump\t// out\n        /* \"#utility.yul\":3663:3899   */\n    tag_43:\n        /* \"#utility.yul\":3763:3767   */\n      0x00\n        /* \"#utility.yul\":3801:3803   */\n      0x20\n        /* \"#utility.yul\":3790:3799   */\n      dup3\n        /* \"#utility.yul\":3786:3804   */\n      add\n        /* \"#utility.yul\":3778:3804   */\n      swap1\n      pop\n        /* \"#utility.yul\":3814:3892   */\n      tag_215\n        /* \"#utility.yul\":3889:3890   */\n      0x00\n        /* \"#utility.yul\":3878:3887   */\n      dup4\n        /* \"#utility.yul\":3874:3891   */\n      add\n        /* \"#utility.yul\":3865:3871   */\n      dup5\n        /* \"#utility.yul\":3814:3892   */\n      tag_156\n      jump\t// in\n    tag_215:\n        /* \"#utility.yul\":3663:3899   */\n      swap3\n      swap2\n      pop\n      pop\n      jump\t// out\n        /* \"#utility.yul\":3905:4004   */\n    tag_157:\n        /* \"#utility.yul\":3957:3963   */\n      0x00\n        /* \"#utility.yul\":3991:3996   */\n      dup2\n        /* \"#utility.yul\":3985:3997   */\n      mload\n        /* \"#utility.yul\":3975:3997   */\n      swap1\n      pop\n        /* \"#utility.yul\":3905:4004   */\n      swap2\n      swap1\n      pop\n      jump\t// out\n        /* \"#utility.yul\":4010:4179   */\n    tag_158:\n        /* \"#utility.yul\":4094:4105   */\n      0x00\n        /* \"#utility.yul\":4128:4134   */\n      dup3\n        /* \"#utility.yul\":4123:4126   */\n      dup3\n        /* \"#utility.yul\":4116:4135   */\n      mstore\n        /* \"#utility.yul\":4168:4172   */\n      0x20\n        /* \"#utility.yul\":4163:4166   */\n      dup3\n        /* \"#utility.yul\":4159:4173   */\n      add\n        /* \"#utility.yul\":4144:4173   */\n      swap1\n      pop\n        /* \"#utility.yul\":4010:4179   */\n      swap3\n      swap2\n      pop\n      pop\n      jump\t// out\n        /* \"#utility.yul\":4185:4324   */\n    tag_159:\n        /* \"#utility.yul\":4274:4280   */\n      dup3\n        /* \"#utility.yul\":4269:4272   */\n      dup2\n        /* \"#utility.yul\":4264:4267   */\n      dup4\n        /* \"#utility.yul\":4258:4281   */\n      mcopy\n        /* \"#utility.yul\":4315:4316   */\n      0x00\n        /* \"#utility.yul\":4306:4312   */\n      dup4\n        /* \"#utility.yul\":4301:4304   */\n      dup4\n        /* \"#utility.yul\":4297:4313   */\n      add\n        /* \"#utility.yul\":4290:4317   */\n      mstore\n        /* \"#utility.yul\":4185:4324   */\n      pop\n      pop\n      pop\n      jump\t// out\n        /* \"#utility.yul\":4330:4432   */\n    tag_160:\n        /* \"#utility.yul\":4371:4377   */\n      0x00\n        /* \"#utility.yul\":4422:4424   */\n      0x1f\n        /* \"#utility.yul\":4418:4425   */\n      not\n        /* \"#utility.yul\":4413:4415   */\n      0x1f\n        /* \"#utility.yul\":4406:4411   */\n      dup4\n        /* \"#utility.yul\":4402:4416   */\n      add\n        /* \"#utility.yul\":4398:4426   */\n      and\n        /* \"#utility.yul\":4388:4426   */\n      swap1\n      pop\n        /* \"#utility.yul\":4330:4432   */\n      swap2\n      swap1\n      pop\n      jump\t// out\n        /* \"#utility.yul\":4438:4815   */\n    tag_161:\n        /* \"#utility.yul\":4526:4529   */\n      0x00\n        /* \"#utility.yul\":4554:4593   */\n      tag_221\n        /* \"#utility.yul\":4587:4592   */\n      dup3\n        /* \"#utility.yul\":4554:4593   */\n      tag_157\n      jump\t// in\n    tag_221:\n        /* \"#utility.yul\":4609:4680   */\n      tag_222\n        /* \"#utility.yul\":4673:4679   */\n      dup2\n        /* \"#utility.yul\":4668:4671   */\n      dup6\n        /* \"#utility.yul\":4609:4680   */\n      tag_158\n      jump\t// in\n    tag_222:\n        /* \"#utility.yul\":4602:4680   */\n      swap4\n      pop\n        /* \"#utility.yul\":4689:4754   */\n      tag_223\n        /* \"#utility.yul\":4747:4753   */\n      dup2\n        /* \"#utility.yul\":4742:4745   */\n      dup6\n        /* \"#utility.yul\":4735:4739   */\n      0x20\n        /* \"#utility.yul\":4728:4733   */\n      dup7\n        /* \"#utility.yul\":4724:4740   */\n      add\n        /* \"#utility.yul\":4689:4754   */\n      tag_159\n      jump\t// in\n    tag_223:\n        /* \"#utility.yul\":4779:4808   */\n      tag_224\n        /* \"#utility.yul\":4801:4807   */\n      dup2\n        /* \"#utility.yul\":4779:4808   */\n      tag_160\n      jump\t// in\n    tag_224:\n        /* \"#utility.yul\":4774:4777   */\n      dup5\n        /* \"#utility.yul\":4770:4809   */\n      add\n        /* \"#utility.yul\":4763:4809   */\n      swap2\n      pop\n        /* \"#utility.yul\":4530:4815   */\n      pop\n        /* \"#utility.yul\":4438:4815   */\n      swap3\n      swap2\n      pop\n      pop\n      jump\t// out\n        /* \"#utility.yul\":4821:5134   */\n    tag_47:\n        /* \"#utility.yul\":4934:4938   */\n      0x00\n        /* \"#utility.yul\":4972:4974   */\n      0x20\n        /* \"#utility.yul\":4961:4970   */\n      dup3\n        /* \"#utility.yul\":4957:4975   */\n      add\n        /* \"#utility.yul\":4949:4975   */\n      swap1\n      pop\n        /* \"#utility.yul\":5021:5030   */\n      dup2\n        /* \"#utility.yul\":5015:5019   */\n      dup2\n        /* \"#utility.yul\":5011:5031   */\n      sub\n        /* \"#utility.yul\":5007:5008   */\n      0x00\n        /* \"#utility.yul\":4996:5005   */\n      dup4\n        /* \"#utility.yul\":4992:5009   */\n      add\n        /* \"#utility.yul\":4985:5032   */\n      mstore\n        /* \"#utility.yul\":5049:5127   */\n      tag_226\n        /* \"#utility.yul\":5122:5126   */\n      dup2\n        /* \"#utility.yul\":5113:5119   */\n      dup5\n        /* \"#utility.yul\":5049:5127   */\n      tag_161\n      jump\t// in\n    tag_226:\n        /* \"#utility.yul\":5041:5127   */\n      swap1\n      pop\n        /* \"#utility.yul\":4821:5134   */\n      swap3\n      swap2\n      pop\n      pop\n      jump\t// out\n        /* \"#utility.yul\":5140:5362   */\n    tag_61:\n        /* \"#utility.yul\":5233:5237   */\n      0x00\n        /* \"#utility.yul\":5271:5273   */\n      0x20\n        /* \"#utility.yul\":5260:5269   */\n      dup3\n        /* \"#utility.yul\":5256:5274   */\n      add\n        /* \"#utility.yul\":5248:5274   */\n      swap1\n      pop\n        /* \"#utility.yul\":5284:5355   */\n      tag_228\n        /* \"#utility.yul\":5352:5353   */\n      0x00\n        /* \"#utility.yul\":5341:5350   */\n      dup4\n        /* \"#utility.yul\":5337:5354   */\n      add\n        /* \"#utility.yul\":5328:5334   */\n      dup5\n        /* \"#utility.yul\":5284:5355   */\n      tag_152\n      jump\t// in\n    tag_228:\n        /* \"#utility.yul\":5140:5362   */\n      swap3\n      swap2\n      pop\n      pop\n      jump\t// out\n        /* \"#utility.yul\":5368:5549   */\n    tag_162:\n        /* \"#utility.yul\":5508:5541   */\n      0x4e6f206573746173206175746f72697a61646f2070617261206669726d617200\n        /* \"#utility.yul\":5504:5505   */\n      0x00\n        /* \"#utility.yul\":5496:5502   */\n      dup3\n        /* \"#utility.yul\":5492:5506   */\n      add\n        /* \"#utility.yul\":5485:5542   */\n      mstore\n        /* \"#utility.yul\":5368:5549   */\n      pop\n      jump\t// out\n        /* \"#utility.yul\":5555:5921   */\n    tag_163:\n        /* \"#utility.yul\":5697:5700   */\n      0x00\n        /* \"#utility.yul\":5718:5785   */\n      tag_231\n        /* \"#utility.yul\":5782:5784   */\n      0x1f\n        /* \"#utility.yul\":5777:5780   */\n      dup4\n        /* \"#utility.yul\":5718:5785   */\n      tag_158\n      jump\t// in\n    tag_231:\n        /* \"#utility.yul\":5711:5785   */\n      swap2\n      pop\n        /* \"#utility.yul\":5794:5887   */\n      tag_232\n        /* \"#utility.yul\":5883:5886   */\n      dup3\n        /* \"#utility.yul\":5794:5887   */\n      tag_162\n      jump\t// in\n    tag_232:\n        /* \"#utility.yul\":5912:5914   */\n      0x20\n        /* \"#utility.yul\":5907:5910   */\n      dup3\n        /* \"#utility.yul\":5903:5915   */\n      add\n        /* \"#utility.yul\":5896:5915   */\n      swap1\n      pop\n        /* \"#utility.yul\":5555:5921   */\n      swap2\n      swap1\n      pop\n      jump\t// out\n        /* \"#utility.yul\":5927:6346   */\n    tag_76:\n        /* \"#utility.yul\":6093:6097   */\n      0x00\n        /* \"#utility.yul\":6131:6133   */\n      0x20\n        /* \"#utility.yul\":6120:6129   */\n      dup3\n        /* \"#utility.yul\":6116:6134   */\n      add\n        /* \"#utility.yul\":6108:6134   */\n      swap1\n      pop\n        /* \"#utility.yul\":6180:6189   */\n      dup2\n        /* \"#utility.yul\":6174:6178   */\n      dup2\n        /* \"#utility.yul\":6170:6190   */\n      sub\n        /* \"#utility.yul\":6166:6167   */\n      0x00\n        /* \"#utility.yul\":6155:6164   */\n      dup4\n        /* \"#utility.yul\":6151:6168   */\n      add\n        /* \"#utility.yul\":6144:6191   */\n      mstore\n        /* \"#utility.yul\":6208:6339   */\n      tag_234\n        /* \"#utility.yul\":6334:6338   */\n      dup2\n        /* \"#utility.yul\":6208:6339   */\n      tag_163\n      jump\t// in\n    tag_234:\n        /* \"#utility.yul\":6200:6339   */\n      swap1\n      pop\n        /* \"#utility.yul\":5927:6346   */\n      swap2\n      swap1\n      pop\n      jump\t// out\n        /* \"#utility.yul\":6352:6581   */\n    tag_164:\n        /* \"#utility.yul\":6492:6526   */\n      0x456c20646f63756d656e746f20796120667565207665726966696361646f206f\n        /* \"#utility.yul\":6488:6489   */\n      0x00\n        /* \"#utility.yul\":6480:6486   */\n      dup3\n        /* \"#utility.yul\":6476:6490   */\n      add\n        /* \"#utility.yul\":6469:6527   */\n      mstore\n        /* \"#utility.yul\":6561:6573   */\n      0x2072656368617a61646f00000000000000000000000000000000000000000000\n        /* \"#utility.yul\":6556:6558   */\n      0x20\n        /* \"#utility.yul\":6548:6554   */\n      dup3\n        /* \"#utility.yul\":6544:6559   */\n      add\n        /* \"#utility.yul\":6537:6574   */\n      mstore\n        /* \"#utility.yul\":6352:6581   */\n      pop\n      jump\t// out\n        /* \"#utility.yul\":6587:6953   */\n    tag_165:\n        /* \"#utility.yul\":6729:6732   */\n      0x00\n        /* \"#utility.yul\":6750:6817   */\n      tag_237\n        /* \"#utility.yul\":6814:6816   */\n      0x2a\n        /* \"#utility.yul\":6809:6812   */\n      dup4\n        /* \"#utility.yul\":6750:6817   */\n      tag_158\n      jump\t// in\n    tag_237:\n        /* \"#utility.yul\":6743:6817   */\n      swap2\n      pop\n        /* \"#utility.yul\":6826:6919   */\n      tag_238\n        /* \"#utility.yul\":6915:6918   */\n      dup3\n        /* \"#utility.yul\":6826:6919   */\n      tag_164\n      jump\t// in\n    tag_238:\n        /* \"#utility.yul\":6944:6946   */\n      0x40\n        /* \"#utility.yul\":6939:6942   */\n      dup3\n        /* \"#utility.yul\":6935:6947   */\n      add\n        /* \"#utility.yul\":6928:6947   */\n      swap1\n      pop\n        /* \"#utility.yul\":6587:6953   */\n      swap2\n      swap1\n      pop\n      jump\t// out\n        /* \"#utility.yul\":6959:7378   */\n    tag_85:\n        /* \"#utility.yul\":7125:7129   */\n      0x00\n        /* \"#utility.yul\":7163:7165   */\n      0x20\n        /* \"#utility.yul\":7152:7161   */\n      dup3\n        /* \"#utility.yul\":7148:7166   */\n      add\n        /* \"#utility.yul\":7140:7166   */\n      swap1\n      pop\n        /* \"#utility.yul\":7212:7221   */\n      dup2\n        /* \"#utility.yul\":7206:7210   */\n      dup2\n        /* \"#utility.yul\":7202:7222   */\n      sub\n        /* \"#utility.yul\":7198:7199   */\n      0x00\n        /* \"#utility.yul\":7187:7196   */\n      dup4\n        /* \"#utility.yul\":7183:7200   */\n      add\n        /* \"#utility.yul\":7176:7223   */\n      mstore\n        /* \"#utility.yul\":7240:7371   */\n      tag_240\n        /* \"#utility.yul\":7366:7370   */\n      dup2\n        /* \"#utility.yul\":7240:7371   */\n      tag_165\n      jump\t// in\n    tag_240:\n        /* \"#utility.yul\":7232:7371   */\n      swap1\n      pop\n        /* \"#utility.yul\":6959:7378   */\n      swap2\n      swap1\n      pop\n      jump\t// out\n        /* \"#utility.yul\":7384:7564   */\n    tag_166:\n        /* \"#utility.yul\":7432:7509   */\n      0x4e487b7100000000000000000000000000000000000000000000000000000000\n        /* \"#utility.yul\":7429:7430   */\n      0x00\n        /* \"#utility.yul\":7422:7510   */\n      mstore\n        /* \"#utility.yul\":7529:7533   */\n      0x22\n        /* \"#utility.yul\":7526:7527   */\n      0x04\n        /* \"#utility.yul\":7519:7534   */\n      mstore\n        /* \"#utility.yul\":7553:7557   */\n      0x24\n        /* \"#utility.yul\":7550:7551   */\n      0x00\n        /* \"#utility.yul\":7543:7558   */\n      revert\n        /* \"#utility.yul\":7570:7890   */\n    tag_108:\n        /* \"#utility.yul\":7614:7620   */\n      0x00\n        /* \"#utility.yul\":7651:7652   */\n      0x02\n        /* \"#utility.yul\":7645:7649   */\n      dup3\n        /* \"#utility.yul\":7641:7653   */\n      div\n        /* \"#utility.yul\":7631:7653   */\n      swap1\n      pop\n        /* \"#utility.yul\":7698:7699   */\n      0x01\n        /* \"#utility.yul\":7692:7696   */\n      dup3\n        /* \"#utility.yul\":7688:7700   */\n      and\n        /* \"#utility.yul\":7719:7737   */\n      dup1\n        /* \"#utility.yul\":7709:7790   */\n      tag_243\n      jumpi\n        /* \"#utility.yul\":7775:7779   */\n      0x7f\n        /* \"#utility.yul\":7767:7773   */\n      dup3\n        /* \"#utility.yul\":7763:7780   */\n      and\n        /* \"#utility.yul\":7753:7780   */\n      swap2\n      pop\n        /* \"#utility.yul\":7709:7790   */\n    tag_243:\n        /* \"#utility.yul\":7837:7839   */\n      0x20\n        /* \"#utility.yul\":7829:7835   */\n      dup3\n        /* \"#utility.yul\":7826:7840   */\n      lt\n        /* \"#utility.yul\":7806:7824   */\n      dup2\n        /* \"#utility.yul\":7803:7841   */\n      sub\n        /* \"#utility.yul\":7800:7884   */\n      tag_244\n      jumpi\n        /* \"#utility.yul\":7856:7874   */\n      tag_245\n      tag_166\n      jump\t// in\n    tag_245:\n        /* \"#utility.yul\":7800:7884   */\n    tag_244:\n        /* \"#utility.yul\":7621:7890   */\n      pop\n        /* \"#utility.yul\":7570:7890   */\n      swap2\n      swap1\n      pop\n      jump\t// out\n        /* \"#utility.yul\":7896:8070   */\n    tag_167:\n        /* \"#utility.yul\":8036:8062   */\n      0x5961206669726d6173746520656c20646f63756d656e746f0000000000000000\n        /* \"#utility.yul\":8032:8033   */\n      0x00\n        /* \"#utility.yul\":8024:8030   */\n      dup3\n        /* \"#utility.yul\":8020:8034   */\n      add\n        /* \"#utility.yul\":8013:8063   */\n      mstore\n        /* \"#utility.yul\":7896:8070   */\n      pop\n      jump\t// out\n        /* \"#utility.yul\":8076:8442   */\n    tag_168:\n        /* \"#utility.yul\":8218:8221   */\n      0x00\n        /* \"#utility.yul\":8239:8306   */\n      tag_248\n        /* \"#utility.yul\":8303:8305   */\n      0x18\n        /* \"#utility.yul\":8298:8301   */\n      dup4\n        /* \"#utility.yul\":8239:8306   */\n      tag_158\n      jump\t// in\n    tag_248:\n        /* \"#utility.yul\":8232:8306   */\n      swap2\n      pop\n        /* \"#utility.yul\":8315:8408   */\n      tag_249\n        /* \"#utility.yul\":8404:8407   */\n      dup3\n        /* \"#utility.yul\":8315:8408   */\n      tag_167\n      jump\t// in\n    tag_249:\n        /* \"#utility.yul\":8433:8435   */\n      0x20\n        /* \"#utility.yul\":8428:8431   */\n      dup3\n        /* \"#utility.yul\":8424:8436   */\n      add\n        /* \"#utility.yul\":8417:8436   */\n      swap1\n      pop\n        /* \"#utility.yul\":8076:8442   */\n      swap2\n      swap1\n      pop\n      jump\t// out\n        /* \"#utility.yul\":8448:8867   */\n    tag_128:\n        /* \"#utility.yul\":8614:8618   */\n      0x00\n        /* \"#utility.yul\":8652:8654   */\n      0x20\n        /* \"#utility.yul\":8641:8650   */\n      dup3\n        /* \"#utility.yul\":8637:8655   */\n      add\n        /* \"#utility.yul\":8629:8655   */\n      swap1\n      pop\n        /* \"#utility.yul\":8701:8710   */\n      dup2\n        /* \"#utility.yul\":8695:8699   */\n      dup2\n        /* \"#utility.yul\":8691:8711   */\n      sub\n        /* \"#utility.yul\":8687:8688   */\n      0x00\n        /* \"#utility.yul\":8676:8685   */\n      dup4\n        /* \"#utility.yul\":8672:8689   */\n      add\n        /* \"#utility.yul\":8665:8712   */\n      mstore\n        /* \"#utility.yul\":8729:8860   */\n      tag_251\n        /* \"#utility.yul\":8855:8859   */\n      dup2\n        /* \"#utility.yul\":8729:8860   */\n      tag_168\n      jump\t// in\n    tag_251:\n        /* \"#utility.yul\":8721:8860   */\n      swap1\n      pop\n        /* \"#utility.yul\":8448:8867   */\n      swap2\n      swap1\n      pop\n      jump\t// out\n\n    auxdata: 0xa2646970667358221220b147613fadf48d801f6066eab31d8fa973b2979ffefcfafeac3c8fb6c5f7d68764736f6c634300081e0033\n}\n",
				"bytecode": {
					"linkReferences": {},
					"object": "608060405234801561000f575f5ffd5b50604051611c8b380380611c8b83398181016040528101906100319190610497565b5f73ffffffffffffffffffffffffffffffffffffffff168473ffffffffffffffffffffffffffffffffffffffff161415801561009957505f73ffffffffffffffffffffffffffffffffffffffff168373ffffffffffffffffffffffffffffffffffffffff1614155b80156100d157505f73ffffffffffffffffffffffffffffffffffffffff168273ffffffffffffffffffffffffffffffffffffffff1614155b610110576040517f08c379a000000000000000000000000000000000000000000000000000000000815260040161010790610571565b60405180910390fd5b8273ffffffffffffffffffffffffffffffffffffffff168473ffffffffffffffffffffffffffffffffffffffff161415801561017857508173ffffffffffffffffffffffffffffffffffffffff168473ffffffffffffffffffffffffffffffffffffffff1614155b80156101b057508173ffffffffffffffffffffffffffffffffffffffff168373ffffffffffffffffffffffffffffffffffffffff1614155b6101ef576040517f08c379a00000000000000000000000000000000000000000000000000000000081526004016101e6906105d9565b60405180910390fd5b835f5f6101000a81548173ffffffffffffffffffffffffffffffffffffffff021916908373ffffffffffffffffffffffffffffffffffffffff1602179055508260015f6101000a81548173ffffffffffffffffffffffffffffffffffffffff021916908373ffffffffffffffffffffffffffffffffffffffff1602179055508160025f6101000a81548173ffffffffffffffffffffffffffffffffffffffff021916908373ffffffffffffffffffffffffffffffffffffffff16021790555080600390816102bd9190610807565b505f60045f6101000a81548160ff021916908360028111156102e2576102e16108d6565b5b021790555050505050610903565b5f604051905090565b5f5ffd5b5f5ffd5b5f73ffffffffffffffffffffffffffffffffffffffff82169050919050565b5f61032a82610301565b9050919050565b61033a81610320565b8114610344575f5ffd5b50565b5f8151905061035581610331565b92915050565b5f5ffd5b5f5ffd5b5f601f19601f8301169050919050565b7f4e487b71000000000000000000000000000000000000000000000000000000005f52604160045260245ffd5b6103a982610363565b810181811067ffffffffffffffff821117156103c8576103c7610373565b5b80604052505050565b5f6103da6102f0565b90506103e682826103a0565b919050565b5f67ffffffffffffffff82111561040557610404610373565b5b61040e82610363565b9050602081019050919050565b8281835e5f83830152505050565b5f61043b610436846103eb565b6103d1565b9050828152602081018484840111156104575761045661035f565b5b61046284828561041b565b509392505050565b5f82601f83011261047e5761047d61035b565b5b815161048e848260208601610429565b91505092915050565b5f5f5f5f608085870312156104af576104ae6102f9565b5b5f6104bc87828801610347565b94505060206104cd87828801610347565b93505060406104de87828801610347565b925050606085015167ffffffffffffffff8111156104ff576104fe6102fd565b5b61050b8782880161046a565b91505092959194509250565b5f82825260208201905092915050565b7f446972656363696f6e20696e76616c69646100000000000000000000000000005f82015250565b5f61055b601283610517565b915061056682610527565b602082019050919050565b5f6020820190508181035f8301526105888161054f565b9050919050565b7f446972656363696f6e657320646562656e2073657220756e69636173000000005f82015250565b5f6105c3601c83610517565b91506105ce8261058f565b602082019050919050565b5f6020820190508181035f8301526105f0816105b7565b9050919050565b5f81519050919050565b7f4e487b71000000000000000000000000000000000000000000000000000000005f52602260045260245ffd5b5f600282049050600182168061064557607f821691505b60208210810361065857610657610601565b5b50919050565b5f819050815f5260205f209050919050565b5f6020601f8301049050919050565b5f82821b905092915050565b5f600883026106ba7fffffffffffffffffffffffffffffffffffffffffffffffffffffffffffffffff8261067f565b6106c4868361067f565b95508019841693508086168417925050509392505050565b5f819050919050565b5f819050919050565b5f6107086107036106fe846106dc565b6106e5565b6106dc565b9050919050565b5f819050919050565b610721836106ee565b61073561072d8261070f565b84845461068b565b825550505050565b5f5f905090565b61074c61073d565b610757818484610718565b505050565b5b8181101561077a5761076f5f82610744565b60018101905061075d565b5050565b601f8211156107bf576107908161065e565b61079984610670565b810160208510156107a8578190505b6107bc6107b485610670565b83018261075c565b50505b505050565b5f82821c905092915050565b5f6107df5f19846008026107c4565b1980831691505092915050565b5f6107f783836107d0565b9150826002028217905092915050565b610810826105f7565b67ffffffffffffffff81111561082957610828610373565b5b610833825461062e565b61083e82828561077e565b5f60209050601f83116001811461086f575f841561085d578287015190505b61086785826107ec565b8655506108ce565b601f19841661087d8661065e565b5f5b828110156108a45784890151825560018201915060208501945060208101905061087f565b868310156108c157848901516108bd601f8916826107d0565b8355505b6001600288020188555050505b505050505050565b7f4e487b71000000000000000000000000000000000000000000000000000000005f52602160045260245ffd5b61137b806109105f395ff3fe608060405234801561000f575f5ffd5b50600436106100e8575f3560e01c806386d05acb1161008a578063b06eef0011610064578063b06eef0014610219578063bb103aab14610249578063c623674f14610253578063ddc7296f14610271576100e8565b806386d05acb146101bf5780639bbf16e7146101dd578063a521a786146101fb576100e8565b8063249af867116100c6578063249af867146101325780633096f1a014610163578063688e346714610183578063722d22fc146101a1576100e8565b806307367c5d146100ec5780630f073f6a1461010a5780631813a13e14610114575b5f5ffd5b6100f46102a1565b6040516101019190610f3c565b60405180910390f35b6101126102c5565b005b61011c6104e6565b6040516101299190610f6f565b60405180910390f35b61014c60048036038101906101479190610fb6565b61063c565b60405161015a929190610ff9565b60405180910390f35b61016b6106cf565b60405161017a93929190611020565b60405180910390f35b61018b610742565b60405161019891906110c8565b60405180910390f35b6101a9610754565b6040516101b69190611151565b60405180910390f35b6101c761087f565b6040516101d49190611151565b60405180910390f35b6101e561090f565b6040516101f29190610f3c565b60405180910390f35b610203610934565b6040516102109190610f3c565b60405180910390f35b610233600480360381019061022e9190610fb6565b610959565b6040516102409190611171565b60405180910390f35b61025161096e565b005b61025b610e54565b6040516102689190611151565b60405180910390f35b61028b60048036038101906102869190610fb6565b610ee0565b6040516102989190610f6f565b60405180910390f35b5f5f9054906101000a900473ffffffffffffffffffffffffffffffffffffffff1681565b5f5f9054906101000a900473ffffffffffffffffffffffffffffffffffffffff1673ffffffffffffffffffffffffffffffffffffffff163373ffffffffffffffffffffffffffffffffffffffff16148061036b575060015f9054906101000a900473ffffffffffffffffffffffffffffffffffffffff1673ffffffffffffffffffffffffffffffffffffffff163373ffffffffffffffffffffffffffffffffffffffff16145b806103c2575060025f9054906101000a900473ffffffffffffffffffffffffffffffffffffffff1673ffffffffffffffffffffffffffffffffffffffff163373ffffffffffffffffffffffffffffffffffffffff16145b610401576040517f08c379a00000000000000000000000000000000000000000000000000000000081526004016103f8906111d4565b60405180910390fd5b5f600281111561041457610413611055565b5b60045f9054906101000a900460ff16600281111561043557610434611055565b5b14610475576040517f08c379a000000000000000000000000000000000000000000000000000000000815260040161046c90611262565b60405180910390fd5b600260045f6101000a81548160ff0219169083600281111561049a57610499611055565b5b02179055507f957bdc19718376f31f6b60cd9381ab424a20c688da83d5cda109ebfd8b003ef960045f9054906101000a900460ff166040516104dc91906110c8565b60405180910390a1565b5f60055f5f5f9054906101000a900473ffffffffffffffffffffffffffffffffffffffff1673ffffffffffffffffffffffffffffffffffffffff1673ffffffffffffffffffffffffffffffffffffffff1681526020019081526020015f205f9054906101000a900460ff1680156105c4575060055f60015f9054906101000a900473ffffffffffffffffffffffffffffffffffffffff1673ffffffffffffffffffffffffffffffffffffffff1673ffffffffffffffffffffffffffffffffffffffff1681526020019081526020015f205f9054906101000a900460ff165b8015610637575060055f60025f9054906101000a900473ffffffffffffffffffffffffffffffffffffffff1673ffffffffffffffffffffffffffffffffffffffff1673ffffffffffffffffffffffffffffffffffffffff1681526020019081526020015f205f9054906101000a900460ff165b905090565b5f5f60055f8473ffffffffffffffffffffffffffffffffffffffff1673ffffffffffffffffffffffffffffffffffffffff1681526020019081526020015f205f9054906101000a900460ff1660065f8573ffffffffffffffffffffffffffffffffffffffff1673ffffffffffffffffffffffffffffffffffffffff1681526020019081526020015f205491509150915091565b5f5f5f5f5f9054906101000a900473ffffffffffffffffffffffffffffffffffffffff1660015f9054906101000a900473ffffffffffffffffffffffffffffffffffffffff1660025f9054906101000a900473ffffffffffffffffffffffffffffffffffffffff16925092509250909192565b60045f9054906101000a900460ff1681565b60605f600281111561076957610768611055565b5b60045f9054906101000a900460ff16600281111561078a57610789611055565b5b036107cc576040518060400160405280600f81526020017f456e20566572696669636163696f6e0000000000000000000000000000000000815250905061087c565b600160028111156107e0576107df611055565b5b60045f9054906101000a900460ff16600281111561080157610800611055565b5b03610843576040518060400160405280600a81526020017f5665726966696361646f00000000000000000000000000000000000000000000815250905061087c565b6040518060400160405280600d81526020017f4e6f205665726966696361646f0000000000000000000000000000000000000081525090505b90565b60606003805461088e906112ad565b80601f01602080910402602001604051908101604052809291908181526020018280546108ba906112ad565b80156109055780601f106108dc57610100808354040283529160200191610905565b820191905f5260205f20905b8154815290600101906020018083116108e857829003601f168201915b5050505050905090565b60015f9054906101000a900473ffffffffffffffffffffffffffffffffffffffff1681565b60025f9054906101000a900473ffffffffffffffffffffffffffffffffffffffff1681565b6006602052805f5260405f205f915090505481565b5f5f9054906101000a900473ffffffffffffffffffffffffffffffffffffffff1673ffffffffffffffffffffffffffffffffffffffff163373ffffffffffffffffffffffffffffffffffffffff161480610a14575060015f9054906101000a900473ffffffffffffffffffffffffffffffffffffffff1673ffffffffffffffffffffffffffffffffffffffff163373ffffffffffffffffffffffffffffffffffffffff16145b80610a6b575060025f9054906101000a900473ffffffffffffffffffffffffffffffffffffffff1673ffffffffffffffffffffffffffffffffffffffff163373ffffffffffffffffffffffffffffffffffffffff16145b610aaa576040517f08c379a0000000000000000000000000000000000000000000000000000000008152600401610aa1906111d4565b60405180910390fd5b5f6002811115610abd57610abc611055565b5b60045f9054906101000a900460ff166002811115610ade57610add611055565b5b14610b1e576040517f08c379a0000000000000000000000000000000000000000000000000000000008152600401610b1590611262565b60405180910390fd5b60055f3373ffffffffffffffffffffffffffffffffffffffff1673ffffffffffffffffffffffffffffffffffffffff1681526020019081526020015f205f9054906101000a900460ff1615610ba8576040517f08c379a0000000000000000000000000000000000000000000000000000000008152600401610b9f90611327565b60405180910390fd5b600160055f3373ffffffffffffffffffffffffffffffffffffffff1673ffffffffffffffffffffffffffffffffffffffff1681526020019081526020015f205f6101000a81548160ff0219169083151502179055504260065f3373ffffffffffffffffffffffffffffffffffffffff1673ffffffffffffffffffffffffffffffffffffffff1681526020019081526020015f20819055503373ffffffffffffffffffffffffffffffffffffffff167f51581dbec304a12d989e1b7fd940a64a79f7246f4cd5594faba424411055677942604051610c859190611171565b60405180910390a260055f5f5f9054906101000a900473ffffffffffffffffffffffffffffffffffffffff1673ffffffffffffffffffffffffffffffffffffffff1673ffffffffffffffffffffffffffffffffffffffff1681526020019081526020015f205f9054906101000a900460ff168015610d6a575060055f60015f9054906101000a900473ffffffffffffffffffffffffffffffffffffffff1673ffffffffffffffffffffffffffffffffffffffff1673ffffffffffffffffffffffffffffffffffffffff1681526020019081526020015f205f9054906101000a900460ff165b8015610ddd575060055f60025f9054906101000a900473ffffffffffffffffffffffffffffffffffffffff1673ffffffffffffffffffffffffffffffffffffffff1673ffffffffffffffffffffffffffffffffffffffff1681526020019081526020015f205f9054906101000a900460ff165b15610e5257600160045f6101000a81548160ff02191690836002811115610e0757610e06611055565b5b02179055507f957bdc19718376f31f6b60cd9381ab424a20c688da83d5cda109ebfd8b003ef960045f9054906101000a900460ff16604051610e4991906110c8565b60405180910390a15b565b60038054610e61906112ad565b80601f0160208091040260200160405190810160405280929190818152602001828054610e8d906112ad565b8015610ed85780601f10610eaf57610100808354040283529160200191610ed8565b820191905f5260205f20905b815481529060010190602001808311610ebb57829003601f168201915b505050505081565b6005602052805f5260405f205f915054906101000a900460ff1681565b5f73ffffffffffffffffffffffffffffffffffffffff82169050919050565b5f610f2682610efd565b9050919050565b610f3681610f1c565b82525050565b5f602082019050610f4f5f830184610f2d565b92915050565b5f8115159050919050565b610f6981610f55565b82525050565b5f602082019050610f825f830184610f60565b92915050565b5f5ffd5b610f9581610f1c565b8114610f9f575f5ffd5b50565b5f81359050610fb081610f8c565b92915050565b5f60208284031215610fcb57610fca610f88565b5b5f610fd884828501610fa2565b91505092915050565b5f819050919050565b610ff381610fe1565b82525050565b5f60408201905061100c5f830185610f60565b6110196020830184610fea565b9392505050565b5f6060820190506110335f830186610f2d565b6110406020830185610f2d565b61104d6040830184610f2d565b949350505050565b7f4e487b71000000000000000000000000000000000000000000000000000000005f52602160045260245ffd5b6003811061109357611092611055565b5b50565b5f8190506110a382611082565b919050565b5f6110b282611096565b9050919050565b6110c2816110a8565b82525050565b5f6020820190506110db5f8301846110b9565b92915050565b5f81519050919050565b5f82825260208201905092915050565b8281835e5f83830152505050565b5f601f19601f8301169050919050565b5f611123826110e1565b61112d81856110eb565b935061113d8185602086016110fb565b61114681611109565b840191505092915050565b5f6020820190508181035f8301526111698184611119565b905092915050565b5f6020820190506111845f830184610fea565b92915050565b7f4e6f206573746173206175746f72697a61646f2070617261206669726d6172005f82015250565b5f6111be601f836110eb565b91506111c98261118a565b602082019050919050565b5f6020820190508181035f8301526111eb816111b2565b9050919050565b7f456c20646f63756d656e746f20796120667565207665726966696361646f206f5f8201527f2072656368617a61646f00000000000000000000000000000000000000000000602082015250565b5f61124c602a836110eb565b9150611257826111f2565b604082019050919050565b5f6020820190508181035f83015261127981611240565b9050919050565b7f4e487b71000000000000000000000000000000000000000000000000000000005f52602260045260245ffd5b5f60028204905060018216806112c457607f821691505b6020821081036112d7576112d6611280565b5b50919050565b7f5961206669726d6173746520656c20646f63756d656e746f00000000000000005f82015250565b5f6113116018836110eb565b915061131c826112dd565b602082019050919050565b5f6020820190508181035f83015261133e81611305565b905091905056fea2646970667358221220b147613fadf48d801f6066eab31d8fa973b2979ffefcfafeac3c8fb6c5f7d68764736f6c634300081e0033",
					"opcodes": "PUSH1 0x80 PUSH1 0x40 MSTORE CALLVALUE DUP1 ISZERO PUSH2 0xF JUMPI PUSH0 PUSH0 REVERT JUMPDEST POP PUSH1 0x40 MLOAD PUSH2 0x1C8B CODESIZE SUB DUP1 PUSH2 0x1C8B DUP4 CODECOPY DUP2 DUP2 ADD PUSH1 0x40 MSTORE DUP2 ADD SWAP1 PUSH2 0x31 SWAP2 SWAP1 PUSH2 0x497 JUMP JUMPDEST PUSH0 PUSH20 0xFFFFFFFFFFFFFFFFFFFFFFFFFFFFFFFFFFFFFFFF AND DUP5 PUSH20 0xFFFFFFFFFFFFFFFFFFFFFFFFFFFFFFFFFFFFFFFF AND EQ ISZERO DUP1 ISZERO PUSH2 0x99 JUMPI POP PUSH0 PUSH20 0xFFFFFFFFFFFFFFFFFFFFFFFFFFFFFFFFFFFFFFFF AND DUP4 PUSH20 0xFFFFFFFFFFFFFFFFFFFFFFFFFFFFFFFFFFFFFFFF AND EQ ISZERO JUMPDEST DUP1 ISZERO PUSH2 0xD1 JUMPI POP PUSH0 PUSH20 0xFFFFFFFFFFFFFFFFFFFFFFFFFFFFFFFFFFFFFFFF AND DUP3 PUSH20 0xFFFFFFFFFFFFFFFFFFFFFFFFFFFFFFFFFFFFFFFF AND EQ ISZERO JUMPDEST PUSH2 0x110 JUMPI PUSH1 0x40 MLOAD PUSH32 0x8C379A000000000000000000000000000000000000000000000000000000000 DUP2 MSTORE PUSH1 0x4 ADD PUSH2 0x107 SWAP1 PUSH2 0x571 JUMP JUMPDEST PUSH1 0x40 MLOAD DUP1 SWAP2 SUB SWAP1 REVERT JUMPDEST DUP3 PUSH20 0xFFFFFFFFFFFFFFFFFFFFFFFFFFFFFFFFFFFFFFFF AND DUP5 PUSH20 0xFFFFFFFFFFFFFFFFFFFFFFFFFFFFFFFFFFFFFFFF AND EQ ISZERO DUP1 ISZERO PUSH2 0x178 JUMPI POP DUP2 PUSH20 0xFFFFFFFFFFFFFFFFFFFFFFFFFFFFFFFFFFFFFFFF AND DUP5 PUSH20 0xFFFFFFFFFFFFFFFFFFFFFFFFFFFFFFFFFFFFFFFF AND EQ ISZERO JUMPDEST DUP1 ISZERO PUSH2 0x1B0 JUMPI POP DUP2 PUSH20 0xFFFFFFFFFFFFFFFFFFFFFFFFFFFFFFFFFFFFFFFF AND DUP4 PUSH20 0xFFFFFFFFFFFFFFFFFFFFFFFFFFFFFFFFFFFFFFFF AND EQ ISZERO JUMPDEST PUSH2 0x1EF JUMPI PUSH1 0x40 MLOAD PUSH32 0x8C379A000000000000000000000000000000000000000000000000000000000 DUP2 MSTORE PUSH1 0x4 ADD PUSH2 0x1E6 SWAP1 PUSH2 0x5D9 JUMP JUMPDEST PUSH1 0x40 MLOAD DUP1 SWAP2 SUB SWAP1 REVERT JUMPDEST DUP4 PUSH0 PUSH0 PUSH2 0x100 EXP DUP2 SLOAD DUP2 PUSH20 0xFFFFFFFFFFFFFFFFFFFFFFFFFFFFFFFFFFFFFFFF MUL NOT AND SWAP1 DUP4 PUSH20 0xFFFFFFFFFFFFFFFFFFFFFFFFFFFFFFFFFFFFFFFF AND MUL OR SWAP1 SSTORE POP DUP3 PUSH1 0x1 PUSH0 PUSH2 0x100 EXP DUP2 SLOAD DUP2 PUSH20 0xFFFFFFFFFFFFFFFFFFFFFFFFFFFFFFFFFFFFFFFF MUL NOT AND SWAP1 DUP4 PUSH20 0xFFFFFFFFFFFFFFFFFFFFFFFFFFFFFFFFFFFFFFFF AND MUL OR SWAP1 SSTORE POP DUP2 PUSH1 0x2 PUSH0 PUSH2 0x100 EXP DUP2 SLOAD DUP2 PUSH20 0xFFFFFFFFFFFFFFFFFFFFFFFFFFFFFFFFFFFFFFFF MUL NOT AND SWAP1 DUP4 PUSH20 0xFFFFFFFFFFFFFFFFFFFFFFFFFFFFFFFFFFFFFFFF AND MUL OR SWAP1 SSTORE POP DUP1 PUSH1 0x3 SWAP1 DUP2 PUSH2 0x2BD SWAP2 SWAP1 PUSH2 0x807 JUMP JUMPDEST POP PUSH0 PUSH1 0x4 PUSH0 PUSH2 0x100 EXP DUP2 SLOAD DUP2 PUSH1 0xFF MUL NOT AND SWAP1 DUP4 PUSH1 0x2 DUP2 GT ISZERO PUSH2 0x2E2 JUMPI PUSH2 0x2E1 PUSH2 0x8D6 JUMP JUMPDEST JUMPDEST MUL OR SWAP1 SSTORE POP POP POP POP POP PUSH2 0x903 JUMP JUMPDEST PUSH0 PUSH1 0x40 MLOAD SWAP1 POP SWAP1 JUMP JUMPDEST PUSH0 PUSH0 REVERT JUMPDEST PUSH0 PUSH0 REVERT JUMPDEST PUSH0 PUSH20 0xFFFFFFFFFFFFFFFFFFFFFFFFFFFFFFFFFFFFFFFF DUP3 AND SWAP1 POP SWAP2 SWAP1 POP JUMP JUMPDEST PUSH0 PUSH2 0x32A DUP3 PUSH2 0x301 JUMP JUMPDEST SWAP1 POP SWAP2 SWAP1 POP JUMP JUMPDEST PUSH2 0x33A DUP2 PUSH2 0x320 JUMP JUMPDEST DUP2 EQ PUSH2 0x344 JUMPI PUSH0 PUSH0 REVERT JUMPDEST POP JUMP JUMPDEST PUSH0 DUP2 MLOAD SWAP1 POP PUSH2 0x355 DUP2 PUSH2 0x331 JUMP JUMPDEST SWAP3 SWAP2 POP POP JUMP JUMPDEST PUSH0 PUSH0 REVERT JUMPDEST PUSH0 PUSH0 REVERT JUMPDEST PUSH0 PUSH1 0x1F NOT PUSH1 0x1F DUP4 ADD AND SWAP1 POP SWAP2 SWAP1 POP JUMP JUMPDEST PUSH32 0x4E487B7100000000000000000000000000000000000000000000000000000000 PUSH0 MSTORE PUSH1 0x41 PUSH1 0x4 MSTORE PUSH1 0x24 PUSH0 REVERT JUMPDEST PUSH2 0x3A9 DUP3 PUSH2 0x363 JUMP JUMPDEST DUP2 ADD DUP2 DUP2 LT PUSH8 0xFFFFFFFFFFFFFFFF DUP3 GT OR ISZERO PUSH2 0x3C8 JUMPI PUSH2 0x3C7 PUSH2 0x373 JUMP JUMPDEST JUMPDEST DUP1 PUSH1 0x40 MSTORE POP POP POP JUMP JUMPDEST PUSH0 PUSH2 0x3DA PUSH2 0x2F0 JUMP JUMPDEST SWAP1 POP PUSH2 0x3E6 DUP3 DUP3 PUSH2 0x3A0 JUMP JUMPDEST SWAP2 SWAP1 POP JUMP JUMPDEST PUSH0 PUSH8 0xFFFFFFFFFFFFFFFF DUP3 GT ISZERO PUSH2 0x405 JUMPI PUSH2 0x404 PUSH2 0x373 JUMP JUMPDEST JUMPDEST PUSH2 0x40E DUP3 PUSH2 0x363 JUMP JUMPDEST SWAP1 POP PUSH1 0x20 DUP2 ADD SWAP1 POP SWAP2 SWAP1 POP JUMP JUMPDEST DUP3 DUP2 DUP4 MCOPY PUSH0 DUP4 DUP4 ADD MSTORE POP POP POP JUMP JUMPDEST PUSH0 PUSH2 0x43B PUSH2 0x436 DUP5 PUSH2 0x3EB JUMP JUMPDEST PUSH2 0x3D1 JUMP JUMPDEST SWAP1 POP DUP3 DUP2 MSTORE PUSH1 0x20 DUP2 ADD DUP5 DUP5 DUP5 ADD GT ISZERO PUSH2 0x457 JUMPI PUSH2 0x456 PUSH2 0x35F JUMP JUMPDEST JUMPDEST PUSH2 0x462 DUP5 DUP3 DUP6 PUSH2 0x41B JUMP JUMPDEST POP SWAP4 SWAP3 POP POP POP JUMP JUMPDEST PUSH0 DUP3 PUSH1 0x1F DUP4 ADD SLT PUSH2 0x47E JUMPI PUSH2 0x47D PUSH2 0x35B JUMP JUMPDEST JUMPDEST DUP2 MLOAD PUSH2 0x48E DUP5 DUP3 PUSH1 0x20 DUP7 ADD PUSH2 0x429 JUMP JUMPDEST SWAP2 POP POP SWAP3 SWAP2 POP POP JUMP JUMPDEST PUSH0 PUSH0 PUSH0 PUSH0 PUSH1 0x80 DUP6 DUP8 SUB SLT ISZERO PUSH2 0x4AF JUMPI PUSH2 0x4AE PUSH2 0x2F9 JUMP JUMPDEST JUMPDEST PUSH0 PUSH2 0x4BC DUP8 DUP3 DUP9 ADD PUSH2 0x347 JUMP JUMPDEST SWAP5 POP POP PUSH1 0x20 PUSH2 0x4CD DUP8 DUP3 DUP9 ADD PUSH2 0x347 JUMP JUMPDEST SWAP4 POP POP PUSH1 0x40 PUSH2 0x4DE DUP8 DUP3 DUP9 ADD PUSH2 0x347 JUMP JUMPDEST SWAP3 POP POP PUSH1 0x60 DUP6 ADD MLOAD PUSH8 0xFFFFFFFFFFFFFFFF DUP2 GT ISZERO PUSH2 0x4FF JUMPI PUSH2 0x4FE PUSH2 0x2FD JUMP JUMPDEST JUMPDEST PUSH2 0x50B DUP8 DUP3 DUP9 ADD PUSH2 0x46A JUMP JUMPDEST SWAP2 POP POP SWAP3 SWAP6 SWAP2 SWAP5 POP SWAP3 POP JUMP JUMPDEST PUSH0 DUP3 DUP3 MSTORE PUSH1 0x20 DUP3 ADD SWAP1 POP SWAP3 SWAP2 POP POP JUMP JUMPDEST PUSH32 0x446972656363696F6E20696E76616C6964610000000000000000000000000000 PUSH0 DUP3 ADD MSTORE POP JUMP JUMPDEST PUSH0 PUSH2 0x55B PUSH1 0x12 DUP4 PUSH2 0x517 JUMP JUMPDEST SWAP2 POP PUSH2 0x566 DUP3 PUSH2 0x527 JUMP JUMPDEST PUSH1 0x20 DUP3 ADD SWAP1 POP SWAP2 SWAP1 POP JUMP JUMPDEST PUSH0 PUSH1 0x20 DUP3 ADD SWAP1 POP DUP2 DUP2 SUB PUSH0 DUP4 ADD MSTORE PUSH2 0x588 DUP2 PUSH2 0x54F JUMP JUMPDEST SWAP1 POP SWAP2 SWAP1 POP JUMP JUMPDEST PUSH32 0x446972656363696F6E657320646562656E2073657220756E6963617300000000 PUSH0 DUP3 ADD MSTORE POP JUMP JUMPDEST PUSH0 PUSH2 0x5C3 PUSH1 0x1C DUP4 PUSH2 0x517 JUMP JUMPDEST SWAP2 POP PUSH2 0x5CE DUP3 PUSH2 0x58F JUMP JUMPDEST PUSH1 0x20 DUP3 ADD SWAP1 POP SWAP2 SWAP1 POP JUMP JUMPDEST PUSH0 PUSH1 0x20 DUP3 ADD SWAP1 POP DUP2 DUP2 SUB PUSH0 DUP4 ADD MSTORE PUSH2 0x5F0 DUP2 PUSH2 0x5B7 JUMP JUMPDEST SWAP1 POP SWAP2 SWAP1 POP JUMP JUMPDEST PUSH0 DUP2 MLOAD SWAP1 POP SWAP2 SWAP1 POP JUMP JUMPDEST PUSH32 0x4E487B7100000000000000000000000000000000000000000000000000000000 PUSH0 MSTORE PUSH1 0x22 PUSH1 0x4 MSTORE PUSH1 0x24 PUSH0 REVERT JUMPDEST PUSH0 PUSH1 0x2 DUP3 DIV SWAP1 POP PUSH1 0x1 DUP3 AND DUP1 PUSH2 0x645 JUMPI PUSH1 0x7F DUP3 AND SWAP2 POP JUMPDEST PUSH1 0x20 DUP3 LT DUP2 SUB PUSH2 0x658 JUMPI PUSH2 0x657 PUSH2 0x601 JUMP JUMPDEST JUMPDEST POP SWAP2 SWAP1 POP JUMP JUMPDEST PUSH0 DUP2 SWAP1 POP DUP2 PUSH0 MSTORE PUSH1 0x20 PUSH0 KECCAK256 SWAP1 POP SWAP2 SWAP1 POP JUMP JUMPDEST PUSH0 PUSH1 0x20 PUSH1 0x1F DUP4 ADD DIV SWAP1 POP SWAP2 SWAP1 POP JUMP JUMPDEST PUSH0 DUP3 DUP3 SHL SWAP1 POP SWAP3 SWAP2 POP POP JUMP JUMPDEST PUSH0 PUSH1 0x8 DUP4 MUL PUSH2 0x6BA PUSH32 0xFFFFFFFFFFFFFFFFFFFFFFFFFFFFFFFFFFFFFFFFFFFFFFFFFFFFFFFFFFFFFFFF DUP3 PUSH2 0x67F JUMP JUMPDEST PUSH2 0x6C4 DUP7 DUP4 PUSH2 0x67F JUMP JUMPDEST SWAP6 POP DUP1 NOT DUP5 AND SWAP4 POP DUP1 DUP7 AND DUP5 OR SWAP3 POP POP POP SWAP4 SWAP3 POP POP POP JUMP JUMPDEST PUSH0 DUP2 SWAP1 POP SWAP2 SWAP1 POP JUMP JUMPDEST PUSH0 DUP2 SWAP1 POP SWAP2 SWAP1 POP JUMP JUMPDEST PUSH0 PUSH2 0x708 PUSH2 0x703 PUSH2 0x6FE DUP5 PUSH2 0x6DC JUMP JUMPDEST PUSH2 0x6E5 JUMP JUMPDEST PUSH2 0x6DC JUMP JUMPDEST SWAP1 POP SWAP2 SWAP1 POP JUMP JUMPDEST PUSH0 DUP2 SWAP1 POP SWAP2 SWAP1 POP JUMP JUMPDEST PUSH2 0x721 DUP4 PUSH2 0x6EE JUMP JUMPDEST PUSH2 0x735 PUSH2 0x72D DUP3 PUSH2 0x70F JUMP JUMPDEST DUP5 DUP5 SLOAD PUSH2 0x68B JUMP JUMPDEST DUP3 SSTORE POP POP POP POP JUMP JUMPDEST PUSH0 PUSH0 SWAP1 POP SWAP1 JUMP JUMPDEST PUSH2 0x74C PUSH2 0x73D JUMP JUMPDEST PUSH2 0x757 DUP2 DUP5 DUP5 PUSH2 0x718 JUMP JUMPDEST POP POP POP JUMP JUMPDEST JUMPDEST DUP2 DUP2 LT ISZERO PUSH2 0x77A JUMPI PUSH2 0x76F PUSH0 DUP3 PUSH2 0x744 JUMP JUMPDEST PUSH1 0x1 DUP2 ADD SWAP1 POP PUSH2 0x75D JUMP JUMPDEST POP POP JUMP JUMPDEST PUSH1 0x1F DUP3 GT ISZERO PUSH2 0x7BF JUMPI PUSH2 0x790 DUP2 PUSH2 0x65E JUMP JUMPDEST PUSH2 0x799 DUP5 PUSH2 0x670 JUMP JUMPDEST DUP2 ADD PUSH1 0x20 DUP6 LT ISZERO PUSH2 0x7A8 JUMPI DUP2 SWAP1 POP JUMPDEST PUSH2 0x7BC PUSH2 0x7B4 DUP6 PUSH2 0x670 JUMP JUMPDEST DUP4 ADD DUP3 PUSH2 0x75C JUMP JUMPDEST POP POP JUMPDEST POP POP POP JUMP JUMPDEST PUSH0 DUP3 DUP3 SHR SWAP1 POP SWAP3 SWAP2 POP POP JUMP JUMPDEST PUSH0 PUSH2 0x7DF PUSH0 NOT DUP5 PUSH1 0x8 MUL PUSH2 0x7C4 JUMP JUMPDEST NOT DUP1 DUP4 AND SWAP2 POP POP SWAP3 SWAP2 POP POP JUMP JUMPDEST PUSH0 PUSH2 0x7F7 DUP4 DUP4 PUSH2 0x7D0 JUMP JUMPDEST SWAP2 POP DUP3 PUSH1 0x2 MUL DUP3 OR SWAP1 POP SWAP3 SWAP2 POP POP JUMP JUMPDEST PUSH2 0x810 DUP3 PUSH2 0x5F7 JUMP JUMPDEST PUSH8 0xFFFFFFFFFFFFFFFF DUP2 GT ISZERO PUSH2 0x829 JUMPI PUSH2 0x828 PUSH2 0x373 JUMP JUMPDEST JUMPDEST PUSH2 0x833 DUP3 SLOAD PUSH2 0x62E JUMP JUMPDEST PUSH2 0x83E DUP3 DUP3 DUP6 PUSH2 0x77E JUMP JUMPDEST PUSH0 PUSH1 0x20 SWAP1 POP PUSH1 0x1F DUP4 GT PUSH1 0x1 DUP2 EQ PUSH2 0x86F JUMPI PUSH0 DUP5 ISZERO PUSH2 0x85D JUMPI DUP3 DUP8 ADD MLOAD SWAP1 POP JUMPDEST PUSH2 0x867 DUP6 DUP3 PUSH2 0x7EC JUMP JUMPDEST DUP7 SSTORE POP PUSH2 0x8CE JUMP JUMPDEST PUSH1 0x1F NOT DUP5 AND PUSH2 0x87D DUP7 PUSH2 0x65E JUMP JUMPDEST PUSH0 JUMPDEST DUP3 DUP2 LT ISZERO PUSH2 0x8A4 JUMPI DUP5 DUP10 ADD MLOAD DUP3 SSTORE PUSH1 0x1 DUP3 ADD SWAP2 POP PUSH1 0x20 DUP6 ADD SWAP5 POP PUSH1 0x20 DUP2 ADD SWAP1 POP PUSH2 0x87F JUMP JUMPDEST DUP7 DUP4 LT ISZERO PUSH2 0x8C1 JUMPI DUP5 DUP10 ADD MLOAD PUSH2 0x8BD PUSH1 0x1F DUP10 AND DUP3 PUSH2 0x7D0 JUMP JUMPDEST DUP4 SSTORE POP JUMPDEST PUSH1 0x1 PUSH1 0x2 DUP9 MUL ADD DUP9 SSTORE POP POP POP JUMPDEST POP POP POP POP POP POP JUMP JUMPDEST PUSH32 0x4E487B7100000000000000000000000000000000000000000000000000000000 PUSH0 MSTORE PUSH1 0x21 PUSH1 0x4 MSTORE PUSH1 0x24 PUSH0 REVERT JUMPDEST PUSH2 0x137B DUP1 PUSH2 0x910 PUSH0 CODECOPY PUSH0 RETURN INVALID PUSH1 0x80 PUSH1 0x40 MSTORE CALLVALUE DUP1 ISZERO PUSH2 0xF JUMPI PUSH0 PUSH0 REVERT JUMPDEST POP PUSH1 0x4 CALLDATASIZE LT PUSH2 0xE8 JUMPI PUSH0 CALLDATALOAD PUSH1 0xE0 SHR DUP1 PUSH4 0x86D05ACB GT PUSH2 0x8A JUMPI DUP1 PUSH4 0xB06EEF00 GT PUSH2 0x64 JUMPI DUP1 PUSH4 0xB06EEF00 EQ PUSH2 0x219 JUMPI DUP1 PUSH4 0xBB103AAB EQ PUSH2 0x249 JUMPI DUP1 PUSH4 0xC623674F EQ PUSH2 0x253 JUMPI DUP1 PUSH4 0xDDC7296F EQ PUSH2 0x271 JUMPI PUSH2 0xE8 JUMP JUMPDEST DUP1 PUSH4 0x86D05ACB EQ PUSH2 0x1BF JUMPI DUP1 PUSH4 0x9BBF16E7 EQ PUSH2 0x1DD JUMPI DUP1 PUSH4 0xA521A786 EQ PUSH2 0x1FB JUMPI PUSH2 0xE8 JUMP JUMPDEST DUP1 PUSH4 0x249AF867 GT PUSH2 0xC6 JUMPI DUP1 PUSH4 0x249AF867 EQ PUSH2 0x132 JUMPI DUP1 PUSH4 0x3096F1A0 EQ PUSH2 0x163 JUMPI DUP1 PUSH4 0x688E3467 EQ PUSH2 0x183 JUMPI DUP1 PUSH4 0x722D22FC EQ PUSH2 0x1A1 JUMPI PUSH2 0xE8 JUMP JUMPDEST DUP1 PUSH4 0x7367C5D EQ PUSH2 0xEC JUMPI DUP1 PUSH4 0xF073F6A EQ PUSH2 0x10A JUMPI DUP1 PUSH4 0x1813A13E EQ PUSH2 0x114 JUMPI JUMPDEST PUSH0 PUSH0 REVERT JUMPDEST PUSH2 0xF4 PUSH2 0x2A1 JUMP JUMPDEST PUSH1 0x40 MLOAD PUSH2 0x101 SWAP2 SWAP1 PUSH2 0xF3C JUMP JUMPDEST PUSH1 0x40 MLOAD DUP1 SWAP2 SUB SWAP1 RETURN JUMPDEST PUSH2 0x112 PUSH2 0x2C5 JUMP JUMPDEST STOP JUMPDEST PUSH2 0x11C PUSH2 0x4E6 JUMP JUMPDEST PUSH1 0x40 MLOAD PUSH2 0x129 SWAP2 SWAP1 PUSH2 0xF6F JUMP JUMPDEST PUSH1 0x40 MLOAD DUP1 SWAP2 SUB SWAP1 RETURN JUMPDEST PUSH2 0x14C PUSH1 0x4 DUP1 CALLDATASIZE SUB DUP2 ADD SWAP1 PUSH2 0x147 SWAP2 SWAP1 PUSH2 0xFB6 JUMP JUMPDEST PUSH2 0x63C JUMP JUMPDEST PUSH1 0x40 MLOAD PUSH2 0x15A SWAP3 SWAP2 SWAP1 PUSH2 0xFF9 JUMP JUMPDEST PUSH1 0x40 MLOAD DUP1 SWAP2 SUB SWAP1 RETURN JUMPDEST PUSH2 0x16B PUSH2 0x6CF JUMP JUMPDEST PUSH1 0x40 MLOAD PUSH2 0x17A SWAP4 SWAP3 SWAP2 SWAP1 PUSH2 0x1020 JUMP JUMPDEST PUSH1 0x40 MLOAD DUP1 SWAP2 SUB SWAP1 RETURN JUMPDEST PUSH2 0x18B PUSH2 0x742 JUMP JUMPDEST PUSH1 0x40 MLOAD PUSH2 0x198 SWAP2 SWAP1 PUSH2 0x10C8 JUMP JUMPDEST PUSH1 0x40 MLOAD DUP1 SWAP2 SUB SWAP1 RETURN JUMPDEST PUSH2 0x1A9 PUSH2 0x754 JUMP JUMPDEST PUSH1 0x40 MLOAD PUSH2 0x1B6 SWAP2 SWAP1 PUSH2 0x1151 JUMP JUMPDEST PUSH1 0x40 MLOAD DUP1 SWAP2 SUB SWAP1 RETURN JUMPDEST PUSH2 0x1C7 PUSH2 0x87F JUMP JUMPDEST PUSH1 0x40 MLOAD PUSH2 0x1D4 SWAP2 SWAP1 PUSH2 0x1151 JUMP JUMPDEST PUSH1 0x40 MLOAD DUP1 SWAP2 SUB SWAP1 RETURN JUMPDEST PUSH2 0x1E5 PUSH2 0x90F JUMP JUMPDEST PUSH1 0x40 MLOAD PUSH2 0x1F2 SWAP2 SWAP1 PUSH2 0xF3C JUMP JUMPDEST PUSH1 0x40 MLOAD DUP1 SWAP2 SUB SWAP1 RETURN JUMPDEST PUSH2 0x203 PUSH2 0x934 JUMP JUMPDEST PUSH1 0x40 MLOAD PUSH2 0x210 SWAP2 SWAP1 PUSH2 0xF3C JUMP JUMPDEST PUSH1 0x40 MLOAD DUP1 SWAP2 SUB SWAP1 RETURN JUMPDEST PUSH2 0x233 PUSH1 0x4 DUP1 CALLDATASIZE SUB DUP2 ADD SWAP1 PUSH2 0x22E SWAP2 SWAP1 PUSH2 0xFB6 JUMP JUMPDEST PUSH2 0x959 JUMP JUMPDEST PUSH1 0x40 MLOAD PUSH2 0x240 SWAP2 SWAP1 PUSH2 0x1171 JUMP JUMPDEST PUSH1 0x40 MLOAD DUP1 SWAP2 SUB SWAP1 RETURN JUMPDEST PUSH2 0x251 PUSH2 0x96E JUMP JUMPDEST STOP JUMPDEST PUSH2 0x25B PUSH2 0xE54 JUMP JUMPDEST PUSH1 0x40 MLOAD PUSH2 0x268 SWAP2 SWAP1 PUSH2 0x1151 JUMP JUMPDEST PUSH1 0x40 MLOAD DUP1 SWAP2 SUB SWAP1 RETURN JUMPDEST PUSH2 0x28B PUSH1 0x4 DUP1 CALLDATASIZE SUB DUP2 ADD SWAP1 PUSH2 0x286 SWAP2 SWAP1 PUSH2 0xFB6 JUMP JUMPDEST PUSH2 0xEE0 JUMP JUMPDEST PUSH1 0x40 MLOAD PUSH2 0x298 SWAP2 SWAP1 PUSH2 0xF6F JUMP JUMPDEST PUSH1 0x40 MLOAD DUP1 SWAP2 SUB SWAP1 RETURN JUMPDEST PUSH0 PUSH0 SWAP1 SLOAD SWAP1 PUSH2 0x100 EXP SWAP1 DIV PUSH20 0xFFFFFFFFFFFFFFFFFFFFFFFFFFFFFFFFFFFFFFFF AND DUP2 JUMP JUMPDEST PUSH0 PUSH0 SWAP1 SLOAD SWAP1 PUSH2 0x100 EXP SWAP1 DIV PUSH20 0xFFFFFFFFFFFFFFFFFFFFFFFFFFFFFFFFFFFFFFFF AND PUSH20 0xFFFFFFFFFFFFFFFFFFFFFFFFFFFFFFFFFFFFFFFF AND CALLER PUSH20 0xFFFFFFFFFFFFFFFFFFFFFFFFFFFFFFFFFFFFFFFF AND EQ DUP1 PUSH2 0x36B JUMPI POP PUSH1 0x1 PUSH0 SWAP1 SLOAD SWAP1 PUSH2 0x100 EXP SWAP1 DIV PUSH20 0xFFFFFFFFFFFFFFFFFFFFFFFFFFFFFFFFFFFFFFFF AND PUSH20 0xFFFFFFFFFFFFFFFFFFFFFFFFFFFFFFFFFFFFFFFF AND CALLER PUSH20 0xFFFFFFFFFFFFFFFFFFFFFFFFFFFFFFFFFFFFFFFF AND EQ JUMPDEST DUP1 PUSH2 0x3C2 JUMPI POP PUSH1 0x2 PUSH0 SWAP1 SLOAD SWAP1 PUSH2 0x100 EXP SWAP1 DIV PUSH20 0xFFFFFFFFFFFFFFFFFFFFFFFFFFFFFFFFFFFFFFFF AND PUSH20 0xFFFFFFFFFFFFFFFFFFFFFFFFFFFFFFFFFFFFFFFF AND CALLER PUSH20 0xFFFFFFFFFFFFFFFFFFFFFFFFFFFFFFFFFFFFFFFF AND EQ JUMPDEST PUSH2 0x401 JUMPI PUSH1 0x40 MLOAD PUSH32 0x8C379A000000000000000000000000000000000000000000000000000000000 DUP2 MSTORE PUSH1 0x4 ADD PUSH2 0x3F8 SWAP1 PUSH2 0x11D4 JUMP JUMPDEST PUSH1 0x40 MLOAD DUP1 SWAP2 SUB SWAP1 REVERT JUMPDEST PUSH0 PUSH1 0x2 DUP2 GT ISZERO PUSH2 0x414 JUMPI PUSH2 0x413 PUSH2 0x1055 JUMP JUMPDEST JUMPDEST PUSH1 0x4 PUSH0 SWAP1 SLOAD SWAP1 PUSH2 0x100 EXP SWAP1 DIV PUSH1 0xFF AND PUSH1 0x2 DUP2 GT ISZERO PUSH2 0x435 JUMPI PUSH2 0x434 PUSH2 0x1055 JUMP JUMPDEST JUMPDEST EQ PUSH2 0x475 JUMPI PUSH1 0x40 MLOAD PUSH32 0x8C379A000000000000000000000000000000000000000000000000000000000 DUP2 MSTORE PUSH1 0x4 ADD PUSH2 0x46C SWAP1 PUSH2 0x1262 JUMP JUMPDEST PUSH1 0x40 MLOAD DUP1 SWAP2 SUB SWAP1 REVERT JUMPDEST PUSH1 0x2 PUSH1 0x4 PUSH0 PUSH2 0x100 EXP DUP2 SLOAD DUP2 PUSH1 0xFF MUL NOT AND SWAP1 DUP4 PUSH1 0x2 DUP2 GT ISZERO PUSH2 0x49A JUMPI PUSH2 0x499 PUSH2 0x1055 JUMP JUMPDEST JUMPDEST MUL OR SWAP1 SSTORE POP PUSH32 0x957BDC19718376F31F6B60CD9381AB424A20C688DA83D5CDA109EBFD8B003EF9 PUSH1 0x4 PUSH0 SWAP1 SLOAD SWAP1 PUSH2 0x100 EXP SWAP1 DIV PUSH1 0xFF AND PUSH1 0x40 MLOAD PUSH2 0x4DC SWAP2 SWAP1 PUSH2 0x10C8 JUMP JUMPDEST PUSH1 0x40 MLOAD DUP1 SWAP2 SUB SWAP1 LOG1 JUMP JUMPDEST PUSH0 PUSH1 0x5 PUSH0 PUSH0 PUSH0 SWAP1 SLOAD SWAP1 PUSH2 0x100 EXP SWAP1 DIV PUSH20 0xFFFFFFFFFFFFFFFFFFFFFFFFFFFFFFFFFFFFFFFF AND PUSH20 0xFFFFFFFFFFFFFFFFFFFFFFFFFFFFFFFFFFFFFFFF AND PUSH20 0xFFFFFFFFFFFFFFFFFFFFFFFFFFFFFFFFFFFFFFFF AND DUP2 MSTORE PUSH1 0x20 ADD SWAP1 DUP2 MSTORE PUSH1 0x20 ADD PUSH0 KECCAK256 PUSH0 SWAP1 SLOAD SWAP1 PUSH2 0x100 EXP SWAP1 DIV PUSH1 0xFF AND DUP1 ISZERO PUSH2 0x5C4 JUMPI POP PUSH1 0x5 PUSH0 PUSH1 0x1 PUSH0 SWAP1 SLOAD SWAP1 PUSH2 0x100 EXP SWAP1 DIV PUSH20 0xFFFFFFFFFFFFFFFFFFFFFFFFFFFFFFFFFFFFFFFF AND PUSH20 0xFFFFFFFFFFFFFFFFFFFFFFFFFFFFFFFFFFFFFFFF AND PUSH20 0xFFFFFFFFFFFFFFFFFFFFFFFFFFFFFFFFFFFFFFFF AND DUP2 MSTORE PUSH1 0x20 ADD SWAP1 DUP2 MSTORE PUSH1 0x20 ADD PUSH0 KECCAK256 PUSH0 SWAP1 SLOAD SWAP1 PUSH2 0x100 EXP SWAP1 DIV PUSH1 0xFF AND JUMPDEST DUP1 ISZERO PUSH2 0x637 JUMPI POP PUSH1 0x5 PUSH0 PUSH1 0x2 PUSH0 SWAP1 SLOAD SWAP1 PUSH2 0x100 EXP SWAP1 DIV PUSH20 0xFFFFFFFFFFFFFFFFFFFFFFFFFFFFFFFFFFFFFFFF AND PUSH20 0xFFFFFFFFFFFFFFFFFFFFFFFFFFFFFFFFFFFFFFFF AND PUSH20 0xFFFFFFFFFFFFFFFFFFFFFFFFFFFFFFFFFFFFFFFF AND DUP2 MSTORE PUSH1 0x20 ADD SWAP1 DUP2 MSTORE PUSH1 0x20 ADD PUSH0 KECCAK256 PUSH0 SWAP1 SLOAD SWAP1 PUSH2 0x100 EXP SWAP1 DIV PUSH1 0xFF AND JUMPDEST SWAP1 POP SWAP1 JUMP JUMPDEST PUSH0 PUSH0 PUSH1 0x5 PUSH0 DUP5 PUSH20 0xFFFFFFFFFFFFFFFFFFFFFFFFFFFFFFFFFFFFFFFF AND PUSH20 0xFFFFFFFFFFFFFFFFFFFFFFFFFFFFFFFFFFFFFFFF AND DUP2 MSTORE PUSH1 0x20 ADD SWAP1 DUP2 MSTORE PUSH1 0x20 ADD PUSH0 KECCAK256 PUSH0 SWAP1 SLOAD SWAP1 PUSH2 0x100 EXP SWAP1 DIV PUSH1 0xFF AND PUSH1 0x6 PUSH0 DUP6 PUSH20 0xFFFFFFFFFFFFFFFFFFFFFFFFFFFFFFFFFFFFFFFF AND PUSH20 0xFFFFFFFFFFFFFFFFFFFFFFFFFFFFFFFFFFFFFFFF AND DUP2 MSTORE PUSH1 0x20 ADD SWAP1 DUP2 MSTORE PUSH1 0x20 ADD PUSH0 KECCAK256 SLOAD SWAP2 POP SWAP2 POP SWAP2 POP SWAP2 JUMP JUMPDEST PUSH0 PUSH0 PUSH0 PUSH0 PUSH0 SWAP1 SLOAD SWAP1 PUSH2 0x100 EXP SWAP1 DIV PUSH20 0xFFFFFFFFFFFFFFFFFFFFFFFFFFFFFFFFFFFFFFFF AND PUSH1 0x1 PUSH0 SWAP1 SLOAD SWAP1 PUSH2 0x100 EXP SWAP1 DIV PUSH20 0xFFFFFFFFFFFFFFFFFFFFFFFFFFFFFFFFFFFFFFFF AND PUSH1 0x2 PUSH0 SWAP1 SLOAD SWAP1 PUSH2 0x100 EXP SWAP1 DIV PUSH20 0xFFFFFFFFFFFFFFFFFFFFFFFFFFFFFFFFFFFFFFFF AND SWAP3 POP SWAP3 POP SWAP3 POP SWAP1 SWAP2 SWAP3 JUMP JUMPDEST PUSH1 0x4 PUSH0 SWAP1 SLOAD SWAP1 PUSH2 0x100 EXP SWAP1 DIV PUSH1 0xFF AND DUP2 JUMP JUMPDEST PUSH1 0x60 PUSH0 PUSH1 0x2 DUP2 GT ISZERO PUSH2 0x769 JUMPI PUSH2 0x768 PUSH2 0x1055 JUMP JUMPDEST JUMPDEST PUSH1 0x4 PUSH0 SWAP1 SLOAD SWAP1 PUSH2 0x100 EXP SWAP1 DIV PUSH1 0xFF AND PUSH1 0x2 DUP2 GT ISZERO PUSH2 0x78A JUMPI PUSH2 0x789 PUSH2 0x1055 JUMP JUMPDEST JUMPDEST SUB PUSH2 0x7CC JUMPI PUSH1 0x40 MLOAD DUP1 PUSH1 0x40 ADD PUSH1 0x40 MSTORE DUP1 PUSH1 0xF DUP2 MSTORE PUSH1 0x20 ADD PUSH32 0x456E20566572696669636163696F6E0000000000000000000000000000000000 DUP2 MSTORE POP SWAP1 POP PUSH2 0x87C JUMP JUMPDEST PUSH1 0x1 PUSH1 0x2 DUP2 GT ISZERO PUSH2 0x7E0 JUMPI PUSH2 0x7DF PUSH2 0x1055 JUMP JUMPDEST JUMPDEST PUSH1 0x4 PUSH0 SWAP1 SLOAD SWAP1 PUSH2 0x100 EXP SWAP1 DIV PUSH1 0xFF AND PUSH1 0x2 DUP2 GT ISZERO PUSH2 0x801 JUMPI PUSH2 0x800 PUSH2 0x1055 JUMP JUMPDEST JUMPDEST SUB PUSH2 0x843 JUMPI PUSH1 0x40 MLOAD DUP1 PUSH1 0x40 ADD PUSH1 0x40 MSTORE DUP1 PUSH1 0xA DUP2 MSTORE PUSH1 0x20 ADD PUSH32 0x5665726966696361646F00000000000000000000000000000000000000000000 DUP2 MSTORE POP SWAP1 POP PUSH2 0x87C JUMP JUMPDEST PUSH1 0x40 MLOAD DUP1 PUSH1 0x40 ADD PUSH1 0x40 MSTORE DUP1 PUSH1 0xD DUP2 MSTORE PUSH1 0x20 ADD PUSH32 0x4E6F205665726966696361646F00000000000000000000000000000000000000 DUP2 MSTORE POP SWAP1 POP JUMPDEST SWAP1 JUMP JUMPDEST PUSH1 0x60 PUSH1 0x3 DUP1 SLOAD PUSH2 0x88E SWAP1 PUSH2 0x12AD JUMP JUMPDEST DUP1 PUSH1 0x1F ADD PUSH1 0x20 DUP1 SWAP2 DIV MUL PUSH1 0x20 ADD PUSH1 0x40 MLOAD SWAP1 DUP2 ADD PUSH1 0x40 MSTORE DUP1 SWAP3 SWAP2 SWAP1 DUP2 DUP2 MSTORE PUSH1 0x20 ADD DUP3 DUP1 SLOAD PUSH2 0x8BA SWAP1 PUSH2 0x12AD JUMP JUMPDEST DUP1 ISZERO PUSH2 0x905 JUMPI DUP1 PUSH1 0x1F LT PUSH2 0x8DC JUMPI PUSH2 0x100 DUP1 DUP4 SLOAD DIV MUL DUP4 MSTORE SWAP2 PUSH1 0x20 ADD SWAP2 PUSH2 0x905 JUMP JUMPDEST DUP3 ADD SWAP2 SWAP1 PUSH0 MSTORE PUSH1 0x20 PUSH0 KECCAK256 SWAP1 JUMPDEST DUP2 SLOAD DUP2 MSTORE SWAP1 PUSH1 0x1 ADD SWAP1 PUSH1 0x20 ADD DUP1 DUP4 GT PUSH2 0x8E8 JUMPI DUP3 SWAP1 SUB PUSH1 0x1F AND DUP3 ADD SWAP2 JUMPDEST POP POP POP POP POP SWAP1 POP SWAP1 JUMP JUMPDEST PUSH1 0x1 PUSH0 SWAP1 SLOAD SWAP1 PUSH2 0x100 EXP SWAP1 DIV PUSH20 0xFFFFFFFFFFFFFFFFFFFFFFFFFFFFFFFFFFFFFFFF AND DUP2 JUMP JUMPDEST PUSH1 0x2 PUSH0 SWAP1 SLOAD SWAP1 PUSH2 0x100 EXP SWAP1 DIV PUSH20 0xFFFFFFFFFFFFFFFFFFFFFFFFFFFFFFFFFFFFFFFF AND DUP2 JUMP JUMPDEST PUSH1 0x6 PUSH1 0x20 MSTORE DUP1 PUSH0 MSTORE PUSH1 0x40 PUSH0 KECCAK256 PUSH0 SWAP2 POP SWAP1 POP SLOAD DUP2 JUMP JUMPDEST PUSH0 PUSH0 SWAP1 SLOAD SWAP1 PUSH2 0x100 EXP SWAP1 DIV PUSH20 0xFFFFFFFFFFFFFFFFFFFFFFFFFFFFFFFFFFFFFFFF AND PUSH20 0xFFFFFFFFFFFFFFFFFFFFFFFFFFFFFFFFFFFFFFFF AND CALLER PUSH20 0xFFFFFFFFFFFFFFFFFFFFFFFFFFFFFFFFFFFFFFFF AND EQ DUP1 PUSH2 0xA14 JUMPI POP PUSH1 0x1 PUSH0 SWAP1 SLOAD SWAP1 PUSH2 0x100 EXP SWAP1 DIV PUSH20 0xFFFFFFFFFFFFFFFFFFFFFFFFFFFFFFFFFFFFFFFF AND PUSH20 0xFFFFFFFFFFFFFFFFFFFFFFFFFFFFFFFFFFFFFFFF AND CALLER PUSH20 0xFFFFFFFFFFFFFFFFFFFFFFFFFFFFFFFFFFFFFFFF AND EQ JUMPDEST DUP1 PUSH2 0xA6B JUMPI POP PUSH1 0x2 PUSH0 SWAP1 SLOAD SWAP1 PUSH2 0x100 EXP SWAP1 DIV PUSH20 0xFFFFFFFFFFFFFFFFFFFFFFFFFFFFFFFFFFFFFFFF AND PUSH20 0xFFFFFFFFFFFFFFFFFFFFFFFFFFFFFFFFFFFFFFFF AND CALLER PUSH20 0xFFFFFFFFFFFFFFFFFFFFFFFFFFFFFFFFFFFFFFFF AND EQ JUMPDEST PUSH2 0xAAA JUMPI PUSH1 0x40 MLOAD PUSH32 0x8C379A000000000000000000000000000000000000000000000000000000000 DUP2 MSTORE PUSH1 0x4 ADD PUSH2 0xAA1 SWAP1 PUSH2 0x11D4 JUMP JUMPDEST PUSH1 0x40 MLOAD DUP1 SWAP2 SUB SWAP1 REVERT JUMPDEST PUSH0 PUSH1 0x2 DUP2 GT ISZERO PUSH2 0xABD JUMPI PUSH2 0xABC PUSH2 0x1055 JUMP JUMPDEST JUMPDEST PUSH1 0x4 PUSH0 SWAP1 SLOAD SWAP1 PUSH2 0x100 EXP SWAP1 DIV PUSH1 0xFF AND PUSH1 0x2 DUP2 GT ISZERO PUSH2 0xADE JUMPI PUSH2 0xADD PUSH2 0x1055 JUMP JUMPDEST JUMPDEST EQ PUSH2 0xB1E JUMPI PUSH1 0x40 MLOAD PUSH32 0x8C379A000000000000000000000000000000000000000000000000000000000 DUP2 MSTORE PUSH1 0x4 ADD PUSH2 0xB15 SWAP1 PUSH2 0x1262 JUMP JUMPDEST PUSH1 0x40 MLOAD DUP1 SWAP2 SUB SWAP1 REVERT JUMPDEST PUSH1 0x5 PUSH0 CALLER PUSH20 0xFFFFFFFFFFFFFFFFFFFFFFFFFFFFFFFFFFFFFFFF AND PUSH20 0xFFFFFFFFFFFFFFFFFFFFFFFFFFFFFFFFFFFFFFFF AND DUP2 MSTORE PUSH1 0x20 ADD SWAP1 DUP2 MSTORE PUSH1 0x20 ADD PUSH0 KECCAK256 PUSH0 SWAP1 SLOAD SWAP1 PUSH2 0x100 EXP SWAP1 DIV PUSH1 0xFF AND ISZERO PUSH2 0xBA8 JUMPI PUSH1 0x40 MLOAD PUSH32 0x8C379A000000000000000000000000000000000000000000000000000000000 DUP2 MSTORE PUSH1 0x4 ADD PUSH2 0xB9F SWAP1 PUSH2 0x1327 JUMP JUMPDEST PUSH1 0x40 MLOAD DUP1 SWAP2 SUB SWAP1 REVERT JUMPDEST PUSH1 0x1 PUSH1 0x5 PUSH0 CALLER PUSH20 0xFFFFFFFFFFFFFFFFFFFFFFFFFFFFFFFFFFFFFFFF AND PUSH20 0xFFFFFFFFFFFFFFFFFFFFFFFFFFFFFFFFFFFFFFFF AND DUP2 MSTORE PUSH1 0x20 ADD SWAP1 DUP2 MSTORE PUSH1 0x20 ADD PUSH0 KECCAK256 PUSH0 PUSH2 0x100 EXP DUP2 SLOAD DUP2 PUSH1 0xFF MUL NOT AND SWAP1 DUP4 ISZERO ISZERO MUL OR SWAP1 SSTORE POP TIMESTAMP PUSH1 0x6 PUSH0 CALLER PUSH20 0xFFFFFFFFFFFFFFFFFFFFFFFFFFFFFFFFFFFFFFFF AND PUSH20 0xFFFFFFFFFFFFFFFFFFFFFFFFFFFFFFFFFFFFFFFF AND DUP2 MSTORE PUSH1 0x20 ADD SWAP1 DUP2 MSTORE PUSH1 0x20 ADD PUSH0 KECCAK256 DUP2 SWAP1 SSTORE POP CALLER PUSH20 0xFFFFFFFFFFFFFFFFFFFFFFFFFFFFFFFFFFFFFFFF AND PUSH32 0x51581DBEC304A12D989E1B7FD940A64A79F7246F4CD5594FABA4244110556779 TIMESTAMP PUSH1 0x40 MLOAD PUSH2 0xC85 SWAP2 SWAP1 PUSH2 0x1171 JUMP JUMPDEST PUSH1 0x40 MLOAD DUP1 SWAP2 SUB SWAP1 LOG2 PUSH1 0x5 PUSH0 PUSH0 PUSH0 SWAP1 SLOAD SWAP1 PUSH2 0x100 EXP SWAP1 DIV PUSH20 0xFFFFFFFFFFFFFFFFFFFFFFFFFFFFFFFFFFFFFFFF AND PUSH20 0xFFFFFFFFFFFFFFFFFFFFFFFFFFFFFFFFFFFFFFFF AND PUSH20 0xFFFFFFFFFFFFFFFFFFFFFFFFFFFFFFFFFFFFFFFF AND DUP2 MSTORE PUSH1 0x20 ADD SWAP1 DUP2 MSTORE PUSH1 0x20 ADD PUSH0 KECCAK256 PUSH0 SWAP1 SLOAD SWAP1 PUSH2 0x100 EXP SWAP1 DIV PUSH1 0xFF AND DUP1 ISZERO PUSH2 0xD6A JUMPI POP PUSH1 0x5 PUSH0 PUSH1 0x1 PUSH0 SWAP1 SLOAD SWAP1 PUSH2 0x100 EXP SWAP1 DIV PUSH20 0xFFFFFFFFFFFFFFFFFFFFFFFFFFFFFFFFFFFFFFFF AND PUSH20 0xFFFFFFFFFFFFFFFFFFFFFFFFFFFFFFFFFFFFFFFF AND PUSH20 0xFFFFFFFFFFFFFFFFFFFFFFFFFFFFFFFFFFFFFFFF AND DUP2 MSTORE PUSH1 0x20 ADD SWAP1 DUP2 MSTORE PUSH1 0x20 ADD PUSH0 KECCAK256 PUSH0 SWAP1 SLOAD SWAP1 PUSH2 0x100 EXP SWAP1 DIV PUSH1 0xFF AND JUMPDEST DUP1 ISZERO PUSH2 0xDDD JUMPI POP PUSH1 0x5 PUSH0 PUSH1 0x2 PUSH0 SWAP1 SLOAD SWAP1 PUSH2 0x100 EXP SWAP1 DIV PUSH20 0xFFFFFFFFFFFFFFFFFFFFFFFFFFFFFFFFFFFFFFFF AND PUSH20 0xFFFFFFFFFFFFFFFFFFFFFFFFFFFFFFFFFFFFFFFF AND PUSH20 0xFFFFFFFFFFFFFFFFFFFFFFFFFFFFFFFFFFFFFFFF AND DUP2 MSTORE PUSH1 0x20 ADD SWAP1 DUP2 MSTORE PUSH1 0x20 ADD PUSH0 KECCAK256 PUSH0 SWAP1 SLOAD SWAP1 PUSH2 0x100 EXP SWAP1 DIV PUSH1 0xFF AND JUMPDEST ISZERO PUSH2 0xE52 JUMPI PUSH1 0x1 PUSH1 0x4 PUSH0 PUSH2 0x100 EXP DUP2 SLOAD DUP2 PUSH1 0xFF MUL NOT AND SWAP1 DUP4 PUSH1 0x2 DUP2 GT ISZERO PUSH2 0xE07 JUMPI PUSH2 0xE06 PUSH2 0x1055 JUMP JUMPDEST JUMPDEST MUL OR SWAP1 SSTORE POP PUSH32 0x957BDC19718376F31F6B60CD9381AB424A20C688DA83D5CDA109EBFD8B003EF9 PUSH1 0x4 PUSH0 SWAP1 SLOAD SWAP1 PUSH2 0x100 EXP SWAP1 DIV PUSH1 0xFF AND PUSH1 0x40 MLOAD PUSH2 0xE49 SWAP2 SWAP1 PUSH2 0x10C8 JUMP JUMPDEST PUSH1 0x40 MLOAD DUP1 SWAP2 SUB SWAP1 LOG1 JUMPDEST JUMP JUMPDEST PUSH1 0x3 DUP1 SLOAD PUSH2 0xE61 SWAP1 PUSH2 0x12AD JUMP JUMPDEST DUP1 PUSH1 0x1F ADD PUSH1 0x20 DUP1 SWAP2 DIV MUL PUSH1 0x20 ADD PUSH1 0x40 MLOAD SWAP1 DUP2 ADD PUSH1 0x40 MSTORE DUP1 SWAP3 SWAP2 SWAP1 DUP2 DUP2 MSTORE PUSH1 0x20 ADD DUP3 DUP1 SLOAD PUSH2 0xE8D SWAP1 PUSH2 0x12AD JUMP JUMPDEST DUP1 ISZERO PUSH2 0xED8 JUMPI DUP1 PUSH1 0x1F LT PUSH2 0xEAF JUMPI PUSH2 0x100 DUP1 DUP4 SLOAD DIV MUL DUP4 MSTORE SWAP2 PUSH1 0x20 ADD SWAP2 PUSH2 0xED8 JUMP JUMPDEST DUP3 ADD SWAP2 SWAP1 PUSH0 MSTORE PUSH1 0x20 PUSH0 KECCAK256 SWAP1 JUMPDEST DUP2 SLOAD DUP2 MSTORE SWAP1 PUSH1 0x1 ADD SWAP1 PUSH1 0x20 ADD DUP1 DUP4 GT PUSH2 0xEBB JUMPI DUP3 SWAP1 SUB PUSH1 0x1F AND DUP3 ADD SWAP2 JUMPDEST POP POP POP POP POP DUP2 JUMP JUMPDEST PUSH1 0x5 PUSH1 0x20 MSTORE DUP1 PUSH0 MSTORE PUSH1 0x40 PUSH0 KECCAK256 PUSH0 SWAP2 POP SLOAD SWAP1 PUSH2 0x100 EXP SWAP1 DIV PUSH1 0xFF AND DUP2 JUMP JUMPDEST PUSH0 PUSH20 0xFFFFFFFFFFFFFFFFFFFFFFFFFFFFFFFFFFFFFFFF DUP3 AND SWAP1 POP SWAP2 SWAP1 POP JUMP JUMPDEST PUSH0 PUSH2 0xF26 DUP3 PUSH2 0xEFD JUMP JUMPDEST SWAP1 POP SWAP2 SWAP1 POP JUMP JUMPDEST PUSH2 0xF36 DUP2 PUSH2 0xF1C JUMP JUMPDEST DUP3 MSTORE POP POP JUMP JUMPDEST PUSH0 PUSH1 0x20 DUP3 ADD SWAP1 POP PUSH2 0xF4F PUSH0 DUP4 ADD DUP5 PUSH2 0xF2D JUMP JUMPDEST SWAP3 SWAP2 POP POP JUMP JUMPDEST PUSH0 DUP2 ISZERO ISZERO SWAP1 POP SWAP2 SWAP1 POP JUMP JUMPDEST PUSH2 0xF69 DUP2 PUSH2 0xF55 JUMP JUMPDEST DUP3 MSTORE POP POP JUMP JUMPDEST PUSH0 PUSH1 0x20 DUP3 ADD SWAP1 POP PUSH2 0xF82 PUSH0 DUP4 ADD DUP5 PUSH2 0xF60 JUMP JUMPDEST SWAP3 SWAP2 POP POP JUMP JUMPDEST PUSH0 PUSH0 REVERT JUMPDEST PUSH2 0xF95 DUP2 PUSH2 0xF1C JUMP JUMPDEST DUP2 EQ PUSH2 0xF9F JUMPI PUSH0 PUSH0 REVERT JUMPDEST POP JUMP JUMPDEST PUSH0 DUP2 CALLDATALOAD SWAP1 POP PUSH2 0xFB0 DUP2 PUSH2 0xF8C JUMP JUMPDEST SWAP3 SWAP2 POP POP JUMP JUMPDEST PUSH0 PUSH1 0x20 DUP3 DUP5 SUB SLT ISZERO PUSH2 0xFCB JUMPI PUSH2 0xFCA PUSH2 0xF88 JUMP JUMPDEST JUMPDEST PUSH0 PUSH2 0xFD8 DUP5 DUP3 DUP6 ADD PUSH2 0xFA2 JUMP JUMPDEST SWAP2 POP POP SWAP3 SWAP2 POP POP JUMP JUMPDEST PUSH0 DUP2 SWAP1 POP SWAP2 SWAP1 POP JUMP JUMPDEST PUSH2 0xFF3 DUP2 PUSH2 0xFE1 JUMP JUMPDEST DUP3 MSTORE POP POP JUMP JUMPDEST PUSH0 PUSH1 0x40 DUP3 ADD SWAP1 POP PUSH2 0x100C PUSH0 DUP4 ADD DUP6 PUSH2 0xF60 JUMP JUMPDEST PUSH2 0x1019 PUSH1 0x20 DUP4 ADD DUP5 PUSH2 0xFEA JUMP JUMPDEST SWAP4 SWAP3 POP POP POP JUMP JUMPDEST PUSH0 PUSH1 0x60 DUP3 ADD SWAP1 POP PUSH2 0x1033 PUSH0 DUP4 ADD DUP7 PUSH2 0xF2D JUMP JUMPDEST PUSH2 0x1040 PUSH1 0x20 DUP4 ADD DUP6 PUSH2 0xF2D JUMP JUMPDEST PUSH2 0x104D PUSH1 0x40 DUP4 ADD DUP5 PUSH2 0xF2D JUMP JUMPDEST SWAP5 SWAP4 POP POP POP POP JUMP JUMPDEST PUSH32 0x4E487B7100000000000000000000000000000000000000000000000000000000 PUSH0 MSTORE PUSH1 0x21 PUSH1 0x4 MSTORE PUSH1 0x24 PUSH0 REVERT JUMPDEST PUSH1 0x3 DUP2 LT PUSH2 0x1093 JUMPI PUSH2 0x1092 PUSH2 0x1055 JUMP JUMPDEST JUMPDEST POP JUMP JUMPDEST PUSH0 DUP2 SWAP1 POP PUSH2 0x10A3 DUP3 PUSH2 0x1082 JUMP JUMPDEST SWAP2 SWAP1 POP JUMP JUMPDEST PUSH0 PUSH2 0x10B2 DUP3 PUSH2 0x1096 JUMP JUMPDEST SWAP1 POP SWAP2 SWAP1 POP JUMP JUMPDEST PUSH2 0x10C2 DUP2 PUSH2 0x10A8 JUMP JUMPDEST DUP3 MSTORE POP POP JUMP JUMPDEST PUSH0 PUSH1 0x20 DUP3 ADD SWAP1 POP PUSH2 0x10DB PUSH0 DUP4 ADD DUP5 PUSH2 0x10B9 JUMP JUMPDEST SWAP3 SWAP2 POP POP JUMP JUMPDEST PUSH0 DUP2 MLOAD SWAP1 POP SWAP2 SWAP1 POP JUMP JUMPDEST PUSH0 DUP3 DUP3 MSTORE PUSH1 0x20 DUP3 ADD SWAP1 POP SWAP3 SWAP2 POP POP JUMP JUMPDEST DUP3 DUP2 DUP4 MCOPY PUSH0 DUP4 DUP4 ADD MSTORE POP POP POP JUMP JUMPDEST PUSH0 PUSH1 0x1F NOT PUSH1 0x1F DUP4 ADD AND SWAP1 POP SWAP2 SWAP1 POP JUMP JUMPDEST PUSH0 PUSH2 0x1123 DUP3 PUSH2 0x10E1 JUMP JUMPDEST PUSH2 0x112D DUP2 DUP6 PUSH2 0x10EB JUMP JUMPDEST SWAP4 POP PUSH2 0x113D DUP2 DUP6 PUSH1 0x20 DUP7 ADD PUSH2 0x10FB JUMP JUMPDEST PUSH2 0x1146 DUP2 PUSH2 0x1109 JUMP JUMPDEST DUP5 ADD SWAP2 POP POP SWAP3 SWAP2 POP POP JUMP JUMPDEST PUSH0 PUSH1 0x20 DUP3 ADD SWAP1 POP DUP2 DUP2 SUB PUSH0 DUP4 ADD MSTORE PUSH2 0x1169 DUP2 DUP5 PUSH2 0x1119 JUMP JUMPDEST SWAP1 POP SWAP3 SWAP2 POP POP JUMP JUMPDEST PUSH0 PUSH1 0x20 DUP3 ADD SWAP1 POP PUSH2 0x1184 PUSH0 DUP4 ADD DUP5 PUSH2 0xFEA JUMP JUMPDEST SWAP3 SWAP2 POP POP JUMP JUMPDEST PUSH32 0x4E6F206573746173206175746F72697A61646F2070617261206669726D617200 PUSH0 DUP3 ADD MSTORE POP JUMP JUMPDEST PUSH0 PUSH2 0x11BE PUSH1 0x1F DUP4 PUSH2 0x10EB JUMP JUMPDEST SWAP2 POP PUSH2 0x11C9 DUP3 PUSH2 0x118A JUMP JUMPDEST PUSH1 0x20 DUP3 ADD SWAP1 POP SWAP2 SWAP1 POP JUMP JUMPDEST PUSH0 PUSH1 0x20 DUP3 ADD SWAP1 POP DUP2 DUP2 SUB PUSH0 DUP4 ADD MSTORE PUSH2 0x11EB DUP2 PUSH2 0x11B2 JUMP JUMPDEST SWAP1 POP SWAP2 SWAP1 POP JUMP JUMPDEST PUSH32 0x456C20646F63756D656E746F20796120667565207665726966696361646F206F PUSH0 DUP3 ADD MSTORE PUSH32 0x2072656368617A61646F00000000000000000000000000000000000000000000 PUSH1 0x20 DUP3 ADD MSTORE POP JUMP JUMPDEST PUSH0 PUSH2 0x124C PUSH1 0x2A DUP4 PUSH2 0x10EB JUMP JUMPDEST SWAP2 POP PUSH2 0x1257 DUP3 PUSH2 0x11F2 JUMP JUMPDEST PUSH1 0x40 DUP3 ADD SWAP1 POP SWAP2 SWAP1 POP JUMP JUMPDEST PUSH0 PUSH1 0x20 DUP3 ADD SWAP1 POP DUP2 DUP2 SUB PUSH0 DUP4 ADD MSTORE PUSH2 0x1279 DUP2 PUSH2 0x1240 JUMP JUMPDEST SWAP1 POP SWAP2 SWAP1 POP JUMP JUMPDEST PUSH32 0x4E487B7100000000000000000000000000000000000000000000000000000000 PUSH0 MSTORE PUSH1 0x22 PUSH1 0x4 MSTORE PUSH1 0x24 PUSH0 REVERT JUMPDEST PUSH0 PUSH1 0x2 DUP3 DIV SWAP1 POP PUSH1 0x1 DUP3 AND DUP1 PUSH2 0x12C4 JUMPI PUSH1 0x7F DUP3 AND SWAP2 POP JUMPDEST PUSH1 0x20 DUP3 LT DUP2 SUB PUSH2 0x12D7 JUMPI PUSH2 0x12D6 PUSH2 0x1280 JUMP JUMPDEST JUMPDEST POP SWAP2 SWAP1 POP JUMP JUMPDEST PUSH32 0x5961206669726D6173746520656C20646F63756D656E746F0000000000000000 PUSH0 DUP3 ADD MSTORE POP JUMP JUMPDEST PUSH0 PUSH2 0x1311 PUSH1 0x18 DUP4 PUSH2 0x10EB JUMP JUMPDEST SWAP2 POP PUSH2 0x131C DUP3 PUSH2 0x12DD JUMP JUMPDEST PUSH1 0x20 DUP3 ADD SWAP1 POP SWAP2 SWAP1 POP JUMP JUMPDEST PUSH0 PUSH1 0x20 DUP3 ADD SWAP1 POP DUP2 DUP2 SUB PUSH0 DUP4 ADD MSTORE PUSH2 0x133E DUP2 PUSH2 0x1305 JUMP JUMPDEST SWAP1 POP SWAP2 SWAP1 POP JUMP INVALID LOG2 PUSH5 0x6970667358 0x22 SLT KECCAK256 0xB1 SELFBALANCE PUSH2 0x3FAD DELEGATECALL DUP14 DUP1 0x1F PUSH1 0x66 0xEA 0xB3 SAR DUP16 0xA9 PUSH20 0xB2979FFEFCFAFEAC3C8FB6C5F7D68764736F6C63 NUMBER STOP ADDMOD 0x1E STOP CALLER "
				},
				"gasEstimates": {
					"creation": {
						"codeDepositCost": "997400",
						"executionCost": "infinite",
						"totalCost": "infinite"
					},
					"external": {
						"estado()": "2621",
						"fechaFirma(address)": "2824",
						"firmadoPorTodos()": "13529",
						"firmante1()": "2531",
						"firmante2()": "2553",
						"firmante3()": "2575",
						"firmarDocumento()": "100117",
						"fueFirmadoPor(address)": "5190",
						"haFirmado(address)": "2921",
						"ipfsHash()": "infinite",
						"marcarNoVerificado()": "36617",
						"obtenerEstado()": "infinite",
						"obtenerFirmantes()": "infinite",
						"obtenerHashIPFS()": "infinite"
					}
				},
				"methodIdentifiers": {
					"estado()": "688e3467",
					"fechaFirma(address)": "b06eef00",
					"firmadoPorTodos()": "1813a13e",
					"firmante1()": "07367c5d",
					"firmante2()": "9bbf16e7",
					"firmante3()": "a521a786",
					"firmarDocumento()": "bb103aab",
					"fueFirmadoPor(address)": "249af867",
					"haFirmado(address)": "ddc7296f",
					"ipfsHash()": "c623674f",
					"marcarNoVerificado()": "0f073f6a",
					"obtenerEstado()": "722d22fc",
					"obtenerFirmantes()": "3096f1a0",
					"obtenerHashIPFS()": "86d05acb"
				}
			},
			"storageLayout": {
				"storage": [
					{
						"astId": 3,
						"contract": "PaperPleace/PaperPleace.sol:DocumentoFirmado",
						"label": "firmante1",
						"offset": 0,
						"slot": "0",
						"type": "t_address"
					},
					{
						"astId": 5,
						"contract": "PaperPleace/PaperPleace.sol:DocumentoFirmado",
						"label": "firmante2",
						"offset": 0,
						"slot": "1",
						"type": "t_address"
					},
					{
						"astId": 7,
						"contract": "PaperPleace/PaperPleace.sol:DocumentoFirmado",
						"label": "firmante3",
						"offset": 0,
						"slot": "2",
						"type": "t_address"
					},
					{
						"astId": 9,
						"contract": "PaperPleace/PaperPleace.sol:DocumentoFirmado",
						"label": "ipfsHash",
						"offset": 0,
						"slot": "3",
						"type": "t_string_storage"
					},
					{
						"astId": 16,
						"contract": "PaperPleace/PaperPleace.sol:DocumentoFirmado",
						"label": "estado",
						"offset": 0,
						"slot": "4",
						"type": "t_enum(Estado)13"
					},
					{
						"astId": 20,
						"contract": "PaperPleace/PaperPleace.sol:DocumentoFirmado",
						"label": "haFirmado",
						"offset": 0,
						"slot": "5",
						"type": "t_mapping(t_address,t_bool)"
					},
					{
						"astId": 24,
						"contract": "PaperPleace/PaperPleace.sol:DocumentoFirmado",
						"label": "fechaFirma",
						"offset": 0,
						"slot": "6",
						"type": "t_mapping(t_address,t_uint256)"
					}
				],
				"types": {
					"t_address": {
						"encoding": "inplace",
						"label": "address",
						"numberOfBytes": "20"
					},
					"t_bool": {
						"encoding": "inplace",
						"label": "bool",
						"numberOfBytes": "1"
					},
					"t_enum(Estado)13": {
						"encoding": "inplace",
						"label": "enum DocumentoFirmado.Estado",
						"numberOfBytes": "1"
					},
					"t_mapping(t_address,t_bool)": {
						"encoding": "mapping",
						"key": "t_address",
						"label": "mapping(address => bool)",
						"numberOfBytes": "32",
						"value": "t_bool"
					},
					"t_mapping(t_address,t_uint256)": {
						"encoding": "mapping",
						"key": "t_address",
						"label": "mapping(address => uint256)",
						"numberOfBytes": "32",
						"value": "t_uint256"
					},
					"t_string_storage": {
						"encoding": "bytes",
						"label": "string",
						"numberOfBytes": "32"
					},
					"t_uint256": {
						"encoding": "inplace",
						"label": "uint256",
						"numberOfBytes": "32"
					}
				}
			},
			"userdoc": {
				"kind": "user",
				"methods": {
					"marcarNoVerificado()": {
						"notice": "Esta función puede usarse si uno de los firmantes decide rechazar o cancelar la verificación"
					}
				},
				"version": 1
			}
		}
	}
}